{
	"vault.sol": {
		"PrestaVault": {
			"abi": [
				{
					"inputs": [
						{
							"internalType": "address",
							"name": "_token",
							"type": "address"
						}
					],
					"stateMutability": "nonpayable",
					"type": "constructor"
				},
				{
					"anonymous": false,
					"inputs": [
						{
							"indexed": true,
							"internalType": "address",
							"name": "previousOwner",
							"type": "address"
						},
						{
							"indexed": true,
							"internalType": "address",
							"name": "newOwner",
							"type": "address"
						}
					],
					"name": "OwnershipTransferred",
					"type": "event"
				},
				{
					"anonymous": false,
					"inputs": [
						{
							"indexed": false,
							"internalType": "address",
							"name": "_form",
							"type": "address"
						},
						{
							"indexed": false,
							"internalType": "address",
							"name": "_to",
							"type": "address"
						},
						{
							"indexed": false,
							"internalType": "uint256",
							"name": "_amount",
							"type": "uint256"
						},
						{
							"indexed": false,
							"internalType": "uint256",
							"name": "_contratKey",
							"type": "uint256"
						},
						{
							"indexed": false,
							"internalType": "uint256",
							"name": "_date",
							"type": "uint256"
						}
					],
					"name": "prestaAdded",
					"type": "event"
				},
				{
					"inputs": [
						{
							"internalType": "uint256",
							"name": "_contratKey",
							"type": "uint256"
						}
					],
					"name": "cancelTransfertPresta",
					"outputs": [],
					"stateMutability": "nonpayable",
					"type": "function"
				},
				{
					"inputs": [
						{
							"internalType": "uint256",
							"name": "_amount",
							"type": "uint256"
						},
						{
							"internalType": "address",
							"name": "_to",
							"type": "address"
						}
					],
					"name": "createPresta",
					"outputs": [
						{
							"internalType": "uint256",
							"name": "",
							"type": "uint256"
						}
					],
					"stateMutability": "nonpayable",
					"type": "function"
				},
				{
					"inputs": [
						{
							"internalType": "address",
							"name": "_address",
							"type": "address"
						},
						{
							"internalType": "enum PrestaVault.prestaStatus",
							"name": "_status",
							"type": "uint8"
						}
					],
					"name": "getNumberPrestaOfSender",
					"outputs": [
						{
							"internalType": "uint256",
							"name": "",
							"type": "uint256"
						}
					],
					"stateMutability": "view",
					"type": "function"
				},
				{
					"inputs": [],
					"name": "getPrestaForRecipient",
					"outputs": [
						{
							"components": [
								{
									"internalType": "address",
									"name": "from",
									"type": "address"
								},
								{
									"internalType": "address",
									"name": "to",
									"type": "address"
								},
								{
									"internalType": "uint256",
									"name": "amount",
									"type": "uint256"
								},
								{
									"internalType": "uint256",
									"name": "amount_fees",
									"type": "uint256"
								},
								{
									"internalType": "enum PrestaVault.prestaStatus",
									"name": "status",
									"type": "uint8"
								}
							],
							"internalType": "struct PrestaVault.presta[]",
							"name": "",
							"type": "tuple[]"
						}
					],
					"stateMutability": "view",
					"type": "function"
				},
				{
					"inputs": [],
					"name": "getPrestaOfSender",
					"outputs": [
						{
							"components": [
								{
									"internalType": "address",
									"name": "from",
									"type": "address"
								},
								{
									"internalType": "address",
									"name": "to",
									"type": "address"
								},
								{
									"internalType": "uint256",
									"name": "amount",
									"type": "uint256"
								},
								{
									"internalType": "uint256",
									"name": "amount_fees",
									"type": "uint256"
								},
								{
									"internalType": "enum PrestaVault.prestaStatus",
									"name": "status",
									"type": "uint8"
								}
							],
							"internalType": "struct PrestaVault.presta[]",
							"name": "",
							"type": "tuple[]"
						}
					],
					"stateMutability": "view",
					"type": "function"
				},
				{
					"inputs": [],
					"name": "owner",
					"outputs": [
						{
							"internalType": "address",
							"name": "",
							"type": "address"
						}
					],
					"stateMutability": "view",
					"type": "function"
				},
				{
					"inputs": [
						{
							"internalType": "address",
							"name": "",
							"type": "address"
						},
						{
							"internalType": "uint256",
							"name": "",
							"type": "uint256"
						}
					],
					"name": "prestaBySender",
					"outputs": [
						{
							"internalType": "uint256",
							"name": "",
							"type": "uint256"
						}
					],
					"stateMutability": "view",
					"type": "function"
				},
				{
					"inputs": [
						{
							"internalType": "address",
							"name": "",
							"type": "address"
						},
						{
							"internalType": "uint256",
							"name": "",
							"type": "uint256"
						}
					],
					"name": "prestaForRecipient",
					"outputs": [
						{
							"internalType": "uint256",
							"name": "",
							"type": "uint256"
						}
					],
					"stateMutability": "view",
					"type": "function"
				},
				{
					"inputs": [
						{
							"internalType": "uint256",
							"name": "",
							"type": "uint256"
						}
					],
					"name": "prestas",
					"outputs": [
						{
							"internalType": "address",
							"name": "from",
							"type": "address"
						},
						{
							"internalType": "address",
							"name": "to",
							"type": "address"
						},
						{
							"internalType": "uint256",
							"name": "amount",
							"type": "uint256"
						},
						{
							"internalType": "uint256",
							"name": "amount_fees",
							"type": "uint256"
						},
						{
							"internalType": "enum PrestaVault.prestaStatus",
							"name": "status",
							"type": "uint8"
						}
					],
					"stateMutability": "view",
					"type": "function"
				},
				{
					"inputs": [],
					"name": "renounceOwnership",
					"outputs": [],
					"stateMutability": "nonpayable",
					"type": "function"
				},
				{
					"inputs": [
						{
							"internalType": "address",
							"name": "_address",
							"type": "address"
						}
					],
					"name": "setAddressFees",
					"outputs": [],
					"stateMutability": "nonpayable",
					"type": "function"
				},
				{
					"inputs": [
						{
							"internalType": "uint256",
							"name": "_fees",
							"type": "uint256"
						}
					],
					"name": "setFees",
					"outputs": [],
					"stateMutability": "nonpayable",
					"type": "function"
				},
				{
					"inputs": [
						{
							"internalType": "uint256",
							"name": "_feesCancel",
							"type": "uint256"
						}
					],
					"name": "setFeesCancel",
					"outputs": [],
					"stateMutability": "nonpayable",
					"type": "function"
				},
				{
					"inputs": [],
					"name": "token",
					"outputs": [
						{
							"internalType": "contract IERC20",
							"name": "",
							"type": "address"
						}
					],
					"stateMutability": "view",
					"type": "function"
				},
				{
					"inputs": [
						{
							"internalType": "address",
							"name": "newOwner",
							"type": "address"
						}
					],
					"name": "transferOwnership",
					"outputs": [],
					"stateMutability": "nonpayable",
					"type": "function"
				},
				{
					"inputs": [
						{
							"internalType": "uint256",
							"name": "_contratKey",
							"type": "uint256"
						}
					],
					"name": "validTransfertPresta",
					"outputs": [],
					"stateMutability": "nonpayable",
					"type": "function"
				}
			],
			"devdoc": {
				"kind": "dev",
				"methods": {
					"owner()": {
						"details": "Returns the address of the current owner."
					},
					"renounceOwnership()": {
						"details": "Leaves the contract without owner. It will not be possible to call `onlyOwner` functions anymore. Can only be called by the current owner. NOTE: Renouncing ownership will leave the contract without an owner, thereby removing any functionality that is only available to the owner."
					},
					"transferOwnership(address)": {
						"details": "Transfers ownership of the contract to a new account (`newOwner`). Can only be called by the current owner."
					}
				},
				"version": 1
			},
			"evm": {
				"assembly": "    /* \"vault.sol\":2907:8795  contract PrestaVault is Ownable {... */\n  mstore(0x40, 0xa0)\n    /* \"vault.sol\":3642:3910  constructor(address _token) {... */\n  callvalue\n  dup1\n  iszero\n  tag_1\n  jumpi\n  0x00\n  dup1\n  revert\ntag_1:\n  pop\n  mload(0x40)\n  sub(codesize, bytecodeSize)\n  dup1\n  bytecodeSize\n  dup4\n  codecopy\n  dup2\n  dup2\n  add\n  0x40\n  mstore\n  dup2\n  add\n  swap1\n  tag_2\n  swap2\n  swap1\n  tag_3\n  jump\t// in\ntag_2:\n    /* \"@openzeppelin/contracts/access/Ownable.sol\":936:968  _transferOwnership(_msgSender()) */\n  tag_7\n    /* \"@openzeppelin/contracts/access/Ownable.sol\":955:967  _msgSender() */\n  tag_8\n    /* \"@openzeppelin/contracts/access/Ownable.sol\":955:965  _msgSender */\n  shl(0x20, tag_9)\n    /* \"@openzeppelin/contracts/access/Ownable.sol\":955:967  _msgSender() */\n  0x20\n  shr\n  jump\t// in\ntag_8:\n    /* \"@openzeppelin/contracts/access/Ownable.sol\":936:954  _transferOwnership */\n  shl(0x20, tag_10)\n    /* \"@openzeppelin/contracts/access/Ownable.sol\":936:968  _transferOwnership(_msgSender()) */\n  0x20\n  shr\n  jump\t// in\ntag_7:\n    /* \"vault.sol\":3702:3706  this */\n  address\n    /* \"vault.sol\":3680:3691  addressFees */\n  0x01\n  0x00\n    /* \"vault.sol\":3680:3707  addressFees = address(this) */\n  0x0100\n  exp\n  dup2\n  sload\n  dup2\n  0xffffffffffffffffffffffffffffffffffffffff\n  mul\n  not\n  and\n  swap1\n  dup4\n  0xffffffffffffffffffffffffffffffffffffffff\n  and\n  mul\n  or\n  swap1\n  sstore\n  pop\n    /* \"vault.sol\":3754:3755  5 */\n  0x05\n    /* \"vault.sol\":3747:3751  fees */\n  0x03\n    /* \"vault.sol\":3747:3755  fees = 5 */\n  dup2\n  swap1\n  sstore\n  pop\n    /* \"vault.sol\":3794:3795  0 */\n  0x00\n    /* \"vault.sol\":3781:3791  feesCancel */\n  0x04\n    /* \"vault.sol\":3781:3795  feesCancel = 0 */\n  dup2\n  swap1\n  sstore\n  pop\n    /* \"vault.sol\":3859:3865  _token */\n  dup1\n    /* \"vault.sol\":3844:3866  token = IERC20(_token) */\n  0xffffffffffffffffffffffffffffffffffffffff\n  and\n  0x80\n  dup2\n  0xffffffffffffffffffffffffffffffffffffffff\n  and\n  dup2\n  mstore\n  pop\n  pop\n    /* \"vault.sol\":3642:3910  constructor(address _token) {... */\n  pop\n    /* \"vault.sol\":2907:8795  contract PrestaVault is Ownable {... */\n  jump(tag_12)\n    /* \"@openzeppelin/contracts/utils/Context.sol\":640:736  function _msgSender() internal view virtual returns (address) {... */\ntag_9:\n    /* \"@openzeppelin/contracts/utils/Context.sol\":693:700  address */\n  0x00\n    /* \"@openzeppelin/contracts/utils/Context.sol\":719:729  msg.sender */\n  caller\n    /* \"@openzeppelin/contracts/utils/Context.sol\":712:729  return msg.sender */\n  swap1\n  pop\n    /* \"@openzeppelin/contracts/utils/Context.sol\":640:736  function _msgSender() internal view virtual returns (address) {... */\n  swap1\n  jump\t// out\n    /* \"@openzeppelin/contracts/access/Ownable.sol\":2433:2620  function _transferOwnership(address newOwner) internal virtual {... */\ntag_10:\n    /* \"@openzeppelin/contracts/access/Ownable.sol\":2506:2522  address oldOwner */\n  0x00\n    /* \"@openzeppelin/contracts/access/Ownable.sol\":2525:2531  _owner */\n  dup1\n  0x00\n  swap1\n  sload\n  swap1\n  0x0100\n  exp\n  swap1\n  div\n  0xffffffffffffffffffffffffffffffffffffffff\n  and\n    /* \"@openzeppelin/contracts/access/Ownable.sol\":2506:2531  address oldOwner = _owner */\n  swap1\n  pop\n    /* \"@openzeppelin/contracts/access/Ownable.sol\":2550:2558  newOwner */\n  dup2\n    /* \"@openzeppelin/contracts/access/Ownable.sol\":2541:2547  _owner */\n  0x00\n  dup1\n    /* \"@openzeppelin/contracts/access/Ownable.sol\":2541:2558  _owner = newOwner */\n  0x0100\n  exp\n  dup2\n  sload\n  dup2\n  0xffffffffffffffffffffffffffffffffffffffff\n  mul\n  not\n  and\n  swap1\n  dup4\n  0xffffffffffffffffffffffffffffffffffffffff\n  and\n  mul\n  or\n  swap1\n  sstore\n  pop\n    /* \"@openzeppelin/contracts/access/Ownable.sol\":2604:2612  newOwner */\n  dup2\n    /* \"@openzeppelin/contracts/access/Ownable.sol\":2573:2613  OwnershipTransferred(oldOwner, newOwner) */\n  0xffffffffffffffffffffffffffffffffffffffff\n  and\n    /* \"@openzeppelin/contracts/access/Ownable.sol\":2594:2602  oldOwner */\n  dup2\n    /* \"@openzeppelin/contracts/access/Ownable.sol\":2573:2613  OwnershipTransferred(oldOwner, newOwner) */\n  0xffffffffffffffffffffffffffffffffffffffff\n  and\n  0x8be0079c531659141344cd1fd0a4f28419497f9722a3daafe3b4186f6b6457e0\n  mload(0x40)\n  mload(0x40)\n  dup1\n  swap2\n  sub\n  swap1\n  log3\n    /* \"@openzeppelin/contracts/access/Ownable.sol\":2496:2620  {... */\n  pop\n    /* \"@openzeppelin/contracts/access/Ownable.sol\":2433:2620  function _transferOwnership(address newOwner) internal virtual {... */\n  pop\n  jump\t// out\n    /* \"#utility.yul\":88:205   */\ntag_16:\n    /* \"#utility.yul\":197:198   */\n  0x00\n    /* \"#utility.yul\":194:195   */\n  dup1\n    /* \"#utility.yul\":187:199   */\n  revert\n    /* \"#utility.yul\":334:460   */\ntag_18:\n    /* \"#utility.yul\":371:378   */\n  0x00\n    /* \"#utility.yul\":411:453   */\n  0xffffffffffffffffffffffffffffffffffffffff\n    /* \"#utility.yul\":404:409   */\n  dup3\n    /* \"#utility.yul\":400:454   */\n  and\n    /* \"#utility.yul\":389:454   */\n  swap1\n  pop\n    /* \"#utility.yul\":334:460   */\n  swap2\n  swap1\n  pop\n  jump\t// out\n    /* \"#utility.yul\":466:562   */\ntag_19:\n    /* \"#utility.yul\":503:510   */\n  0x00\n    /* \"#utility.yul\":532:556   */\n  tag_28\n    /* \"#utility.yul\":550:555   */\n  dup3\n    /* \"#utility.yul\":532:556   */\n  tag_18\n  jump\t// in\ntag_28:\n    /* \"#utility.yul\":521:556   */\n  swap1\n  pop\n    /* \"#utility.yul\":466:562   */\n  swap2\n  swap1\n  pop\n  jump\t// out\n    /* \"#utility.yul\":568:690   */\ntag_20:\n    /* \"#utility.yul\":641:665   */\n  tag_30\n    /* \"#utility.yul\":659:664   */\n  dup2\n    /* \"#utility.yul\":641:665   */\n  tag_19\n  jump\t// in\ntag_30:\n    /* \"#utility.yul\":634:639   */\n  dup2\n    /* \"#utility.yul\":631:666   */\n  eq\n    /* \"#utility.yul\":621:684   */\n  tag_31\n  jumpi\n    /* \"#utility.yul\":680:681   */\n  0x00\n    /* \"#utility.yul\":677:678   */\n  dup1\n    /* \"#utility.yul\":670:682   */\n  revert\n    /* \"#utility.yul\":621:684   */\ntag_31:\n    /* \"#utility.yul\":568:690   */\n  pop\n  jump\t// out\n    /* \"#utility.yul\":696:839   */\ntag_21:\n    /* \"#utility.yul\":753:758   */\n  0x00\n    /* \"#utility.yul\":784:790   */\n  dup2\n    /* \"#utility.yul\":778:791   */\n  mload\n    /* \"#utility.yul\":769:791   */\n  swap1\n  pop\n    /* \"#utility.yul\":800:833   */\n  tag_33\n    /* \"#utility.yul\":827:832   */\n  dup2\n    /* \"#utility.yul\":800:833   */\n  tag_20\n  jump\t// in\ntag_33:\n    /* \"#utility.yul\":696:839   */\n  swap3\n  swap2\n  pop\n  pop\n  jump\t// out\n    /* \"#utility.yul\":845:1196   */\ntag_3:\n    /* \"#utility.yul\":915:921   */\n  0x00\n    /* \"#utility.yul\":964:966   */\n  0x20\n    /* \"#utility.yul\":952:961   */\n  dup3\n    /* \"#utility.yul\":943:950   */\n  dup5\n    /* \"#utility.yul\":939:962   */\n  sub\n    /* \"#utility.yul\":935:967   */\n  slt\n    /* \"#utility.yul\":932:1051   */\n  iszero\n  tag_35\n  jumpi\n    /* \"#utility.yul\":970:1049   */\n  tag_36\n  tag_16\n  jump\t// in\ntag_36:\n    /* \"#utility.yul\":932:1051   */\ntag_35:\n    /* \"#utility.yul\":1090:1091   */\n  0x00\n    /* \"#utility.yul\":1115:1179   */\n  tag_37\n    /* \"#utility.yul\":1171:1178   */\n  dup5\n    /* \"#utility.yul\":1162:1168   */\n  dup3\n    /* \"#utility.yul\":1151:1160   */\n  dup6\n    /* \"#utility.yul\":1147:1169   */\n  add\n    /* \"#utility.yul\":1115:1179   */\n  tag_21\n  jump\t// in\ntag_37:\n    /* \"#utility.yul\":1105:1179   */\n  swap2\n  pop\n    /* \"#utility.yul\":1061:1189   */\n  pop\n    /* \"#utility.yul\":845:1196   */\n  swap3\n  swap2\n  pop\n  pop\n  jump\t// out\n    /* \"vault.sol\":2907:8795  contract PrestaVault is Ownable {... */\ntag_12:\n  mload(0x80)\n  codecopy(0x00, dataOffset(sub_0), dataSize(sub_0))\n  0x00\n  assignImmutable(\"0xdaf52dba5981246bcf8fd7c6b00dce587fdcf5e2a95b281eea95dcd1376afdcd\")\n  return(0x00, dataSize(sub_0))\nstop\n\nsub_0: assembly {\n        /* \"vault.sol\":2907:8795  contract PrestaVault is Ownable {... */\n      mstore(0x40, 0x80)\n      callvalue\n      dup1\n      iszero\n      tag_1\n      jumpi\n      0x00\n      dup1\n      revert\n    tag_1:\n      pop\n      jumpi(tag_2, lt(calldatasize, 0x04))\n      shr(0xe0, calldataload(0x00))\n      dup1\n      0x8da5cb5b\n      gt\n      tag_19\n      jumpi\n      dup1\n      0xdad01917\n      gt\n      tag_20\n      jumpi\n      dup1\n      0xdad01917\n      eq\n      tag_15\n      jumpi\n      dup1\n      0xedc1be58\n      eq\n      tag_16\n      jumpi\n      dup1\n      0xf2fde38b\n      eq\n      tag_17\n      jumpi\n      dup1\n      0xfc0c546a\n      eq\n      tag_18\n      jumpi\n      jump(tag_2)\n    tag_20:\n      dup1\n      0x8da5cb5b\n      eq\n      tag_11\n      jumpi\n      dup1\n      0x99535b38\n      eq\n      tag_12\n      jumpi\n      dup1\n      0x9b0d92c5\n      eq\n      tag_13\n      jumpi\n      dup1\n      0xb8038687\n      eq\n      tag_14\n      jumpi\n      jump(tag_2)\n    tag_19:\n      dup1\n      0x6c8b4bea\n      gt\n      tag_21\n      jumpi\n      dup1\n      0x6c8b4bea\n      eq\n      tag_7\n      jumpi\n      dup1\n      0x6de3ee50\n      eq\n      tag_8\n      jumpi\n      dup1\n      0x715018a6\n      eq\n      tag_9\n      jumpi\n      dup1\n      0x7834b2d5\n      eq\n      tag_10\n      jumpi\n      jump(tag_2)\n    tag_21:\n      dup1\n      0x39be072b\n      eq\n      tag_3\n      jumpi\n      dup1\n      0x3d18678e\n      eq\n      tag_4\n      jumpi\n      dup1\n      0x55b77b22\n      eq\n      tag_5\n      jumpi\n      dup1\n      0x5ae98139\n      eq\n      tag_6\n      jumpi\n    tag_2:\n      0x00\n      dup1\n      revert\n        /* \"vault.sol\":5219:5913  function validTransfertPresta(uint _contratKey) external {... */\n    tag_3:\n      tag_22\n      0x04\n      dup1\n      calldatasize\n      sub\n      dup2\n      add\n      swap1\n      tag_23\n      swap2\n      swap1\n      tag_24\n      jump\t// in\n    tag_23:\n      tag_25\n      jump\t// in\n    tag_22:\n      stop\n        /* \"vault.sol\":4148:4225  function setFees(uint _fees) external onlyOwner {... */\n    tag_4:\n      tag_26\n      0x04\n      dup1\n      calldatasize\n      sub\n      dup2\n      add\n      swap1\n      tag_27\n      swap2\n      swap1\n      tag_24\n      jump\t// in\n    tag_27:\n      tag_28\n      jump\t// in\n    tag_26:\n      stop\n        /* \"vault.sol\":3992:4092  function setAddressFees(address _address) external onlyOwner {... */\n    tag_5:\n      tag_29\n      0x04\n      dup1\n      calldatasize\n      sub\n      dup2\n      add\n      swap1\n      tag_30\n      swap2\n      swap1\n      tag_31\n      jump\t// in\n    tag_30:\n      tag_32\n      jump\t// in\n    tag_29:\n      stop\n        /* \"vault.sol\":7046:7394  function getNumberPrestaOfSender(address _address, prestaStatus _status) public view returns (uint) {... */\n    tag_6:\n      tag_33\n      0x04\n      dup1\n      calldatasize\n      sub\n      dup2\n      add\n      swap1\n      tag_34\n      swap2\n      swap1\n      tag_35\n      jump\t// in\n    tag_34:\n      tag_36\n      jump\t// in\n    tag_33:\n      mload(0x40)\n      tag_37\n      swap2\n      swap1\n      tag_38\n      jump\t// in\n    tag_37:\n      mload(0x40)\n      dup1\n      swap2\n      sub\n      swap1\n      return\n        /* \"vault.sol\":4455:5141  function createPresta(uint _amount, address _to) external returns (uint) {... */\n    tag_7:\n      tag_39\n      0x04\n      dup1\n      calldatasize\n      sub\n      dup2\n      add\n      swap1\n      tag_40\n      swap2\n      swap1\n      tag_41\n      jump\t// in\n    tag_40:\n      tag_42\n      jump\t// in\n    tag_39:\n      mload(0x40)\n      tag_43\n      swap2\n      swap1\n      tag_38\n      jump\t// in\n    tag_43:\n      mload(0x40)\n      dup1\n      swap2\n      sub\n      swap1\n      return\n        /* \"vault.sol\":5993:6930  function cancelTransfertPresta(uint _contratKey) external {... */\n    tag_8:\n      tag_44\n      0x04\n      dup1\n      calldatasize\n      sub\n      dup2\n      add\n      swap1\n      tag_45\n      swap2\n      swap1\n      tag_24\n      jump\t// in\n    tag_45:\n      tag_46\n      jump\t// in\n    tag_44:\n      stop\n        /* \"@openzeppelin/contracts/access/Ownable.sol\":1831:1932  function renounceOwnership() public virtual onlyOwner {... */\n    tag_9:\n      tag_47\n      tag_48\n      jump\t// in\n    tag_47:\n      stop\n        /* \"vault.sol\":8194:8792  function getPrestaForRecipient() public view returns  ( presta[] memory) {... */\n    tag_10:\n      tag_49\n      tag_50\n      jump\t// in\n    tag_49:\n      mload(0x40)\n      tag_51\n      swap2\n      swap1\n      tag_52\n      jump\t// in\n    tag_51:\n      mload(0x40)\n      dup1\n      swap2\n      sub\n      swap1\n      return\n        /* \"@openzeppelin/contracts/access/Ownable.sol\":1201:1286  function owner() public view virtual returns (address) {... */\n    tag_11:\n      tag_53\n      tag_54\n      jump\t// in\n    tag_53:\n      mload(0x40)\n      tag_55\n      swap2\n      swap1\n      tag_56\n      jump\t// in\n    tag_55:\n      mload(0x40)\n      dup1\n      swap2\n      sub\n      swap1\n      return\n        /* \"vault.sol\":3363:3411  mapping(address => uint[]) public prestaBySender */\n    tag_12:\n      tag_57\n      0x04\n      dup1\n      calldatasize\n      sub\n      dup2\n      add\n      swap1\n      tag_58\n      swap2\n      swap1\n      tag_59\n      jump\t// in\n    tag_58:\n      tag_60\n      jump\t// in\n    tag_57:\n      mload(0x40)\n      tag_61\n      swap2\n      swap1\n      tag_38\n      jump\t// in\n    tag_61:\n      mload(0x40)\n      dup1\n      swap2\n      sub\n      swap1\n      return\n        /* \"vault.sol\":7484:8112  function getPrestaOfSender() public view returns  ( presta[] memory) {... */\n    tag_13:\n      tag_62\n      tag_63\n      jump\t// in\n    tag_62:\n      mload(0x40)\n      tag_64\n      swap2\n      swap1\n      tag_52\n      jump\t// in\n    tag_64:\n      mload(0x40)\n      dup1\n      swap2\n      sub\n      swap1\n      return\n        /* \"vault.sol\":3463:3515  mapping(address => uint[]) public prestaForRecipient */\n    tag_14:\n      tag_65\n      0x04\n      dup1\n      calldatasize\n      sub\n      dup2\n      add\n      swap1\n      tag_66\n      swap2\n      swap1\n      tag_59\n      jump\t// in\n    tag_66:\n      tag_67\n      jump\t// in\n    tag_65:\n      mload(0x40)\n      tag_68\n      swap2\n      swap1\n      tag_38\n      jump\t// in\n    tag_68:\n      mload(0x40)\n      dup1\n      swap2\n      sub\n      swap1\n      return\n        /* \"vault.sol\":3284:3322  mapping(uint => presta) public prestas */\n    tag_15:\n      tag_69\n      0x04\n      dup1\n      calldatasize\n      sub\n      dup2\n      add\n      swap1\n      tag_70\n      swap2\n      swap1\n      tag_24\n      jump\t// in\n    tag_70:\n      tag_71\n      jump\t// in\n    tag_69:\n      mload(0x40)\n      tag_72\n      swap6\n      swap5\n      swap4\n      swap3\n      swap2\n      swap1\n      tag_73\n      jump\t// in\n    tag_72:\n      mload(0x40)\n      dup1\n      swap2\n      sub\n      swap1\n      return\n        /* \"vault.sol\":4294:4395  function setFeesCancel(uint _feesCancel) external onlyOwner {... */\n    tag_16:\n      tag_74\n      0x04\n      dup1\n      calldatasize\n      sub\n      dup2\n      add\n      swap1\n      tag_75\n      swap2\n      swap1\n      tag_24\n      jump\t// in\n    tag_75:\n      tag_76\n      jump\t// in\n    tag_74:\n      stop\n        /* \"@openzeppelin/contracts/access/Ownable.sol\":2081:2279  function transferOwnership(address newOwner) public virtual onlyOwner {... */\n    tag_17:\n      tag_77\n      0x04\n      dup1\n      calldatasize\n      sub\n      dup2\n      add\n      swap1\n      tag_78\n      swap2\n      swap1\n      tag_31\n      jump\t// in\n    tag_78:\n      tag_79\n      jump\t// in\n    tag_77:\n      stop\n        /* \"vault.sol\":2945:2974  IERC20 public immutable token */\n    tag_18:\n      tag_80\n      tag_81\n      jump\t// in\n    tag_80:\n      mload(0x40)\n      tag_82\n      swap2\n      swap1\n      tag_83\n      jump\t// in\n    tag_82:\n      mload(0x40)\n      dup1\n      swap2\n      sub\n      swap1\n      return\n        /* \"vault.sol\":5219:5913  function validTransfertPresta(uint _contratKey) external {... */\n    tag_25:\n        /* \"vault.sol\":5324:5334  msg.sender */\n      caller\n        /* \"vault.sol\":5295:5334  prestas[_contratKey].from == msg.sender */\n      0xffffffffffffffffffffffffffffffffffffffff\n      and\n        /* \"vault.sol\":5295:5302  prestas */\n      0x05\n        /* \"vault.sol\":5295:5315  prestas[_contratKey] */\n      0x00\n        /* \"vault.sol\":5303:5314  _contratKey */\n      dup4\n        /* \"vault.sol\":5295:5315  prestas[_contratKey] */\n      dup2\n      mstore\n      0x20\n      add\n      swap1\n      dup2\n      mstore\n      0x20\n      add\n      0x00\n      keccak256\n        /* \"vault.sol\":5295:5320  prestas[_contratKey].from */\n      0x00\n      add\n      0x00\n      swap1\n      sload\n      swap1\n      0x0100\n      exp\n      swap1\n      div\n      0xffffffffffffffffffffffffffffffffffffffff\n      and\n        /* \"vault.sol\":5295:5334  prestas[_contratKey].from == msg.sender */\n      0xffffffffffffffffffffffffffffffffffffffff\n      and\n      eq\n        /* \"vault.sol\":5295:5359  prestas[_contratKey].from == msg.sender || owner() == msg.sender */\n      dup1\n      tag_85\n      jumpi\n      pop\n        /* \"vault.sol\":5349:5359  msg.sender */\n      caller\n        /* \"vault.sol\":5338:5359  owner() == msg.sender */\n      0xffffffffffffffffffffffffffffffffffffffff\n      and\n        /* \"vault.sol\":5338:5345  owner() */\n      tag_86\n        /* \"vault.sol\":5338:5343  owner */\n      tag_54\n        /* \"vault.sol\":5338:5345  owner() */\n      jump\t// in\n    tag_86:\n        /* \"vault.sol\":5338:5359  owner() == msg.sender */\n      0xffffffffffffffffffffffffffffffffffffffff\n      and\n      eq\n        /* \"vault.sol\":5295:5359  prestas[_contratKey].from == msg.sender || owner() == msg.sender */\n    tag_85:\n        /* \"vault.sol\":5287:5388  require(prestas[_contratKey].from == msg.sender || owner() == msg.sender , \"Yout must be the sender\") */\n      tag_87\n      jumpi\n      mload(0x40)\n      0x08c379a000000000000000000000000000000000000000000000000000000000\n      dup2\n      mstore\n      0x04\n      add\n      tag_88\n      swap1\n      tag_89\n      jump\t// in\n    tag_88:\n      mload(0x40)\n      dup1\n      swap2\n      sub\n      swap1\n      revert\n    tag_87:\n        /* \"vault.sol\":5437:5454  prestaStatus.WAIT */\n      0x00\n        /* \"vault.sol\":5406:5454  prestas[_contratKey].status == prestaStatus.WAIT */\n      0x02\n      dup2\n      gt\n      iszero\n      tag_90\n      jumpi\n      tag_91\n      tag_92\n      jump\t// in\n    tag_91:\n    tag_90:\n        /* \"vault.sol\":5406:5413  prestas */\n      0x05\n        /* \"vault.sol\":5406:5426  prestas[_contratKey] */\n      0x00\n        /* \"vault.sol\":5414:5425  _contratKey */\n      dup4\n        /* \"vault.sol\":5406:5426  prestas[_contratKey] */\n      dup2\n      mstore\n      0x20\n      add\n      swap1\n      dup2\n      mstore\n      0x20\n      add\n      0x00\n      keccak256\n        /* \"vault.sol\":5406:5433  prestas[_contratKey].status */\n      0x04\n      add\n      0x00\n      swap1\n      sload\n      swap1\n      0x0100\n      exp\n      swap1\n      div\n      0xff\n      and\n        /* \"vault.sol\":5406:5454  prestas[_contratKey].status == prestaStatus.WAIT */\n      0x02\n      dup2\n      gt\n      iszero\n      tag_93\n      jumpi\n      tag_94\n      tag_92\n      jump\t// in\n    tag_94:\n    tag_93:\n      eq\n        /* \"vault.sol\":5398:5480  require(prestas[_contratKey].status == prestaStatus.WAIT, \"Presta is not waiting\") */\n      tag_95\n      jumpi\n      mload(0x40)\n      0x08c379a000000000000000000000000000000000000000000000000000000000\n      dup2\n      mstore\n      0x04\n      add\n      tag_96\n      swap1\n      tag_97\n      jump\t// in\n    tag_96:\n      mload(0x40)\n      dup1\n      swap2\n      sub\n      swap1\n      revert\n    tag_95:\n        /* \"vault.sol\":5499:5504  token */\n      immutable(\"0xdaf52dba5981246bcf8fd7c6b00dce587fdcf5e2a95b281eea95dcd1376afdcd\")\n        /* \"vault.sol\":5499:5513  token.transfer */\n      0xffffffffffffffffffffffffffffffffffffffff\n      and\n      0xa9059cbb\n        /* \"vault.sol\":5514:5521  prestas */\n      0x05\n        /* \"vault.sol\":5514:5534  prestas[_contratKey] */\n      0x00\n        /* \"vault.sol\":5522:5533  _contratKey */\n      dup5\n        /* \"vault.sol\":5514:5534  prestas[_contratKey] */\n      dup2\n      mstore\n      0x20\n      add\n      swap1\n      dup2\n      mstore\n      0x20\n      add\n      0x00\n      keccak256\n        /* \"vault.sol\":5514:5537  prestas[_contratKey].to */\n      0x01\n      add\n      0x00\n      swap1\n      sload\n      swap1\n      0x0100\n      exp\n      swap1\n      div\n      0xffffffffffffffffffffffffffffffffffffffff\n      and\n        /* \"vault.sol\":5569:5576  prestas */\n      0x05\n        /* \"vault.sol\":5569:5589  prestas[_contratKey] */\n      0x00\n        /* \"vault.sol\":5577:5588  _contratKey */\n      dup6\n        /* \"vault.sol\":5569:5589  prestas[_contratKey] */\n      dup2\n      mstore\n      0x20\n      add\n      swap1\n      dup2\n      mstore\n      0x20\n      add\n      0x00\n      keccak256\n        /* \"vault.sol\":5569:5601  prestas[_contratKey].amount_fees */\n      0x03\n      add\n      sload\n        /* \"vault.sol\":5539:5546  prestas */\n      0x05\n        /* \"vault.sol\":5539:5559  prestas[_contratKey] */\n      0x00\n        /* \"vault.sol\":5547:5558  _contratKey */\n      dup7\n        /* \"vault.sol\":5539:5559  prestas[_contratKey] */\n      dup2\n      mstore\n      0x20\n      add\n      swap1\n      dup2\n      mstore\n      0x20\n      add\n      0x00\n      keccak256\n        /* \"vault.sol\":5539:5566  prestas[_contratKey].amount */\n      0x02\n      add\n      sload\n        /* \"vault.sol\":5539:5601  prestas[_contratKey].amount - prestas[_contratKey].amount_fees */\n      tag_98\n      swap2\n      swap1\n      tag_99\n      jump\t// in\n    tag_98:\n        /* \"vault.sol\":5499:5602  token.transfer(prestas[_contratKey].to, prestas[_contratKey].amount - prestas[_contratKey].amount_fees) */\n      mload(0x40)\n      dup4\n      0xffffffff\n      and\n      0xe0\n      shl\n      dup2\n      mstore\n      0x04\n      add\n      tag_100\n      swap3\n      swap2\n      swap1\n      tag_101\n      jump\t// in\n    tag_100:\n      0x20\n      mload(0x40)\n      dup1\n      dup4\n      sub\n      dup2\n      0x00\n      dup8\n      gas\n      call\n      iszero\n      dup1\n      iszero\n      tag_103\n      jumpi\n      returndatasize\n      0x00\n      dup1\n      returndatacopy\n      revert(0x00, returndatasize)\n    tag_103:\n      pop\n      pop\n      pop\n      pop\n      mload(0x40)\n      returndatasize\n      not(0x1f)\n      0x1f\n      dup3\n      add\n      and\n      dup3\n      add\n      dup1\n      0x40\n      mstore\n      pop\n      dup2\n      add\n      swap1\n      tag_104\n      swap2\n      swap1\n      tag_105\n      jump\t// in\n    tag_104:\n      pop\n        /* \"vault.sol\":5642:5647  token */\n      immutable(\"0xdaf52dba5981246bcf8fd7c6b00dce587fdcf5e2a95b281eea95dcd1376afdcd\")\n        /* \"vault.sol\":5642:5656  token.transfer */\n      0xffffffffffffffffffffffffffffffffffffffff\n      and\n      0xa9059cbb\n        /* \"vault.sol\":5657:5668  addressFees */\n      0x01\n      0x00\n      swap1\n      sload\n      swap1\n      0x0100\n      exp\n      swap1\n      div\n      0xffffffffffffffffffffffffffffffffffffffff\n      and\n        /* \"vault.sol\":5670:5677  prestas */\n      0x05\n        /* \"vault.sol\":5670:5690  prestas[_contratKey] */\n      0x00\n        /* \"vault.sol\":5678:5689  _contratKey */\n      dup6\n        /* \"vault.sol\":5670:5690  prestas[_contratKey] */\n      dup2\n      mstore\n      0x20\n      add\n      swap1\n      dup2\n      mstore\n      0x20\n      add\n      0x00\n      keccak256\n        /* \"vault.sol\":5670:5702  prestas[_contratKey].amount_fees */\n      0x03\n      add\n      sload\n        /* \"vault.sol\":5642:5703  token.transfer(addressFees, prestas[_contratKey].amount_fees) */\n      mload(0x40)\n      dup4\n      0xffffffff\n      and\n      0xe0\n      shl\n      dup2\n      mstore\n      0x04\n      add\n      tag_106\n      swap3\n      swap2\n      swap1\n      tag_101\n      jump\t// in\n    tag_106:\n      0x20\n      mload(0x40)\n      dup1\n      dup4\n      sub\n      dup2\n      0x00\n      dup8\n      gas\n      call\n      iszero\n      dup1\n      iszero\n      tag_108\n      jumpi\n      returndatasize\n      0x00\n      dup1\n      returndatacopy\n      revert(0x00, returndatasize)\n    tag_108:\n      pop\n      pop\n      pop\n      pop\n      mload(0x40)\n      returndatasize\n      not(0x1f)\n      0x1f\n      dup3\n      add\n      and\n      dup3\n      add\n      dup1\n      0x40\n      mstore\n      pop\n      dup2\n      add\n      swap1\n      tag_109\n      swap2\n      swap1\n      tag_105\n      jump\t// in\n    tag_109:\n      pop\n        /* \"vault.sol\":5786:5808  prestaStatus.COMPLETED */\n      0x01\n        /* \"vault.sol\":5756:5763  prestas */\n      0x05\n        /* \"vault.sol\":5756:5776  prestas[_contratKey] */\n      0x00\n        /* \"vault.sol\":5764:5775  _contratKey */\n      dup4\n        /* \"vault.sol\":5756:5776  prestas[_contratKey] */\n      dup2\n      mstore\n      0x20\n      add\n      swap1\n      dup2\n      mstore\n      0x20\n      add\n      0x00\n      keccak256\n        /* \"vault.sol\":5756:5783  prestas[_contratKey].status */\n      0x04\n      add\n      0x00\n        /* \"vault.sol\":5756:5808  prestas[_contratKey].status = prestaStatus.COMPLETED */\n      0x0100\n      exp\n      dup2\n      sload\n      dup2\n      0xff\n      mul\n      not\n      and\n      swap1\n      dup4\n      0x02\n      dup2\n      gt\n      iszero\n      tag_110\n      jumpi\n      tag_111\n      tag_92\n      jump\t// in\n    tag_111:\n    tag_110:\n      mul\n      or\n      swap1\n      sstore\n      pop\n        /* \"vault.sol\":5219:5913  function validTransfertPresta(uint _contratKey) external {... */\n      pop\n      jump\t// out\n        /* \"vault.sol\":4148:4225  function setFees(uint _fees) external onlyOwner {... */\n    tag_28:\n        /* \"@openzeppelin/contracts/access/Ownable.sol\":1094:1107  _checkOwner() */\n      tag_113\n        /* \"@openzeppelin/contracts/access/Ownable.sol\":1094:1105  _checkOwner */\n      tag_114\n        /* \"@openzeppelin/contracts/access/Ownable.sol\":1094:1107  _checkOwner() */\n      jump\t// in\n    tag_113:\n        /* \"vault.sol\":4213:4218  _fees */\n      dup1\n        /* \"vault.sol\":4206:4210  fees */\n      0x03\n        /* \"vault.sol\":4206:4218  fees = _fees */\n      dup2\n      swap1\n      sstore\n      pop\n        /* \"vault.sol\":4148:4225  function setFees(uint _fees) external onlyOwner {... */\n      pop\n      jump\t// out\n        /* \"vault.sol\":3992:4092  function setAddressFees(address _address) external onlyOwner {... */\n    tag_32:\n        /* \"@openzeppelin/contracts/access/Ownable.sol\":1094:1107  _checkOwner() */\n      tag_117\n        /* \"@openzeppelin/contracts/access/Ownable.sol\":1094:1105  _checkOwner */\n      tag_114\n        /* \"@openzeppelin/contracts/access/Ownable.sol\":1094:1107  _checkOwner() */\n      jump\t// in\n    tag_117:\n        /* \"vault.sol\":4077:4085  _address */\n      dup1\n        /* \"vault.sol\":4063:4074  addressFees */\n      0x01\n      0x00\n        /* \"vault.sol\":4063:4085  addressFees = _address */\n      0x0100\n      exp\n      dup2\n      sload\n      dup2\n      0xffffffffffffffffffffffffffffffffffffffff\n      mul\n      not\n      and\n      swap1\n      dup4\n      0xffffffffffffffffffffffffffffffffffffffff\n      and\n      mul\n      or\n      swap1\n      sstore\n      pop\n        /* \"vault.sol\":3992:4092  function setAddressFees(address _address) external onlyOwner {... */\n      pop\n      jump\t// out\n        /* \"vault.sol\":7046:7394  function getNumberPrestaOfSender(address _address, prestaStatus _status) public view returns (uint) {... */\n    tag_36:\n        /* \"vault.sol\":7140:7144  uint */\n      0x00\n        /* \"vault.sol\":7156:7169  uint nbPresta */\n      dup1\n        /* \"vault.sol\":7184:7190  uint j */\n      0x00\n        /* \"vault.sol\":7179:7363  for (uint j = 0; j<=prestaBySender[_address].length-1; j++){... */\n    tag_120:\n        /* \"vault.sol\":7231:7232  1 */\n      0x01\n        /* \"vault.sol\":7199:7213  prestaBySender */\n      0x06\n        /* \"vault.sol\":7199:7223  prestaBySender[_address] */\n      0x00\n        /* \"vault.sol\":7214:7222  _address */\n      dup8\n        /* \"vault.sol\":7199:7223  prestaBySender[_address] */\n      0xffffffffffffffffffffffffffffffffffffffff\n      and\n      0xffffffffffffffffffffffffffffffffffffffff\n      and\n      dup2\n      mstore\n      0x20\n      add\n      swap1\n      dup2\n      mstore\n      0x20\n      add\n      0x00\n      keccak256\n        /* \"vault.sol\":7199:7230  prestaBySender[_address].length */\n      dup1\n      sload\n      swap1\n      pop\n        /* \"vault.sol\":7199:7232  prestaBySender[_address].length-1 */\n      tag_123\n      swap2\n      swap1\n      tag_99\n      jump\t// in\n    tag_123:\n        /* \"vault.sol\":7196:7197  j */\n      dup2\n        /* \"vault.sol\":7196:7232  j<=prestaBySender[_address].length-1 */\n      gt\n        /* \"vault.sol\":7179:7363  for (uint j = 0; j<=prestaBySender[_address].length-1; j++){... */\n      tag_121\n      jumpi\n        /* \"vault.sol\":7302:7309  _status */\n      dup4\n        /* \"vault.sol\":7255:7309  prestas[prestaBySender[_address][j]].status == _status */\n      0x02\n      dup2\n      gt\n      iszero\n      tag_124\n      jumpi\n      tag_125\n      tag_92\n      jump\t// in\n    tag_125:\n    tag_124:\n        /* \"vault.sol\":7255:7262  prestas */\n      0x05\n        /* \"vault.sol\":7255:7291  prestas[prestaBySender[_address][j]] */\n      0x00\n        /* \"vault.sol\":7263:7277  prestaBySender */\n      0x06\n        /* \"vault.sol\":7263:7287  prestaBySender[_address] */\n      0x00\n        /* \"vault.sol\":7278:7286  _address */\n      dup10\n        /* \"vault.sol\":7263:7287  prestaBySender[_address] */\n      0xffffffffffffffffffffffffffffffffffffffff\n      and\n      0xffffffffffffffffffffffffffffffffffffffff\n      and\n      dup2\n      mstore\n      0x20\n      add\n      swap1\n      dup2\n      mstore\n      0x20\n      add\n      0x00\n      keccak256\n        /* \"vault.sol\":7288:7289  j */\n      dup5\n        /* \"vault.sol\":7263:7290  prestaBySender[_address][j] */\n      dup2\n      sload\n      dup2\n      lt\n      tag_126\n      jumpi\n      tag_127\n      tag_128\n      jump\t// in\n    tag_127:\n    tag_126:\n      swap1\n      0x00\n      mstore\n      keccak256(0x00, 0x20)\n      add\n      sload\n        /* \"vault.sol\":7255:7291  prestas[prestaBySender[_address][j]] */\n      dup2\n      mstore\n      0x20\n      add\n      swap1\n      dup2\n      mstore\n      0x20\n      add\n      0x00\n      keccak256\n        /* \"vault.sol\":7255:7298  prestas[prestaBySender[_address][j]].status */\n      0x04\n      add\n      0x00\n      swap1\n      sload\n      swap1\n      0x0100\n      exp\n      swap1\n      div\n      0xff\n      and\n        /* \"vault.sol\":7255:7309  prestas[prestaBySender[_address][j]].status == _status */\n      0x02\n      dup2\n      gt\n      iszero\n      tag_130\n      jumpi\n      tag_131\n      tag_92\n      jump\t// in\n    tag_131:\n    tag_130:\n      sub\n        /* \"vault.sol\":7252:7353  if(prestas[prestaBySender[_address][j]].status == _status){... */\n      tag_132\n      jumpi\n        /* \"vault.sol\":7328:7338  nbPresta++ */\n      dup2\n      dup1\n      tag_133\n      swap1\n      tag_134\n      jump\t// in\n    tag_133:\n      swap3\n      pop\n      pop\n        /* \"vault.sol\":7252:7353  if(prestas[prestaBySender[_address][j]].status == _status){... */\n    tag_132:\n        /* \"vault.sol\":7234:7237  j++ */\n      dup1\n      dup1\n      tag_135\n      swap1\n      tag_134\n      jump\t// in\n    tag_135:\n      swap2\n      pop\n      pop\n        /* \"vault.sol\":7179:7363  for (uint j = 0; j<=prestaBySender[_address].length-1; j++){... */\n      jump(tag_120)\n    tag_121:\n      pop\n        /* \"vault.sol\":7379:7387  nbPresta */\n      dup1\n        /* \"vault.sol\":7372:7387  return nbPresta */\n      swap2\n      pop\n      pop\n        /* \"vault.sol\":7046:7394  function getNumberPrestaOfSender(address _address, prestaStatus _status) public view returns (uint) {... */\n      swap3\n      swap2\n      pop\n      pop\n      jump\t// out\n        /* \"vault.sol\":4455:5141  function createPresta(uint _amount, address _to) external returns (uint) {... */\n    tag_42:\n        /* \"vault.sol\":4522:4526  uint */\n      0x00\n        /* \"vault.sol\":4569:4573  this */\n      address\n        /* \"vault.sol\":4547:4574  msg.sender != address(this) */\n      0xffffffffffffffffffffffffffffffffffffffff\n      and\n        /* \"vault.sol\":4547:4557  msg.sender */\n      caller\n        /* \"vault.sol\":4547:4574  msg.sender != address(this) */\n      0xffffffffffffffffffffffffffffffffffffffff\n      and\n      sub\n        /* \"vault.sol\":4538:4601  require( msg.sender != address(this) , \"Can't send to himself\") */\n      tag_137\n      jumpi\n      mload(0x40)\n      0x08c379a000000000000000000000000000000000000000000000000000000000\n      dup2\n      mstore\n      0x04\n      add\n      tag_138\n      swap1\n      tag_139\n      jump\t// in\n    tag_138:\n      mload(0x40)\n      dup1\n      swap2\n      sub\n      swap1\n      revert\n    tag_137:\n        /* \"vault.sol\":4612:4622  contratKey */\n      0x02\n      0x00\n        /* \"vault.sol\":4612:4624  contratKey++ */\n      dup2\n      sload\n      dup1\n      swap3\n      swap2\n      swap1\n      tag_140\n      swap1\n      tag_134\n      jump\t// in\n    tag_140:\n      swap2\n      swap1\n      pop\n      sstore\n      pop\n        /* \"vault.sol\":4651:4667  uint amount_fees */\n      0x00\n        /* \"vault.sol\":4670:4715  SafeMath.div(SafeMath.mul(_amount, fees),100) */\n      tag_141\n        /* \"vault.sol\":4683:4710  SafeMath.mul(_amount, fees) */\n      tag_142\n        /* \"vault.sol\":4696:4703  _amount */\n      dup6\n        /* \"vault.sol\":4705:4709  fees */\n      sload(0x03)\n        /* \"vault.sol\":4683:4695  SafeMath.mul */\n      tag_143\n        /* \"vault.sol\":4683:4710  SafeMath.mul(_amount, fees) */\n      jump\t// in\n    tag_142:\n        /* \"vault.sol\":4711:4714  100 */\n      0x64\n        /* \"vault.sol\":4670:4682  SafeMath.div */\n      tag_144\n        /* \"vault.sol\":4670:4715  SafeMath.div(SafeMath.mul(_amount, fees),100) */\n      jump\t// in\n    tag_141:\n        /* \"vault.sol\":4651:4715  uint amount_fees = SafeMath.div(SafeMath.mul(_amount, fees),100) */\n      swap1\n      pop\n        /* \"vault.sol\":4747:4848  presta({from:msg.sender, to:_to, amount:_amount, amount_fees: amount_fees, status:prestaStatus.WAIT}) */\n      mload(0x40)\n      dup1\n      0xa0\n      add\n      0x40\n      mstore\n      dup1\n        /* \"vault.sol\":4760:4770  msg.sender */\n      caller\n        /* \"vault.sol\":4747:4848  presta({from:msg.sender, to:_to, amount:_amount, amount_fees: amount_fees, status:prestaStatus.WAIT}) */\n      0xffffffffffffffffffffffffffffffffffffffff\n      and\n      dup2\n      mstore\n      0x20\n      add\n        /* \"vault.sol\":4775:4778  _to */\n      dup5\n        /* \"vault.sol\":4747:4848  presta({from:msg.sender, to:_to, amount:_amount, amount_fees: amount_fees, status:prestaStatus.WAIT}) */\n      0xffffffffffffffffffffffffffffffffffffffff\n      and\n      dup2\n      mstore\n      0x20\n      add\n        /* \"vault.sol\":4787:4794  _amount */\n      dup6\n        /* \"vault.sol\":4747:4848  presta({from:msg.sender, to:_to, amount:_amount, amount_fees: amount_fees, status:prestaStatus.WAIT}) */\n      dup2\n      mstore\n      0x20\n      add\n        /* \"vault.sol\":4809:4820  amount_fees */\n      dup3\n        /* \"vault.sol\":4747:4848  presta({from:msg.sender, to:_to, amount:_amount, amount_fees: amount_fees, status:prestaStatus.WAIT}) */\n      dup2\n      mstore\n      0x20\n      add\n        /* \"vault.sol\":4829:4846  prestaStatus.WAIT */\n      0x00\n        /* \"vault.sol\":4747:4848  presta({from:msg.sender, to:_to, amount:_amount, amount_fees: amount_fees, status:prestaStatus.WAIT}) */\n      0x02\n      dup2\n      gt\n      iszero\n      tag_145\n      jumpi\n      tag_146\n      tag_92\n      jump\t// in\n    tag_146:\n    tag_145:\n      dup2\n      mstore\n      pop\n        /* \"vault.sol\":4725:4732  prestas */\n      0x05\n        /* \"vault.sol\":4725:4744  prestas[contratKey] */\n      0x00\n        /* \"vault.sol\":4733:4743  contratKey */\n      sload(0x02)\n        /* \"vault.sol\":4725:4744  prestas[contratKey] */\n      dup2\n      mstore\n      0x20\n      add\n      swap1\n      dup2\n      mstore\n      0x20\n      add\n      0x00\n      keccak256\n        /* \"vault.sol\":4725:4848  prestas[contratKey] = presta({from:msg.sender, to:_to, amount:_amount, amount_fees: amount_fees, status:prestaStatus.WAIT}) */\n      0x00\n      dup3\n      add\n      mload\n      dup2\n      0x00\n      add\n      exp(0x0100, 0x00)\n      dup2\n      sload\n      dup2\n      0xffffffffffffffffffffffffffffffffffffffff\n      mul\n      not\n      and\n      swap1\n      dup4\n      0xffffffffffffffffffffffffffffffffffffffff\n      and\n      mul\n      or\n      swap1\n      sstore\n      pop\n      0x20\n      dup3\n      add\n      mload\n      dup2\n      0x01\n      add\n      exp(0x0100, 0x00)\n      dup2\n      sload\n      dup2\n      0xffffffffffffffffffffffffffffffffffffffff\n      mul\n      not\n      and\n      swap1\n      dup4\n      0xffffffffffffffffffffffffffffffffffffffff\n      and\n      mul\n      or\n      swap1\n      sstore\n      pop\n      0x40\n      dup3\n      add\n      mload\n      dup2\n      0x02\n      add\n      sstore\n      0x60\n      dup3\n      add\n      mload\n      dup2\n      0x03\n      add\n      sstore\n      0x80\n      dup3\n      add\n      mload\n      dup2\n      0x04\n      add\n      exp(0x0100, 0x00)\n      dup2\n      sload\n      dup2\n      0xff\n      mul\n      not\n      and\n      swap1\n      dup4\n      0x02\n      dup2\n      gt\n      iszero\n      tag_147\n      jumpi\n      tag_148\n      tag_92\n      jump\t// in\n    tag_148:\n    tag_147:\n      mul\n      or\n      swap1\n      sstore\n      pop\n      swap1\n      pop\n      pop\n        /* \"vault.sol\":4858:4872  prestaBySender */\n      0x06\n        /* \"vault.sol\":4858:4884  prestaBySender[msg.sender] */\n      0x00\n        /* \"vault.sol\":4873:4883  msg.sender */\n      caller\n        /* \"vault.sol\":4858:4884  prestaBySender[msg.sender] */\n      0xffffffffffffffffffffffffffffffffffffffff\n      and\n      0xffffffffffffffffffffffffffffffffffffffff\n      and\n      dup2\n      mstore\n      0x20\n      add\n      swap1\n      dup2\n      mstore\n      0x20\n      add\n      0x00\n      keccak256\n        /* \"vault.sol\":4890:4900  contratKey */\n      sload(0x02)\n        /* \"vault.sol\":4858:4901  prestaBySender[msg.sender].push(contratKey) */\n      swap1\n      dup1\n      0x01\n      dup2\n      sload\n      add\n      dup1\n      dup3\n      sstore\n      dup1\n      swap2\n      pop\n      pop\n      0x01\n      swap1\n      sub\n      swap1\n      0x00\n      mstore\n      keccak256(0x00, 0x20)\n      add\n      0x00\n      swap1\n      swap2\n      swap1\n      swap2\n      swap1\n      swap2\n      pop\n      sstore\n        /* \"vault.sol\":4911:4929  prestaForRecipient */\n      0x07\n        /* \"vault.sol\":4911:4934  prestaForRecipient[_to] */\n      0x00\n        /* \"vault.sol\":4930:4933  _to */\n      dup5\n        /* \"vault.sol\":4911:4934  prestaForRecipient[_to] */\n      0xffffffffffffffffffffffffffffffffffffffff\n      and\n      0xffffffffffffffffffffffffffffffffffffffff\n      and\n      dup2\n      mstore\n      0x20\n      add\n      swap1\n      dup2\n      mstore\n      0x20\n      add\n      0x00\n      keccak256\n        /* \"vault.sol\":4940:4950  contratKey */\n      sload(0x02)\n        /* \"vault.sol\":4911:4951  prestaForRecipient[_to].push(contratKey) */\n      swap1\n      dup1\n      0x01\n      dup2\n      sload\n      add\n      dup1\n      dup3\n      sstore\n      dup1\n      swap2\n      pop\n      pop\n      0x01\n      swap1\n      sub\n      swap1\n      0x00\n      mstore\n      keccak256(0x00, 0x20)\n      add\n      0x00\n      swap1\n      swap2\n      swap1\n      swap2\n      swap1\n      swap2\n      pop\n      sstore\n        /* \"vault.sol\":4970:4975  token */\n      immutable(\"0xdaf52dba5981246bcf8fd7c6b00dce587fdcf5e2a95b281eea95dcd1376afdcd\")\n        /* \"vault.sol\":4970:4988  token.transferFrom */\n      0xffffffffffffffffffffffffffffffffffffffff\n      and\n      0x23b872dd\n        /* \"vault.sol\":4989:4999  msg.sender */\n      caller\n        /* \"vault.sol\":5009:5013  this */\n      address\n        /* \"vault.sol\":5016:5023  _amount */\n      dup8\n        /* \"vault.sol\":4970:5024  token.transferFrom(msg.sender, address(this), _amount) */\n      mload(0x40)\n      dup5\n      0xffffffff\n      and\n      0xe0\n      shl\n      dup2\n      mstore\n      0x04\n      add\n      tag_151\n      swap4\n      swap3\n      swap2\n      swap1\n      tag_152\n      jump\t// in\n    tag_151:\n      0x20\n      mload(0x40)\n      dup1\n      dup4\n      sub\n      dup2\n      0x00\n      dup8\n      gas\n      call\n      iszero\n      dup1\n      iszero\n      tag_154\n      jumpi\n      returndatasize\n      0x00\n      dup1\n      returndatacopy\n      revert(0x00, returndatasize)\n    tag_154:\n      pop\n      pop\n      pop\n      pop\n      mload(0x40)\n      returndatasize\n      not(0x1f)\n      0x1f\n      dup3\n      add\n      and\n      dup3\n      add\n      dup1\n      0x40\n      mstore\n      pop\n      dup2\n      add\n      swap1\n      tag_155\n      swap2\n      swap1\n      tag_105\n      jump\t// in\n    tag_155:\n      pop\n        /* \"vault.sol\":5040:5106  prestaAdded(msg.sender, _to, _amount, contratKey, block.timestamp) */\n      0xa410c0b2147789b142a123a44f5490d1b3ab98a16e28f278f3df56383d93c626\n        /* \"vault.sol\":5052:5062  msg.sender */\n      caller\n        /* \"vault.sol\":5064:5067  _to */\n      dup5\n        /* \"vault.sol\":5069:5076  _amount */\n      dup7\n        /* \"vault.sol\":5078:5088  contratKey */\n      sload(0x02)\n        /* \"vault.sol\":5090:5105  block.timestamp */\n      timestamp\n        /* \"vault.sol\":5040:5106  prestaAdded(msg.sender, _to, _amount, contratKey, block.timestamp) */\n      mload(0x40)\n      tag_156\n      swap6\n      swap5\n      swap4\n      swap3\n      swap2\n      swap1\n      tag_157\n      jump\t// in\n    tag_156:\n      mload(0x40)\n      dup1\n      swap2\n      sub\n      swap1\n      log1\n        /* \"vault.sol\":5124:5134  contratKey */\n      sload(0x02)\n        /* \"vault.sol\":5117:5134  return contratKey */\n      swap2\n      pop\n      pop\n        /* \"vault.sol\":4455:5141  function createPresta(uint _amount, address _to) external returns (uint) {... */\n      swap3\n      swap2\n      pop\n      pop\n      jump\t// out\n        /* \"vault.sol\":5993:6930  function cancelTransfertPresta(uint _contratKey) external {... */\n    tag_46:\n        /* \"vault.sol\":6098:6108  msg.sender */\n      caller\n        /* \"vault.sol\":6069:6108  prestas[_contratKey].from == msg.sender */\n      0xffffffffffffffffffffffffffffffffffffffff\n      and\n        /* \"vault.sol\":6069:6076  prestas */\n      0x05\n        /* \"vault.sol\":6069:6089  prestas[_contratKey] */\n      0x00\n        /* \"vault.sol\":6077:6088  _contratKey */\n      dup4\n        /* \"vault.sol\":6069:6089  prestas[_contratKey] */\n      dup2\n      mstore\n      0x20\n      add\n      swap1\n      dup2\n      mstore\n      0x20\n      add\n      0x00\n      keccak256\n        /* \"vault.sol\":6069:6094  prestas[_contratKey].from */\n      0x00\n      add\n      0x00\n      swap1\n      sload\n      swap1\n      0x0100\n      exp\n      swap1\n      div\n      0xffffffffffffffffffffffffffffffffffffffff\n      and\n        /* \"vault.sol\":6069:6108  prestas[_contratKey].from == msg.sender */\n      0xffffffffffffffffffffffffffffffffffffffff\n      and\n      eq\n        /* \"vault.sol\":6069:6133  prestas[_contratKey].from == msg.sender || owner() == msg.sender */\n      dup1\n      tag_159\n      jumpi\n      pop\n        /* \"vault.sol\":6123:6133  msg.sender */\n      caller\n        /* \"vault.sol\":6112:6133  owner() == msg.sender */\n      0xffffffffffffffffffffffffffffffffffffffff\n      and\n        /* \"vault.sol\":6112:6119  owner() */\n      tag_160\n        /* \"vault.sol\":6112:6117  owner */\n      tag_54\n        /* \"vault.sol\":6112:6119  owner() */\n      jump\t// in\n    tag_160:\n        /* \"vault.sol\":6112:6133  owner() == msg.sender */\n      0xffffffffffffffffffffffffffffffffffffffff\n      and\n      eq\n        /* \"vault.sol\":6069:6133  prestas[_contratKey].from == msg.sender || owner() == msg.sender */\n    tag_159:\n        /* \"vault.sol\":6061:6161  require(prestas[_contratKey].from == msg.sender || owner() == msg.sender, \"Yout must be the sender\") */\n      tag_161\n      jumpi\n      mload(0x40)\n      0x08c379a000000000000000000000000000000000000000000000000000000000\n      dup2\n      mstore\n      0x04\n      add\n      tag_162\n      swap1\n      tag_89\n      jump\t// in\n    tag_162:\n      mload(0x40)\n      dup1\n      swap2\n      sub\n      swap1\n      revert\n    tag_161:\n        /* \"vault.sol\":6210:6227  prestaStatus.WAIT */\n      0x00\n        /* \"vault.sol\":6179:6227  prestas[_contratKey].status == prestaStatus.WAIT */\n      0x02\n      dup2\n      gt\n      iszero\n      tag_163\n      jumpi\n      tag_164\n      tag_92\n      jump\t// in\n    tag_164:\n    tag_163:\n        /* \"vault.sol\":6179:6186  prestas */\n      0x05\n        /* \"vault.sol\":6179:6199  prestas[_contratKey] */\n      0x00\n        /* \"vault.sol\":6187:6198  _contratKey */\n      dup4\n        /* \"vault.sol\":6179:6199  prestas[_contratKey] */\n      dup2\n      mstore\n      0x20\n      add\n      swap1\n      dup2\n      mstore\n      0x20\n      add\n      0x00\n      keccak256\n        /* \"vault.sol\":6179:6206  prestas[_contratKey].status */\n      0x04\n      add\n      0x00\n      swap1\n      sload\n      swap1\n      0x0100\n      exp\n      swap1\n      div\n      0xff\n      and\n        /* \"vault.sol\":6179:6227  prestas[_contratKey].status == prestaStatus.WAIT */\n      0x02\n      dup2\n      gt\n      iszero\n      tag_165\n      jumpi\n      tag_166\n      tag_92\n      jump\t// in\n    tag_166:\n    tag_165:\n      eq\n        /* \"vault.sol\":6171:6253  require(prestas[_contratKey].status == prestaStatus.WAIT, \"Presta is not waiting\") */\n      tag_167\n      jumpi\n      mload(0x40)\n      0x08c379a000000000000000000000000000000000000000000000000000000000\n      dup2\n      mstore\n      0x04\n      add\n      tag_168\n      swap1\n      tag_97\n      jump\t// in\n    tag_168:\n      mload(0x40)\n      dup1\n      swap2\n      sub\n      swap1\n      revert\n    tag_167:\n        /* \"vault.sol\":6289:6290  0 */\n      0x00\n        /* \"vault.sol\":6275:6285  feesCancel */\n      sload(0x04)\n        /* \"vault.sol\":6275:6290  feesCancel == 0 */\n      sub\n        /* \"vault.sol\":6272:6853  if(feesCancel == 0){... */\n      tag_169\n      jumpi\n        /* \"vault.sol\":6305:6310  token */\n      immutable(\"0xdaf52dba5981246bcf8fd7c6b00dce587fdcf5e2a95b281eea95dcd1376afdcd\")\n        /* \"vault.sol\":6305:6319  token.transfer */\n      0xffffffffffffffffffffffffffffffffffffffff\n      and\n      0xa9059cbb\n        /* \"vault.sol\":6320:6327  prestas */\n      0x05\n        /* \"vault.sol\":6320:6340  prestas[_contratKey] */\n      0x00\n        /* \"vault.sol\":6328:6339  _contratKey */\n      dup5\n        /* \"vault.sol\":6320:6340  prestas[_contratKey] */\n      dup2\n      mstore\n      0x20\n      add\n      swap1\n      dup2\n      mstore\n      0x20\n      add\n      0x00\n      keccak256\n        /* \"vault.sol\":6320:6345  prestas[_contratKey].from */\n      0x00\n      add\n      0x00\n      swap1\n      sload\n      swap1\n      0x0100\n      exp\n      swap1\n      div\n      0xffffffffffffffffffffffffffffffffffffffff\n      and\n        /* \"vault.sol\":6347:6354  prestas */\n      0x05\n        /* \"vault.sol\":6347:6367  prestas[_contratKey] */\n      0x00\n        /* \"vault.sol\":6355:6366  _contratKey */\n      dup6\n        /* \"vault.sol\":6347:6367  prestas[_contratKey] */\n      dup2\n      mstore\n      0x20\n      add\n      swap1\n      dup2\n      mstore\n      0x20\n      add\n      0x00\n      keccak256\n        /* \"vault.sol\":6347:6374  prestas[_contratKey].amount */\n      0x02\n      add\n      sload\n        /* \"vault.sol\":6305:6375  token.transfer(prestas[_contratKey].from, prestas[_contratKey].amount) */\n      mload(0x40)\n      dup4\n      0xffffffff\n      and\n      0xe0\n      shl\n      dup2\n      mstore\n      0x04\n      add\n      tag_170\n      swap3\n      swap2\n      swap1\n      tag_101\n      jump\t// in\n    tag_170:\n      0x20\n      mload(0x40)\n      dup1\n      dup4\n      sub\n      dup2\n      0x00\n      dup8\n      gas\n      call\n      iszero\n      dup1\n      iszero\n      tag_172\n      jumpi\n      returndatasize\n      0x00\n      dup1\n      returndatacopy\n      revert(0x00, returndatasize)\n    tag_172:\n      pop\n      pop\n      pop\n      pop\n      mload(0x40)\n      returndatasize\n      not(0x1f)\n      0x1f\n      dup3\n      add\n      and\n      dup3\n      add\n      dup1\n      0x40\n      mstore\n      pop\n      dup2\n      add\n      swap1\n      tag_173\n      swap2\n      swap1\n      tag_105\n      jump\t// in\n    tag_173:\n      pop\n        /* \"vault.sol\":6272:6853  if(feesCancel == 0){... */\n      jump(tag_174)\n    tag_169:\n        /* \"vault.sol\":6500:6516  uint amount_fees */\n      0x00\n        /* \"vault.sol\":6519:6590  SafeMath.div(SafeMath.mul(prestas[_contratKey].amount, feesCancel),100) */\n      tag_175\n        /* \"vault.sol\":6532:6585  SafeMath.mul(prestas[_contratKey].amount, feesCancel) */\n      tag_176\n        /* \"vault.sol\":6545:6552  prestas */\n      0x05\n        /* \"vault.sol\":6545:6565  prestas[_contratKey] */\n      0x00\n        /* \"vault.sol\":6553:6564  _contratKey */\n      dup6\n        /* \"vault.sol\":6545:6565  prestas[_contratKey] */\n      dup2\n      mstore\n      0x20\n      add\n      swap1\n      dup2\n      mstore\n      0x20\n      add\n      0x00\n      keccak256\n        /* \"vault.sol\":6545:6572  prestas[_contratKey].amount */\n      0x02\n      add\n      sload\n        /* \"vault.sol\":6574:6584  feesCancel */\n      sload(0x04)\n        /* \"vault.sol\":6532:6544  SafeMath.mul */\n      tag_143\n        /* \"vault.sol\":6532:6585  SafeMath.mul(prestas[_contratKey].amount, feesCancel) */\n      jump\t// in\n    tag_176:\n        /* \"vault.sol\":6586:6589  100 */\n      0x64\n        /* \"vault.sol\":6519:6531  SafeMath.div */\n      tag_144\n        /* \"vault.sol\":6519:6590  SafeMath.div(SafeMath.mul(prestas[_contratKey].amount, feesCancel),100) */\n      jump\t// in\n    tag_175:\n        /* \"vault.sol\":6500:6590  uint amount_fees = SafeMath.div(SafeMath.mul(prestas[_contratKey].amount, feesCancel),100) */\n      swap1\n      pop\n        /* \"vault.sol\":6604:6609  token */\n      immutable(\"0xdaf52dba5981246bcf8fd7c6b00dce587fdcf5e2a95b281eea95dcd1376afdcd\")\n        /* \"vault.sol\":6604:6618  token.transfer */\n      0xffffffffffffffffffffffffffffffffffffffff\n      and\n      0xa9059cbb\n        /* \"vault.sol\":6619:6626  prestas */\n      0x05\n        /* \"vault.sol\":6619:6639  prestas[_contratKey] */\n      0x00\n        /* \"vault.sol\":6627:6638  _contratKey */\n      dup6\n        /* \"vault.sol\":6619:6639  prestas[_contratKey] */\n      dup2\n      mstore\n      0x20\n      add\n      swap1\n      dup2\n      mstore\n      0x20\n      add\n      0x00\n      keccak256\n        /* \"vault.sol\":6619:6644  prestas[_contratKey].from */\n      0x00\n      add\n      0x00\n      swap1\n      sload\n      swap1\n      0x0100\n      exp\n      swap1\n      div\n      0xffffffffffffffffffffffffffffffffffffffff\n      and\n        /* \"vault.sol\":6676:6687  amount_fees */\n      dup4\n        /* \"vault.sol\":6646:6653  prestas */\n      0x05\n        /* \"vault.sol\":6646:6666  prestas[_contratKey] */\n      0x00\n        /* \"vault.sol\":6654:6665  _contratKey */\n      dup8\n        /* \"vault.sol\":6646:6666  prestas[_contratKey] */\n      dup2\n      mstore\n      0x20\n      add\n      swap1\n      dup2\n      mstore\n      0x20\n      add\n      0x00\n      keccak256\n        /* \"vault.sol\":6646:6673  prestas[_contratKey].amount */\n      0x02\n      add\n      sload\n        /* \"vault.sol\":6646:6687  prestas[_contratKey].amount - amount_fees */\n      tag_177\n      swap2\n      swap1\n      tag_99\n      jump\t// in\n    tag_177:\n        /* \"vault.sol\":6604:6688  token.transfer(prestas[_contratKey].from, prestas[_contratKey].amount - amount_fees) */\n      mload(0x40)\n      dup4\n      0xffffffff\n      and\n      0xe0\n      shl\n      dup2\n      mstore\n      0x04\n      add\n      tag_178\n      swap3\n      swap2\n      swap1\n      tag_101\n      jump\t// in\n    tag_178:\n      0x20\n      mload(0x40)\n      dup1\n      dup4\n      sub\n      dup2\n      0x00\n      dup8\n      gas\n      call\n      iszero\n      dup1\n      iszero\n      tag_180\n      jumpi\n      returndatasize\n      0x00\n      dup1\n      returndatacopy\n      revert(0x00, returndatasize)\n    tag_180:\n      pop\n      pop\n      pop\n      pop\n      mload(0x40)\n      returndatasize\n      not(0x1f)\n      0x1f\n      dup3\n      add\n      and\n      dup3\n      add\n      dup1\n      0x40\n      mstore\n      pop\n      dup2\n      add\n      swap1\n      tag_181\n      swap2\n      swap1\n      tag_105\n      jump\t// in\n    tag_181:\n      pop\n        /* \"vault.sol\":6747:6752  token */\n      immutable(\"0xdaf52dba5981246bcf8fd7c6b00dce587fdcf5e2a95b281eea95dcd1376afdcd\")\n        /* \"vault.sol\":6747:6761  token.transfer */\n      0xffffffffffffffffffffffffffffffffffffffff\n      and\n      0xa9059cbb\n        /* \"vault.sol\":6762:6773  addressFees */\n      0x01\n      0x00\n      swap1\n      sload\n      swap1\n      0x0100\n      exp\n      swap1\n      div\n      0xffffffffffffffffffffffffffffffffffffffff\n      and\n        /* \"vault.sol\":6775:6786  amount_fees */\n      dup4\n        /* \"vault.sol\":6747:6787  token.transfer(addressFees, amount_fees) */\n      mload(0x40)\n      dup4\n      0xffffffff\n      and\n      0xe0\n      shl\n      dup2\n      mstore\n      0x04\n      add\n      tag_182\n      swap3\n      swap2\n      swap1\n      tag_101\n      jump\t// in\n    tag_182:\n      0x20\n      mload(0x40)\n      dup1\n      dup4\n      sub\n      dup2\n      0x00\n      dup8\n      gas\n      call\n      iszero\n      dup1\n      iszero\n      tag_184\n      jumpi\n      returndatasize\n      0x00\n      dup1\n      returndatacopy\n      revert(0x00, returndatasize)\n    tag_184:\n      pop\n      pop\n      pop\n      pop\n      mload(0x40)\n      returndatasize\n      not(0x1f)\n      0x1f\n      dup3\n      add\n      and\n      dup3\n      add\n      dup1\n      0x40\n      mstore\n      pop\n      dup2\n      add\n      swap1\n      tag_185\n      swap2\n      swap1\n      tag_105\n      jump\t// in\n    tag_185:\n      pop\n        /* \"vault.sol\":6426:6853  {... */\n      pop\n        /* \"vault.sol\":6272:6853  if(feesCancel == 0){... */\n    tag_174:\n        /* \"vault.sol\":6893:6914  prestaStatus.CANCELED */\n      0x02\n        /* \"vault.sol\":6863:6870  prestas */\n      0x05\n        /* \"vault.sol\":6863:6883  prestas[_contratKey] */\n      0x00\n        /* \"vault.sol\":6871:6882  _contratKey */\n      dup4\n        /* \"vault.sol\":6863:6883  prestas[_contratKey] */\n      dup2\n      mstore\n      0x20\n      add\n      swap1\n      dup2\n      mstore\n      0x20\n      add\n      0x00\n      keccak256\n        /* \"vault.sol\":6863:6890  prestas[_contratKey].status */\n      0x04\n      add\n      0x00\n        /* \"vault.sol\":6863:6914  prestas[_contratKey].status = prestaStatus.CANCELED */\n      0x0100\n      exp\n      dup2\n      sload\n      dup2\n      0xff\n      mul\n      not\n      and\n      swap1\n      dup4\n      0x02\n      dup2\n      gt\n      iszero\n      tag_186\n      jumpi\n      tag_187\n      tag_92\n      jump\t// in\n    tag_187:\n    tag_186:\n      mul\n      or\n      swap1\n      sstore\n      pop\n        /* \"vault.sol\":5993:6930  function cancelTransfertPresta(uint _contratKey) external {... */\n      pop\n      jump\t// out\n        /* \"@openzeppelin/contracts/access/Ownable.sol\":1831:1932  function renounceOwnership() public virtual onlyOwner {... */\n    tag_48:\n        /* \"@openzeppelin/contracts/access/Ownable.sol\":1094:1107  _checkOwner() */\n      tag_189\n        /* \"@openzeppelin/contracts/access/Ownable.sol\":1094:1105  _checkOwner */\n      tag_114\n        /* \"@openzeppelin/contracts/access/Ownable.sol\":1094:1107  _checkOwner() */\n      jump\t// in\n    tag_189:\n        /* \"@openzeppelin/contracts/access/Ownable.sol\":1895:1925  _transferOwnership(address(0)) */\n      tag_191\n        /* \"@openzeppelin/contracts/access/Ownable.sol\":1922:1923  0 */\n      0x00\n        /* \"@openzeppelin/contracts/access/Ownable.sol\":1895:1913  _transferOwnership */\n      tag_192\n        /* \"@openzeppelin/contracts/access/Ownable.sol\":1895:1925  _transferOwnership(address(0)) */\n      jump\t// in\n    tag_191:\n        /* \"@openzeppelin/contracts/access/Ownable.sol\":1831:1932  function renounceOwnership() public virtual onlyOwner {... */\n      jump\t// out\n        /* \"vault.sol\":8194:8792  function getPrestaForRecipient() public view returns  ( presta[] memory) {... */\n    tag_50:\n        /* \"vault.sol\":8250:8265  presta[] memory */\n      0x60\n        /* \"vault.sol\":8474:8491  uint  prestaCount */\n      0x00\n        /* \"vault.sol\":8494:8512  prestaForRecipient */\n      0x07\n        /* \"vault.sol\":8494:8524  prestaForRecipient[msg.sender] */\n      0x00\n        /* \"vault.sol\":8513:8523  msg.sender */\n      caller\n        /* \"vault.sol\":8494:8524  prestaForRecipient[msg.sender] */\n      0xffffffffffffffffffffffffffffffffffffffff\n      and\n      0xffffffffffffffffffffffffffffffffffffffff\n      and\n      dup2\n      mstore\n      0x20\n      add\n      swap1\n      dup2\n      mstore\n      0x20\n      add\n      0x00\n      keccak256\n        /* \"vault.sol\":8494:8531  prestaForRecipient[msg.sender].length */\n      dup1\n      sload\n      swap1\n      pop\n        /* \"vault.sol\":8474:8531  uint  prestaCount = prestaForRecipient[msg.sender].length */\n      swap1\n      pop\n        /* \"vault.sol\":8541:8568  presta[]  memory prestasTmp */\n      0x00\n        /* \"vault.sol\":8584:8595  prestaCount */\n      dup2\n        /* \"vault.sol\":8571:8596  new presta[](prestaCount) */\n      0xffffffffffffffff\n      dup2\n      gt\n      iszero\n      tag_194\n      jumpi\n      tag_195\n      tag_196\n      jump\t// in\n    tag_195:\n    tag_194:\n      mload(0x40)\n      swap1\n      dup1\n      dup3\n      mstore\n      dup1\n      0x20\n      mul\n      0x20\n      add\n      dup3\n      add\n      0x40\n      mstore\n      dup1\n      iszero\n      tag_197\n      jumpi\n      dup2\n      0x20\n      add\n    tag_198:\n      tag_199\n      tag_200\n      jump\t// in\n    tag_199:\n      dup2\n      mstore\n      0x20\n      add\n      swap1\n      0x01\n      swap1\n      sub\n      swap1\n      dup2\n      tag_198\n      jumpi\n      swap1\n      pop\n    tag_197:\n      pop\n        /* \"vault.sol\":8541:8596  presta[]  memory prestasTmp = new presta[](prestaCount) */\n      swap1\n      pop\n        /* \"vault.sol\":8611:8617  uint j */\n      0x00\n        /* \"vault.sol\":8606:8759  for (uint j = 0; j<prestaCount; j++){... */\n    tag_201:\n        /* \"vault.sol\":8625:8636  prestaCount */\n      dup3\n        /* \"vault.sol\":8623:8624  j */\n      dup2\n        /* \"vault.sol\":8623:8636  j<prestaCount */\n      lt\n        /* \"vault.sol\":8606:8759  for (uint j = 0; j<prestaCount; j++){... */\n      iszero\n      tag_202\n      jumpi\n        /* \"vault.sol\":8656:8672  presta storage p */\n      0x00\n        /* \"vault.sol\":8675:8682  prestas */\n      0x05\n        /* \"vault.sol\":8675:8717  prestas[prestaForRecipient[msg.sender][j]] */\n      0x00\n        /* \"vault.sol\":8683:8701  prestaForRecipient */\n      0x07\n        /* \"vault.sol\":8683:8713  prestaForRecipient[msg.sender] */\n      0x00\n        /* \"vault.sol\":8702:8712  msg.sender */\n      caller\n        /* \"vault.sol\":8683:8713  prestaForRecipient[msg.sender] */\n      0xffffffffffffffffffffffffffffffffffffffff\n      and\n      0xffffffffffffffffffffffffffffffffffffffff\n      and\n      dup2\n      mstore\n      0x20\n      add\n      swap1\n      dup2\n      mstore\n      0x20\n      add\n      0x00\n      keccak256\n        /* \"vault.sol\":8714:8715  j */\n      dup5\n        /* \"vault.sol\":8683:8716  prestaForRecipient[msg.sender][j] */\n      dup2\n      sload\n      dup2\n      lt\n      tag_204\n      jumpi\n      tag_205\n      tag_128\n      jump\t// in\n    tag_205:\n    tag_204:\n      swap1\n      0x00\n      mstore\n      keccak256(0x00, 0x20)\n      add\n      sload\n        /* \"vault.sol\":8675:8717  prestas[prestaForRecipient[msg.sender][j]] */\n      dup2\n      mstore\n      0x20\n      add\n      swap1\n      dup2\n      mstore\n      0x20\n      add\n      0x00\n      keccak256\n        /* \"vault.sol\":8656:8717  presta storage p = prestas[prestaForRecipient[msg.sender][j]] */\n      swap1\n      pop\n        /* \"vault.sol\":8747:8748  p */\n      dup1\n        /* \"vault.sol\":8731:8748  prestasTmp[j] = p */\n      mload(0x40)\n      dup1\n      0xa0\n      add\n      0x40\n      mstore\n      swap1\n      dup2\n      0x00\n      dup3\n      add\n      0x00\n      swap1\n      sload\n      swap1\n      0x0100\n      exp\n      swap1\n      div\n      0xffffffffffffffffffffffffffffffffffffffff\n      and\n      0xffffffffffffffffffffffffffffffffffffffff\n      and\n      0xffffffffffffffffffffffffffffffffffffffff\n      and\n      dup2\n      mstore\n      0x20\n      add\n      0x01\n      dup3\n      add\n      0x00\n      swap1\n      sload\n      swap1\n      0x0100\n      exp\n      swap1\n      div\n      0xffffffffffffffffffffffffffffffffffffffff\n      and\n      0xffffffffffffffffffffffffffffffffffffffff\n      and\n      0xffffffffffffffffffffffffffffffffffffffff\n      and\n      dup2\n      mstore\n      0x20\n      add\n      0x02\n      dup3\n      add\n      sload\n      dup2\n      mstore\n      0x20\n      add\n      0x03\n      dup3\n      add\n      sload\n      dup2\n      mstore\n      0x20\n      add\n      0x04\n      dup3\n      add\n      0x00\n      swap1\n      sload\n      swap1\n      0x0100\n      exp\n      swap1\n      div\n      0xff\n      and\n      0x02\n      dup2\n      gt\n      iszero\n      tag_207\n      jumpi\n      tag_208\n      tag_92\n      jump\t// in\n    tag_208:\n    tag_207:\n      0x02\n      dup2\n      gt\n      iszero\n      tag_209\n      jumpi\n      tag_210\n      tag_92\n      jump\t// in\n    tag_210:\n    tag_209:\n      dup2\n      mstore\n      pop\n      pop\n        /* \"vault.sol\":8731:8741  prestasTmp */\n      dup4\n        /* \"vault.sol\":8742:8743  j */\n      dup4\n        /* \"vault.sol\":8731:8744  prestasTmp[j] */\n      dup2\n      mload\n      dup2\n      lt\n      tag_211\n      jumpi\n      tag_212\n      tag_128\n      jump\t// in\n    tag_212:\n    tag_211:\n      0x20\n      mul\n      0x20\n      add\n      add\n        /* \"vault.sol\":8731:8748  prestasTmp[j] = p */\n      dup2\n      swap1\n      mstore\n      pop\n        /* \"vault.sol\":8642:8759  {... */\n      pop\n        /* \"vault.sol\":8638:8641  j++ */\n      dup1\n      dup1\n      tag_213\n      swap1\n      tag_134\n      jump\t// in\n    tag_213:\n      swap2\n      pop\n      pop\n        /* \"vault.sol\":8606:8759  for (uint j = 0; j<prestaCount; j++){... */\n      jump(tag_201)\n    tag_202:\n      pop\n        /* \"vault.sol\":8775:8785  prestasTmp */\n      dup1\n        /* \"vault.sol\":8768:8785  return prestasTmp */\n      swap3\n      pop\n      pop\n      pop\n        /* \"vault.sol\":8194:8792  function getPrestaForRecipient() public view returns  ( presta[] memory) {... */\n      swap1\n      jump\t// out\n        /* \"@openzeppelin/contracts/access/Ownable.sol\":1201:1286  function owner() public view virtual returns (address) {... */\n    tag_54:\n        /* \"@openzeppelin/contracts/access/Ownable.sol\":1247:1254  address */\n      0x00\n        /* \"@openzeppelin/contracts/access/Ownable.sol\":1273:1279  _owner */\n      dup1\n      0x00\n      swap1\n      sload\n      swap1\n      0x0100\n      exp\n      swap1\n      div\n      0xffffffffffffffffffffffffffffffffffffffff\n      and\n        /* \"@openzeppelin/contracts/access/Ownable.sol\":1266:1279  return _owner */\n      swap1\n      pop\n        /* \"@openzeppelin/contracts/access/Ownable.sol\":1201:1286  function owner() public view virtual returns (address) {... */\n      swap1\n      jump\t// out\n        /* \"vault.sol\":3363:3411  mapping(address => uint[]) public prestaBySender */\n    tag_60:\n      mstore(0x20, 0x06)\n      dup2\n      0x00\n      mstore\n      keccak256(0x00, 0x40)\n      dup2\n      dup2\n      sload\n      dup2\n      lt\n      tag_215\n      jumpi\n      0x00\n      dup1\n      revert\n    tag_215:\n      swap1\n      0x00\n      mstore\n      keccak256(0x00, 0x20)\n      add\n      0x00\n      swap2\n      pop\n      swap2\n      pop\n      pop\n      sload\n      dup2\n      jump\t// out\n        /* \"vault.sol\":7484:8112  function getPrestaOfSender() public view returns  ( presta[] memory) {... */\n    tag_63:\n        /* \"vault.sol\":7536:7551  presta[] memory */\n      0x60\n        /* \"vault.sol\":7797:7814  uint  prestaCount */\n      0x00\n        /* \"vault.sol\":7817:7831  prestaBySender */\n      0x06\n        /* \"vault.sol\":7817:7843  prestaBySender[msg.sender] */\n      0x00\n        /* \"vault.sol\":7832:7842  msg.sender */\n      caller\n        /* \"vault.sol\":7817:7843  prestaBySender[msg.sender] */\n      0xffffffffffffffffffffffffffffffffffffffff\n      and\n      0xffffffffffffffffffffffffffffffffffffffff\n      and\n      dup2\n      mstore\n      0x20\n      add\n      swap1\n      dup2\n      mstore\n      0x20\n      add\n      0x00\n      keccak256\n        /* \"vault.sol\":7817:7850  prestaBySender[msg.sender].length */\n      dup1\n      sload\n      swap1\n      pop\n        /* \"vault.sol\":7797:7850  uint  prestaCount = prestaBySender[msg.sender].length */\n      swap1\n      pop\n        /* \"vault.sol\":7860:7887  presta[]  memory prestasTmp */\n      0x00\n        /* \"vault.sol\":7903:7914  prestaCount */\n      dup2\n        /* \"vault.sol\":7890:7915  new presta[](prestaCount) */\n      0xffffffffffffffff\n      dup2\n      gt\n      iszero\n      tag_218\n      jumpi\n      tag_219\n      tag_196\n      jump\t// in\n    tag_219:\n    tag_218:\n      mload(0x40)\n      swap1\n      dup1\n      dup3\n      mstore\n      dup1\n      0x20\n      mul\n      0x20\n      add\n      dup3\n      add\n      0x40\n      mstore\n      dup1\n      iszero\n      tag_220\n      jumpi\n      dup2\n      0x20\n      add\n    tag_221:\n      tag_222\n      tag_200\n      jump\t// in\n    tag_222:\n      dup2\n      mstore\n      0x20\n      add\n      swap1\n      0x01\n      swap1\n      sub\n      swap1\n      dup2\n      tag_221\n      jumpi\n      swap1\n      pop\n    tag_220:\n      pop\n        /* \"vault.sol\":7860:7915  presta[]  memory prestasTmp = new presta[](prestaCount) */\n      swap1\n      pop\n        /* \"vault.sol\":7930:7936  uint j */\n      0x00\n        /* \"vault.sol\":7925:8078  for (uint j = 0; j<prestaCount; j++){... */\n    tag_223:\n        /* \"vault.sol\":7944:7955  prestaCount */\n      dup3\n        /* \"vault.sol\":7942:7943  j */\n      dup2\n        /* \"vault.sol\":7942:7955  j<prestaCount */\n      lt\n        /* \"vault.sol\":7925:8078  for (uint j = 0; j<prestaCount; j++){... */\n      iszero\n      tag_224\n      jumpi\n        /* \"vault.sol\":7975:7991  presta storage p */\n      0x00\n        /* \"vault.sol\":7994:8001  prestas */\n      0x05\n        /* \"vault.sol\":7994:8032  prestas[prestaBySender[msg.sender][j]] */\n      0x00\n        /* \"vault.sol\":8002:8016  prestaBySender */\n      0x06\n        /* \"vault.sol\":8002:8028  prestaBySender[msg.sender] */\n      0x00\n        /* \"vault.sol\":8017:8027  msg.sender */\n      caller\n        /* \"vault.sol\":8002:8028  prestaBySender[msg.sender] */\n      0xffffffffffffffffffffffffffffffffffffffff\n      and\n      0xffffffffffffffffffffffffffffffffffffffff\n      and\n      dup2\n      mstore\n      0x20\n      add\n      swap1\n      dup2\n      mstore\n      0x20\n      add\n      0x00\n      keccak256\n        /* \"vault.sol\":8029:8030  j */\n      dup5\n        /* \"vault.sol\":8002:8031  prestaBySender[msg.sender][j] */\n      dup2\n      sload\n      dup2\n      lt\n      tag_226\n      jumpi\n      tag_227\n      tag_128\n      jump\t// in\n    tag_227:\n    tag_226:\n      swap1\n      0x00\n      mstore\n      keccak256(0x00, 0x20)\n      add\n      sload\n        /* \"vault.sol\":7994:8032  prestas[prestaBySender[msg.sender][j]] */\n      dup2\n      mstore\n      0x20\n      add\n      swap1\n      dup2\n      mstore\n      0x20\n      add\n      0x00\n      keccak256\n        /* \"vault.sol\":7975:8032  presta storage p = prestas[prestaBySender[msg.sender][j]] */\n      swap1\n      pop\n        /* \"vault.sol\":8066:8067  p */\n      dup1\n        /* \"vault.sol\":8050:8067  prestasTmp[j] = p */\n      mload(0x40)\n      dup1\n      0xa0\n      add\n      0x40\n      mstore\n      swap1\n      dup2\n      0x00\n      dup3\n      add\n      0x00\n      swap1\n      sload\n      swap1\n      0x0100\n      exp\n      swap1\n      div\n      0xffffffffffffffffffffffffffffffffffffffff\n      and\n      0xffffffffffffffffffffffffffffffffffffffff\n      and\n      0xffffffffffffffffffffffffffffffffffffffff\n      and\n      dup2\n      mstore\n      0x20\n      add\n      0x01\n      dup3\n      add\n      0x00\n      swap1\n      sload\n      swap1\n      0x0100\n      exp\n      swap1\n      div\n      0xffffffffffffffffffffffffffffffffffffffff\n      and\n      0xffffffffffffffffffffffffffffffffffffffff\n      and\n      0xffffffffffffffffffffffffffffffffffffffff\n      and\n      dup2\n      mstore\n      0x20\n      add\n      0x02\n      dup3\n      add\n      sload\n      dup2\n      mstore\n      0x20\n      add\n      0x03\n      dup3\n      add\n      sload\n      dup2\n      mstore\n      0x20\n      add\n      0x04\n      dup3\n      add\n      0x00\n      swap1\n      sload\n      swap1\n      0x0100\n      exp\n      swap1\n      div\n      0xff\n      and\n      0x02\n      dup2\n      gt\n      iszero\n      tag_229\n      jumpi\n      tag_230\n      tag_92\n      jump\t// in\n    tag_230:\n    tag_229:\n      0x02\n      dup2\n      gt\n      iszero\n      tag_231\n      jumpi\n      tag_232\n      tag_92\n      jump\t// in\n    tag_232:\n    tag_231:\n      dup2\n      mstore\n      pop\n      pop\n        /* \"vault.sol\":8050:8060  prestasTmp */\n      dup4\n        /* \"vault.sol\":8061:8062  j */\n      dup4\n        /* \"vault.sol\":8050:8063  prestasTmp[j] */\n      dup2\n      mload\n      dup2\n      lt\n      tag_233\n      jumpi\n      tag_234\n      tag_128\n      jump\t// in\n    tag_234:\n    tag_233:\n      0x20\n      mul\n      0x20\n      add\n      add\n        /* \"vault.sol\":8050:8067  prestasTmp[j] = p */\n      dup2\n      swap1\n      mstore\n      pop\n        /* \"vault.sol\":7961:8078  {... */\n      pop\n        /* \"vault.sol\":7957:7960  j++ */\n      dup1\n      dup1\n      tag_235\n      swap1\n      tag_134\n      jump\t// in\n    tag_235:\n      swap2\n      pop\n      pop\n        /* \"vault.sol\":7925:8078  for (uint j = 0; j<prestaCount; j++){... */\n      jump(tag_223)\n    tag_224:\n      pop\n        /* \"vault.sol\":8094:8104  prestasTmp */\n      dup1\n        /* \"vault.sol\":8087:8104  return prestasTmp */\n      swap3\n      pop\n      pop\n      pop\n        /* \"vault.sol\":7484:8112  function getPrestaOfSender() public view returns  ( presta[] memory) {... */\n      swap1\n      jump\t// out\n        /* \"vault.sol\":3463:3515  mapping(address => uint[]) public prestaForRecipient */\n    tag_67:\n      mstore(0x20, 0x07)\n      dup2\n      0x00\n      mstore\n      keccak256(0x00, 0x40)\n      dup2\n      dup2\n      sload\n      dup2\n      lt\n      tag_236\n      jumpi\n      0x00\n      dup1\n      revert\n    tag_236:\n      swap1\n      0x00\n      mstore\n      keccak256(0x00, 0x20)\n      add\n      0x00\n      swap2\n      pop\n      swap2\n      pop\n      pop\n      sload\n      dup2\n      jump\t// out\n        /* \"vault.sol\":3284:3322  mapping(uint => presta) public prestas */\n    tag_71:\n      mstore(0x20, 0x05)\n      dup1\n      0x00\n      mstore\n      keccak256(0x00, 0x40)\n      0x00\n      swap2\n      pop\n      swap1\n      pop\n      dup1\n      0x00\n      add\n      0x00\n      swap1\n      sload\n      swap1\n      0x0100\n      exp\n      swap1\n      div\n      0xffffffffffffffffffffffffffffffffffffffff\n      and\n      swap1\n      dup1\n      0x01\n      add\n      0x00\n      swap1\n      sload\n      swap1\n      0x0100\n      exp\n      swap1\n      div\n      0xffffffffffffffffffffffffffffffffffffffff\n      and\n      swap1\n      dup1\n      0x02\n      add\n      sload\n      swap1\n      dup1\n      0x03\n      add\n      sload\n      swap1\n      dup1\n      0x04\n      add\n      0x00\n      swap1\n      sload\n      swap1\n      0x0100\n      exp\n      swap1\n      div\n      0xff\n      and\n      swap1\n      pop\n      dup6\n      jump\t// out\n        /* \"vault.sol\":4294:4395  function setFeesCancel(uint _feesCancel) external onlyOwner {... */\n    tag_76:\n        /* \"@openzeppelin/contracts/access/Ownable.sol\":1094:1107  _checkOwner() */\n      tag_239\n        /* \"@openzeppelin/contracts/access/Ownable.sol\":1094:1105  _checkOwner */\n      tag_114\n        /* \"@openzeppelin/contracts/access/Ownable.sol\":1094:1107  _checkOwner() */\n      jump\t// in\n    tag_239:\n        /* \"vault.sol\":4377:4388  _feesCancel */\n      dup1\n        /* \"vault.sol\":4364:4374  feesCancel */\n      0x04\n        /* \"vault.sol\":4364:4388  feesCancel = _feesCancel */\n      dup2\n      swap1\n      sstore\n      pop\n        /* \"vault.sol\":4294:4395  function setFeesCancel(uint _feesCancel) external onlyOwner {... */\n      pop\n      jump\t// out\n        /* \"@openzeppelin/contracts/access/Ownable.sol\":2081:2279  function transferOwnership(address newOwner) public virtual onlyOwner {... */\n    tag_79:\n        /* \"@openzeppelin/contracts/access/Ownable.sol\":1094:1107  _checkOwner() */\n      tag_242\n        /* \"@openzeppelin/contracts/access/Ownable.sol\":1094:1105  _checkOwner */\n      tag_114\n        /* \"@openzeppelin/contracts/access/Ownable.sol\":1094:1107  _checkOwner() */\n      jump\t// in\n    tag_242:\n        /* \"@openzeppelin/contracts/access/Ownable.sol\":2189:2190  0 */\n      0x00\n        /* \"@openzeppelin/contracts/access/Ownable.sol\":2169:2191  newOwner != address(0) */\n      0xffffffffffffffffffffffffffffffffffffffff\n      and\n        /* \"@openzeppelin/contracts/access/Ownable.sol\":2169:2177  newOwner */\n      dup2\n        /* \"@openzeppelin/contracts/access/Ownable.sol\":2169:2191  newOwner != address(0) */\n      0xffffffffffffffffffffffffffffffffffffffff\n      and\n      sub\n        /* \"@openzeppelin/contracts/access/Ownable.sol\":2161:2234  require(newOwner != address(0), \"Ownable: new owner is the zero address\") */\n      tag_244\n      jumpi\n      mload(0x40)\n      0x08c379a000000000000000000000000000000000000000000000000000000000\n      dup2\n      mstore\n      0x04\n      add\n      tag_245\n      swap1\n      tag_246\n      jump\t// in\n    tag_245:\n      mload(0x40)\n      dup1\n      swap2\n      sub\n      swap1\n      revert\n    tag_244:\n        /* \"@openzeppelin/contracts/access/Ownable.sol\":2244:2272  _transferOwnership(newOwner) */\n      tag_247\n        /* \"@openzeppelin/contracts/access/Ownable.sol\":2263:2271  newOwner */\n      dup2\n        /* \"@openzeppelin/contracts/access/Ownable.sol\":2244:2262  _transferOwnership */\n      tag_192\n        /* \"@openzeppelin/contracts/access/Ownable.sol\":2244:2272  _transferOwnership(newOwner) */\n      jump\t// in\n    tag_247:\n        /* \"@openzeppelin/contracts/access/Ownable.sol\":2081:2279  function transferOwnership(address newOwner) public virtual onlyOwner {... */\n      pop\n      jump\t// out\n        /* \"vault.sol\":2945:2974  IERC20 public immutable token */\n    tag_81:\n      immutable(\"0xdaf52dba5981246bcf8fd7c6b00dce587fdcf5e2a95b281eea95dcd1376afdcd\")\n      dup2\n      jump\t// out\n        /* \"@openzeppelin/contracts/access/Ownable.sol\":1359:1489  function _checkOwner() internal view virtual {... */\n    tag_114:\n        /* \"@openzeppelin/contracts/access/Ownable.sol\":1433:1445  _msgSender() */\n      tag_249\n        /* \"@openzeppelin/contracts/access/Ownable.sol\":1433:1443  _msgSender */\n      tag_250\n        /* \"@openzeppelin/contracts/access/Ownable.sol\":1433:1445  _msgSender() */\n      jump\t// in\n    tag_249:\n        /* \"@openzeppelin/contracts/access/Ownable.sol\":1422:1445  owner() == _msgSender() */\n      0xffffffffffffffffffffffffffffffffffffffff\n      and\n        /* \"@openzeppelin/contracts/access/Ownable.sol\":1422:1429  owner() */\n      tag_251\n        /* \"@openzeppelin/contracts/access/Ownable.sol\":1422:1427  owner */\n      tag_54\n        /* \"@openzeppelin/contracts/access/Ownable.sol\":1422:1429  owner() */\n      jump\t// in\n    tag_251:\n        /* \"@openzeppelin/contracts/access/Ownable.sol\":1422:1445  owner() == _msgSender() */\n      0xffffffffffffffffffffffffffffffffffffffff\n      and\n      eq\n        /* \"@openzeppelin/contracts/access/Ownable.sol\":1414:1482  require(owner() == _msgSender(), \"Ownable: caller is not the owner\") */\n      tag_252\n      jumpi\n      mload(0x40)\n      0x08c379a000000000000000000000000000000000000000000000000000000000\n      dup2\n      mstore\n      0x04\n      add\n      tag_253\n      swap1\n      tag_254\n      jump\t// in\n    tag_253:\n      mload(0x40)\n      dup1\n      swap2\n      sub\n      swap1\n      revert\n    tag_252:\n        /* \"@openzeppelin/contracts/access/Ownable.sol\":1359:1489  function _checkOwner() internal view virtual {... */\n      jump\t// out\n        /* \"@openzeppelin/contracts/utils/math/SafeMath.sol\":3465:3561  function mul(uint256 a, uint256 b) internal pure returns (uint256) {... */\n    tag_143:\n        /* \"@openzeppelin/contracts/utils/math/SafeMath.sol\":3523:3530  uint256 */\n      0x00\n        /* \"@openzeppelin/contracts/utils/math/SafeMath.sol\":3553:3554  b */\n      dup2\n        /* \"@openzeppelin/contracts/utils/math/SafeMath.sol\":3549:3550  a */\n      dup4\n        /* \"@openzeppelin/contracts/utils/math/SafeMath.sol\":3549:3554  a * b */\n      tag_256\n      swap2\n      swap1\n      tag_257\n      jump\t// in\n    tag_256:\n        /* \"@openzeppelin/contracts/utils/math/SafeMath.sol\":3542:3554  return a * b */\n      swap1\n      pop\n        /* \"@openzeppelin/contracts/utils/math/SafeMath.sol\":3465:3561  function mul(uint256 a, uint256 b) internal pure returns (uint256) {... */\n      swap3\n      swap2\n      pop\n      pop\n      jump\t// out\n        /* \"@openzeppelin/contracts/utils/math/SafeMath.sol\":3850:3946  function div(uint256 a, uint256 b) internal pure returns (uint256) {... */\n    tag_144:\n        /* \"@openzeppelin/contracts/utils/math/SafeMath.sol\":3908:3915  uint256 */\n      0x00\n        /* \"@openzeppelin/contracts/utils/math/SafeMath.sol\":3938:3939  b */\n      dup2\n        /* \"@openzeppelin/contracts/utils/math/SafeMath.sol\":3934:3935  a */\n      dup4\n        /* \"@openzeppelin/contracts/utils/math/SafeMath.sol\":3934:3939  a / b */\n      tag_259\n      swap2\n      swap1\n      tag_260\n      jump\t// in\n    tag_259:\n        /* \"@openzeppelin/contracts/utils/math/SafeMath.sol\":3927:3939  return a / b */\n      swap1\n      pop\n        /* \"@openzeppelin/contracts/utils/math/SafeMath.sol\":3850:3946  function div(uint256 a, uint256 b) internal pure returns (uint256) {... */\n      swap3\n      swap2\n      pop\n      pop\n      jump\t// out\n        /* \"@openzeppelin/contracts/access/Ownable.sol\":2433:2620  function _transferOwnership(address newOwner) internal virtual {... */\n    tag_192:\n        /* \"@openzeppelin/contracts/access/Ownable.sol\":2506:2522  address oldOwner */\n      0x00\n        /* \"@openzeppelin/contracts/access/Ownable.sol\":2525:2531  _owner */\n      dup1\n      0x00\n      swap1\n      sload\n      swap1\n      0x0100\n      exp\n      swap1\n      div\n      0xffffffffffffffffffffffffffffffffffffffff\n      and\n        /* \"@openzeppelin/contracts/access/Ownable.sol\":2506:2531  address oldOwner = _owner */\n      swap1\n      pop\n        /* \"@openzeppelin/contracts/access/Ownable.sol\":2550:2558  newOwner */\n      dup2\n        /* \"@openzeppelin/contracts/access/Ownable.sol\":2541:2547  _owner */\n      0x00\n      dup1\n        /* \"@openzeppelin/contracts/access/Ownable.sol\":2541:2558  _owner = newOwner */\n      0x0100\n      exp\n      dup2\n      sload\n      dup2\n      0xffffffffffffffffffffffffffffffffffffffff\n      mul\n      not\n      and\n      swap1\n      dup4\n      0xffffffffffffffffffffffffffffffffffffffff\n      and\n      mul\n      or\n      swap1\n      sstore\n      pop\n        /* \"@openzeppelin/contracts/access/Ownable.sol\":2604:2612  newOwner */\n      dup2\n        /* \"@openzeppelin/contracts/access/Ownable.sol\":2573:2613  OwnershipTransferred(oldOwner, newOwner) */\n      0xffffffffffffffffffffffffffffffffffffffff\n      and\n        /* \"@openzeppelin/contracts/access/Ownable.sol\":2594:2602  oldOwner */\n      dup2\n        /* \"@openzeppelin/contracts/access/Ownable.sol\":2573:2613  OwnershipTransferred(oldOwner, newOwner) */\n      0xffffffffffffffffffffffffffffffffffffffff\n      and\n      0x8be0079c531659141344cd1fd0a4f28419497f9722a3daafe3b4186f6b6457e0\n      mload(0x40)\n      mload(0x40)\n      dup1\n      swap2\n      sub\n      swap1\n      log3\n        /* \"@openzeppelin/contracts/access/Ownable.sol\":2496:2620  {... */\n      pop\n        /* \"@openzeppelin/contracts/access/Ownable.sol\":2433:2620  function _transferOwnership(address newOwner) internal virtual {... */\n      pop\n      jump\t// out\n        /* \"@openzeppelin/contracts/utils/Context.sol\":640:736  function _msgSender() internal view virtual returns (address) {... */\n    tag_250:\n        /* \"@openzeppelin/contracts/utils/Context.sol\":693:700  address */\n      0x00\n        /* \"@openzeppelin/contracts/utils/Context.sol\":719:729  msg.sender */\n      caller\n        /* \"@openzeppelin/contracts/utils/Context.sol\":712:729  return msg.sender */\n      swap1\n      pop\n        /* \"@openzeppelin/contracts/utils/Context.sol\":640:736  function _msgSender() internal view virtual returns (address) {... */\n      swap1\n      jump\t// out\n    tag_200:\n      mload(0x40)\n      dup1\n      0xa0\n      add\n      0x40\n      mstore\n      dup1\n      and(0xffffffffffffffffffffffffffffffffffffffff, 0x00)\n      dup2\n      mstore\n      0x20\n      add\n      and(0xffffffffffffffffffffffffffffffffffffffff, 0x00)\n      dup2\n      mstore\n      0x20\n      add\n      0x00\n      dup2\n      mstore\n      0x20\n      add\n      0x00\n      dup2\n      mstore\n      0x20\n      add\n      0x00\n      0x02\n      dup2\n      gt\n      iszero\n      tag_263\n      jumpi\n      tag_264\n      tag_92\n      jump\t// in\n    tag_264:\n    tag_263:\n      dup2\n      mstore\n      pop\n      swap1\n      jump\t// out\n        /* \"#utility.yul\":88:205   */\n    tag_266:\n        /* \"#utility.yul\":197:198   */\n      0x00\n        /* \"#utility.yul\":194:195   */\n      dup1\n        /* \"#utility.yul\":187:199   */\n      revert\n        /* \"#utility.yul\":334:411   */\n    tag_268:\n        /* \"#utility.yul\":371:378   */\n      0x00\n        /* \"#utility.yul\":400:405   */\n      dup2\n        /* \"#utility.yul\":389:405   */\n      swap1\n      pop\n        /* \"#utility.yul\":334:411   */\n      swap2\n      swap1\n      pop\n      jump\t// out\n        /* \"#utility.yul\":417:539   */\n    tag_269:\n        /* \"#utility.yul\":490:514   */\n      tag_320\n        /* \"#utility.yul\":508:513   */\n      dup2\n        /* \"#utility.yul\":490:514   */\n      tag_268\n      jump\t// in\n    tag_320:\n        /* \"#utility.yul\":483:488   */\n      dup2\n        /* \"#utility.yul\":480:515   */\n      eq\n        /* \"#utility.yul\":470:533   */\n      tag_321\n      jumpi\n        /* \"#utility.yul\":529:530   */\n      0x00\n        /* \"#utility.yul\":526:527   */\n      dup1\n        /* \"#utility.yul\":519:531   */\n      revert\n        /* \"#utility.yul\":470:533   */\n    tag_321:\n        /* \"#utility.yul\":417:539   */\n      pop\n      jump\t// out\n        /* \"#utility.yul\":545:684   */\n    tag_270:\n        /* \"#utility.yul\":591:596   */\n      0x00\n        /* \"#utility.yul\":629:635   */\n      dup2\n        /* \"#utility.yul\":616:636   */\n      calldataload\n        /* \"#utility.yul\":607:636   */\n      swap1\n      pop\n        /* \"#utility.yul\":645:678   */\n      tag_323\n        /* \"#utility.yul\":672:677   */\n      dup2\n        /* \"#utility.yul\":645:678   */\n      tag_269\n      jump\t// in\n    tag_323:\n        /* \"#utility.yul\":545:684   */\n      swap3\n      swap2\n      pop\n      pop\n      jump\t// out\n        /* \"#utility.yul\":690:1019   */\n    tag_24:\n        /* \"#utility.yul\":749:755   */\n      0x00\n        /* \"#utility.yul\":798:800   */\n      0x20\n        /* \"#utility.yul\":786:795   */\n      dup3\n        /* \"#utility.yul\":777:784   */\n      dup5\n        /* \"#utility.yul\":773:796   */\n      sub\n        /* \"#utility.yul\":769:801   */\n      slt\n        /* \"#utility.yul\":766:885   */\n      iszero\n      tag_325\n      jumpi\n        /* \"#utility.yul\":804:883   */\n      tag_326\n      tag_266\n      jump\t// in\n    tag_326:\n        /* \"#utility.yul\":766:885   */\n    tag_325:\n        /* \"#utility.yul\":924:925   */\n      0x00\n        /* \"#utility.yul\":949:1002   */\n      tag_327\n        /* \"#utility.yul\":994:1001   */\n      dup5\n        /* \"#utility.yul\":985:991   */\n      dup3\n        /* \"#utility.yul\":974:983   */\n      dup6\n        /* \"#utility.yul\":970:992   */\n      add\n        /* \"#utility.yul\":949:1002   */\n      tag_270\n      jump\t// in\n    tag_327:\n        /* \"#utility.yul\":939:1002   */\n      swap2\n      pop\n        /* \"#utility.yul\":895:1012   */\n      pop\n        /* \"#utility.yul\":690:1019   */\n      swap3\n      swap2\n      pop\n      pop\n      jump\t// out\n        /* \"#utility.yul\":1025:1151   */\n    tag_271:\n        /* \"#utility.yul\":1062:1069   */\n      0x00\n        /* \"#utility.yul\":1102:1144   */\n      0xffffffffffffffffffffffffffffffffffffffff\n        /* \"#utility.yul\":1095:1100   */\n      dup3\n        /* \"#utility.yul\":1091:1145   */\n      and\n        /* \"#utility.yul\":1080:1145   */\n      swap1\n      pop\n        /* \"#utility.yul\":1025:1151   */\n      swap2\n      swap1\n      pop\n      jump\t// out\n        /* \"#utility.yul\":1157:1253   */\n    tag_272:\n        /* \"#utility.yul\":1194:1201   */\n      0x00\n        /* \"#utility.yul\":1223:1247   */\n      tag_330\n        /* \"#utility.yul\":1241:1246   */\n      dup3\n        /* \"#utility.yul\":1223:1247   */\n      tag_271\n      jump\t// in\n    tag_330:\n        /* \"#utility.yul\":1212:1247   */\n      swap1\n      pop\n        /* \"#utility.yul\":1157:1253   */\n      swap2\n      swap1\n      pop\n      jump\t// out\n        /* \"#utility.yul\":1259:1381   */\n    tag_273:\n        /* \"#utility.yul\":1332:1356   */\n      tag_332\n        /* \"#utility.yul\":1350:1355   */\n      dup2\n        /* \"#utility.yul\":1332:1356   */\n      tag_272\n      jump\t// in\n    tag_332:\n        /* \"#utility.yul\":1325:1330   */\n      dup2\n        /* \"#utility.yul\":1322:1357   */\n      eq\n        /* \"#utility.yul\":1312:1375   */\n      tag_333\n      jumpi\n        /* \"#utility.yul\":1371:1372   */\n      0x00\n        /* \"#utility.yul\":1368:1369   */\n      dup1\n        /* \"#utility.yul\":1361:1373   */\n      revert\n        /* \"#utility.yul\":1312:1375   */\n    tag_333:\n        /* \"#utility.yul\":1259:1381   */\n      pop\n      jump\t// out\n        /* \"#utility.yul\":1387:1526   */\n    tag_274:\n        /* \"#utility.yul\":1433:1438   */\n      0x00\n        /* \"#utility.yul\":1471:1477   */\n      dup2\n        /* \"#utility.yul\":1458:1478   */\n      calldataload\n        /* \"#utility.yul\":1449:1478   */\n      swap1\n      pop\n        /* \"#utility.yul\":1487:1520   */\n      tag_335\n        /* \"#utility.yul\":1514:1519   */\n      dup2\n        /* \"#utility.yul\":1487:1520   */\n      tag_273\n      jump\t// in\n    tag_335:\n        /* \"#utility.yul\":1387:1526   */\n      swap3\n      swap2\n      pop\n      pop\n      jump\t// out\n        /* \"#utility.yul\":1532:1861   */\n    tag_31:\n        /* \"#utility.yul\":1591:1597   */\n      0x00\n        /* \"#utility.yul\":1640:1642   */\n      0x20\n        /* \"#utility.yul\":1628:1637   */\n      dup3\n        /* \"#utility.yul\":1619:1626   */\n      dup5\n        /* \"#utility.yul\":1615:1638   */\n      sub\n        /* \"#utility.yul\":1611:1643   */\n      slt\n        /* \"#utility.yul\":1608:1727   */\n      iszero\n      tag_337\n      jumpi\n        /* \"#utility.yul\":1646:1725   */\n      tag_338\n      tag_266\n      jump\t// in\n    tag_338:\n        /* \"#utility.yul\":1608:1727   */\n    tag_337:\n        /* \"#utility.yul\":1766:1767   */\n      0x00\n        /* \"#utility.yul\":1791:1844   */\n      tag_339\n        /* \"#utility.yul\":1836:1843   */\n      dup5\n        /* \"#utility.yul\":1827:1833   */\n      dup3\n        /* \"#utility.yul\":1816:1825   */\n      dup6\n        /* \"#utility.yul\":1812:1834   */\n      add\n        /* \"#utility.yul\":1791:1844   */\n      tag_274\n      jump\t// in\n    tag_339:\n        /* \"#utility.yul\":1781:1844   */\n      swap2\n      pop\n        /* \"#utility.yul\":1737:1854   */\n      pop\n        /* \"#utility.yul\":1532:1861   */\n      swap3\n      swap2\n      pop\n      pop\n      jump\t// out\n        /* \"#utility.yul\":1867:1982   */\n    tag_275:\n        /* \"#utility.yul\":1956:1957   */\n      0x03\n        /* \"#utility.yul\":1949:1954   */\n      dup2\n        /* \"#utility.yul\":1946:1958   */\n      lt\n        /* \"#utility.yul\":1936:1976   */\n      tag_341\n      jumpi\n        /* \"#utility.yul\":1972:1973   */\n      0x00\n        /* \"#utility.yul\":1969:1970   */\n      dup1\n        /* \"#utility.yul\":1962:1974   */\n      revert\n        /* \"#utility.yul\":1936:1976   */\n    tag_341:\n        /* \"#utility.yul\":1867:1982   */\n      pop\n      jump\t// out\n        /* \"#utility.yul\":1988:2159   */\n    tag_276:\n        /* \"#utility.yul\":2050:2055   */\n      0x00\n        /* \"#utility.yul\":2088:2094   */\n      dup2\n        /* \"#utility.yul\":2075:2095   */\n      calldataload\n        /* \"#utility.yul\":2066:2095   */\n      swap1\n      pop\n        /* \"#utility.yul\":2104:2153   */\n      tag_343\n        /* \"#utility.yul\":2147:2152   */\n      dup2\n        /* \"#utility.yul\":2104:2153   */\n      tag_275\n      jump\t// in\n    tag_343:\n        /* \"#utility.yul\":1988:2159   */\n      swap3\n      swap2\n      pop\n      pop\n      jump\t// out\n        /* \"#utility.yul\":2165:2671   */\n    tag_35:\n        /* \"#utility.yul\":2249:2255   */\n      0x00\n        /* \"#utility.yul\":2257:2263   */\n      dup1\n        /* \"#utility.yul\":2306:2308   */\n      0x40\n        /* \"#utility.yul\":2294:2303   */\n      dup4\n        /* \"#utility.yul\":2285:2292   */\n      dup6\n        /* \"#utility.yul\":2281:2304   */\n      sub\n        /* \"#utility.yul\":2277:2309   */\n      slt\n        /* \"#utility.yul\":2274:2393   */\n      iszero\n      tag_345\n      jumpi\n        /* \"#utility.yul\":2312:2391   */\n      tag_346\n      tag_266\n      jump\t// in\n    tag_346:\n        /* \"#utility.yul\":2274:2393   */\n    tag_345:\n        /* \"#utility.yul\":2432:2433   */\n      0x00\n        /* \"#utility.yul\":2457:2510   */\n      tag_347\n        /* \"#utility.yul\":2502:2509   */\n      dup6\n        /* \"#utility.yul\":2493:2499   */\n      dup3\n        /* \"#utility.yul\":2482:2491   */\n      dup7\n        /* \"#utility.yul\":2478:2500   */\n      add\n        /* \"#utility.yul\":2457:2510   */\n      tag_274\n      jump\t// in\n    tag_347:\n        /* \"#utility.yul\":2447:2510   */\n      swap3\n      pop\n        /* \"#utility.yul\":2403:2520   */\n      pop\n        /* \"#utility.yul\":2559:2561   */\n      0x20\n        /* \"#utility.yul\":2585:2654   */\n      tag_348\n        /* \"#utility.yul\":2646:2653   */\n      dup6\n        /* \"#utility.yul\":2637:2643   */\n      dup3\n        /* \"#utility.yul\":2626:2635   */\n      dup7\n        /* \"#utility.yul\":2622:2644   */\n      add\n        /* \"#utility.yul\":2585:2654   */\n      tag_276\n      jump\t// in\n    tag_348:\n        /* \"#utility.yul\":2575:2654   */\n      swap2\n      pop\n        /* \"#utility.yul\":2530:2664   */\n      pop\n        /* \"#utility.yul\":2165:2671   */\n      swap3\n      pop\n      swap3\n      swap1\n      pop\n      jump\t// out\n        /* \"#utility.yul\":2677:2795   */\n    tag_277:\n        /* \"#utility.yul\":2764:2788   */\n      tag_350\n        /* \"#utility.yul\":2782:2787   */\n      dup2\n        /* \"#utility.yul\":2764:2788   */\n      tag_268\n      jump\t// in\n    tag_350:\n        /* \"#utility.yul\":2759:2762   */\n      dup3\n        /* \"#utility.yul\":2752:2789   */\n      mstore\n        /* \"#utility.yul\":2677:2795   */\n      pop\n      pop\n      jump\t// out\n        /* \"#utility.yul\":2801:3023   */\n    tag_38:\n        /* \"#utility.yul\":2894:2898   */\n      0x00\n        /* \"#utility.yul\":2932:2934   */\n      0x20\n        /* \"#utility.yul\":2921:2930   */\n      dup3\n        /* \"#utility.yul\":2917:2935   */\n      add\n        /* \"#utility.yul\":2909:2935   */\n      swap1\n      pop\n        /* \"#utility.yul\":2945:3016   */\n      tag_352\n        /* \"#utility.yul\":3013:3014   */\n      0x00\n        /* \"#utility.yul\":3002:3011   */\n      dup4\n        /* \"#utility.yul\":2998:3015   */\n      add\n        /* \"#utility.yul\":2989:2995   */\n      dup5\n        /* \"#utility.yul\":2945:3016   */\n      tag_277\n      jump\t// in\n    tag_352:\n        /* \"#utility.yul\":2801:3023   */\n      swap3\n      swap2\n      pop\n      pop\n      jump\t// out\n        /* \"#utility.yul\":3029:3503   */\n    tag_41:\n        /* \"#utility.yul\":3097:3103   */\n      0x00\n        /* \"#utility.yul\":3105:3111   */\n      dup1\n        /* \"#utility.yul\":3154:3156   */\n      0x40\n        /* \"#utility.yul\":3142:3151   */\n      dup4\n        /* \"#utility.yul\":3133:3140   */\n      dup6\n        /* \"#utility.yul\":3129:3152   */\n      sub\n        /* \"#utility.yul\":3125:3157   */\n      slt\n        /* \"#utility.yul\":3122:3241   */\n      iszero\n      tag_354\n      jumpi\n        /* \"#utility.yul\":3160:3239   */\n      tag_355\n      tag_266\n      jump\t// in\n    tag_355:\n        /* \"#utility.yul\":3122:3241   */\n    tag_354:\n        /* \"#utility.yul\":3280:3281   */\n      0x00\n        /* \"#utility.yul\":3305:3358   */\n      tag_356\n        /* \"#utility.yul\":3350:3357   */\n      dup6\n        /* \"#utility.yul\":3341:3347   */\n      dup3\n        /* \"#utility.yul\":3330:3339   */\n      dup7\n        /* \"#utility.yul\":3326:3348   */\n      add\n        /* \"#utility.yul\":3305:3358   */\n      tag_270\n      jump\t// in\n    tag_356:\n        /* \"#utility.yul\":3295:3358   */\n      swap3\n      pop\n        /* \"#utility.yul\":3251:3368   */\n      pop\n        /* \"#utility.yul\":3407:3409   */\n      0x20\n        /* \"#utility.yul\":3433:3486   */\n      tag_357\n        /* \"#utility.yul\":3478:3485   */\n      dup6\n        /* \"#utility.yul\":3469:3475   */\n      dup3\n        /* \"#utility.yul\":3458:3467   */\n      dup7\n        /* \"#utility.yul\":3454:3476   */\n      add\n        /* \"#utility.yul\":3433:3486   */\n      tag_274\n      jump\t// in\n    tag_357:\n        /* \"#utility.yul\":3423:3486   */\n      swap2\n      pop\n        /* \"#utility.yul\":3378:3496   */\n      pop\n        /* \"#utility.yul\":3029:3503   */\n      swap3\n      pop\n      swap3\n      swap1\n      pop\n      jump\t// out\n        /* \"#utility.yul\":3509:3646   */\n    tag_278:\n        /* \"#utility.yul\":3599:3605   */\n      0x00\n        /* \"#utility.yul\":3633:3638   */\n      dup2\n        /* \"#utility.yul\":3627:3639   */\n      mload\n        /* \"#utility.yul\":3617:3639   */\n      swap1\n      pop\n        /* \"#utility.yul\":3509:3646   */\n      swap2\n      swap1\n      pop\n      jump\t// out\n        /* \"#utility.yul\":3652:3859   */\n    tag_279:\n        /* \"#utility.yul\":3774:3785   */\n      0x00\n        /* \"#utility.yul\":3808:3814   */\n      dup3\n        /* \"#utility.yul\":3803:3806   */\n      dup3\n        /* \"#utility.yul\":3796:3815   */\n      mstore\n        /* \"#utility.yul\":3848:3852   */\n      0x20\n        /* \"#utility.yul\":3843:3846   */\n      dup3\n        /* \"#utility.yul\":3839:3853   */\n      add\n        /* \"#utility.yul\":3824:3853   */\n      swap1\n      pop\n        /* \"#utility.yul\":3652:3859   */\n      swap3\n      swap2\n      pop\n      pop\n      jump\t// out\n        /* \"#utility.yul\":3865:4020   */\n    tag_280:\n        /* \"#utility.yul\":3955:3959   */\n      0x00\n        /* \"#utility.yul\":3978:3981   */\n      dup2\n        /* \"#utility.yul\":3970:3981   */\n      swap1\n      pop\n        /* \"#utility.yul\":4008:4012   */\n      0x20\n        /* \"#utility.yul\":4003:4006   */\n      dup3\n        /* \"#utility.yul\":3999:4013   */\n      add\n        /* \"#utility.yul\":3991:4013   */\n      swap1\n      pop\n        /* \"#utility.yul\":3865:4020   */\n      swap2\n      swap1\n      pop\n      jump\t// out\n        /* \"#utility.yul\":4026:4134   */\n    tag_281:\n        /* \"#utility.yul\":4103:4127   */\n      tag_362\n        /* \"#utility.yul\":4121:4126   */\n      dup2\n        /* \"#utility.yul\":4103:4127   */\n      tag_272\n      jump\t// in\n    tag_362:\n        /* \"#utility.yul\":4098:4101   */\n      dup3\n        /* \"#utility.yul\":4091:4128   */\n      mstore\n        /* \"#utility.yul\":4026:4134   */\n      pop\n      pop\n      jump\t// out\n        /* \"#utility.yul\":4140:4248   */\n    tag_282:\n        /* \"#utility.yul\":4217:4241   */\n      tag_364\n        /* \"#utility.yul\":4235:4240   */\n      dup2\n        /* \"#utility.yul\":4217:4241   */\n      tag_268\n      jump\t// in\n    tag_364:\n        /* \"#utility.yul\":4212:4215   */\n      dup3\n        /* \"#utility.yul\":4205:4242   */\n      mstore\n        /* \"#utility.yul\":4140:4248   */\n      pop\n      pop\n      jump\t// out\n        /* \"#utility.yul\":4254:4434   */\n    tag_92:\n        /* \"#utility.yul\":4302:4379   */\n      0x4e487b7100000000000000000000000000000000000000000000000000000000\n        /* \"#utility.yul\":4299:4300   */\n      0x00\n        /* \"#utility.yul\":4292:4380   */\n      mstore\n        /* \"#utility.yul\":4399:4403   */\n      0x21\n        /* \"#utility.yul\":4396:4397   */\n      0x04\n        /* \"#utility.yul\":4389:4404   */\n      mstore\n        /* \"#utility.yul\":4423:4427   */\n      0x24\n        /* \"#utility.yul\":4420:4421   */\n      0x00\n        /* \"#utility.yul\":4413:4428   */\n      revert\n        /* \"#utility.yul\":4440:4561   */\n    tag_283:\n        /* \"#utility.yul\":4529:4530   */\n      0x03\n        /* \"#utility.yul\":4522:4527   */\n      dup2\n        /* \"#utility.yul\":4519:4531   */\n      lt\n        /* \"#utility.yul\":4509:4555   */\n      tag_367\n      jumpi\n        /* \"#utility.yul\":4535:4553   */\n      tag_368\n      tag_92\n      jump\t// in\n    tag_368:\n        /* \"#utility.yul\":4509:4555   */\n    tag_367:\n        /* \"#utility.yul\":4440:4561   */\n      pop\n      jump\t// out\n        /* \"#utility.yul\":4567:4710   */\n    tag_284:\n        /* \"#utility.yul\":4620:4627   */\n      0x00\n        /* \"#utility.yul\":4649:4654   */\n      dup2\n        /* \"#utility.yul\":4638:4654   */\n      swap1\n      pop\n        /* \"#utility.yul\":4655:4704   */\n      tag_370\n        /* \"#utility.yul\":4698:4703   */\n      dup3\n        /* \"#utility.yul\":4655:4704   */\n      tag_283\n      jump\t// in\n    tag_370:\n        /* \"#utility.yul\":4567:4710   */\n      swap2\n      swap1\n      pop\n      jump\t// out\n        /* \"#utility.yul\":4716:4859   */\n    tag_285:\n        /* \"#utility.yul\":4780:4789   */\n      0x00\n        /* \"#utility.yul\":4813:4853   */\n      tag_372\n        /* \"#utility.yul\":4847:4852   */\n      dup3\n        /* \"#utility.yul\":4813:4853   */\n      tag_284\n      jump\t// in\n    tag_372:\n        /* \"#utility.yul\":4800:4853   */\n      swap1\n      pop\n        /* \"#utility.yul\":4716:4859   */\n      swap2\n      swap1\n      pop\n      jump\t// out\n        /* \"#utility.yul\":4865:5014   */\n    tag_286:\n        /* \"#utility.yul\":4956:5007   */\n      tag_374\n        /* \"#utility.yul\":5001:5006   */\n      dup2\n        /* \"#utility.yul\":4956:5007   */\n      tag_285\n      jump\t// in\n    tag_374:\n        /* \"#utility.yul\":4951:4954   */\n      dup3\n        /* \"#utility.yul\":4944:5008   */\n      mstore\n        /* \"#utility.yul\":4865:5014   */\n      pop\n      pop\n      jump\t// out\n        /* \"#utility.yul\":5082:6120   */\n    tag_287:\n        /* \"#utility.yul\":5215:5219   */\n      0xa0\n        /* \"#utility.yul\":5210:5213   */\n      dup3\n        /* \"#utility.yul\":5206:5220   */\n      add\n        /* \"#utility.yul\":5302:5306   */\n      0x00\n        /* \"#utility.yul\":5295:5300   */\n      dup3\n        /* \"#utility.yul\":5291:5307   */\n      add\n        /* \"#utility.yul\":5285:5308   */\n      mload\n        /* \"#utility.yul\":5321:5384   */\n      tag_376\n        /* \"#utility.yul\":5378:5382   */\n      0x00\n        /* \"#utility.yul\":5373:5376   */\n      dup6\n        /* \"#utility.yul\":5369:5383   */\n      add\n        /* \"#utility.yul\":5355:5367   */\n      dup3\n        /* \"#utility.yul\":5321:5384   */\n      tag_281\n      jump\t// in\n    tag_376:\n        /* \"#utility.yul\":5230:5394   */\n      pop\n        /* \"#utility.yul\":5474:5478   */\n      0x20\n        /* \"#utility.yul\":5467:5472   */\n      dup3\n        /* \"#utility.yul\":5463:5479   */\n      add\n        /* \"#utility.yul\":5457:5480   */\n      mload\n        /* \"#utility.yul\":5493:5556   */\n      tag_377\n        /* \"#utility.yul\":5550:5554   */\n      0x20\n        /* \"#utility.yul\":5545:5548   */\n      dup6\n        /* \"#utility.yul\":5541:5555   */\n      add\n        /* \"#utility.yul\":5527:5539   */\n      dup3\n        /* \"#utility.yul\":5493:5556   */\n      tag_281\n      jump\t// in\n    tag_377:\n        /* \"#utility.yul\":5404:5566   */\n      pop\n        /* \"#utility.yul\":5650:5654   */\n      0x40\n        /* \"#utility.yul\":5643:5648   */\n      dup3\n        /* \"#utility.yul\":5639:5655   */\n      add\n        /* \"#utility.yul\":5633:5656   */\n      mload\n        /* \"#utility.yul\":5669:5732   */\n      tag_378\n        /* \"#utility.yul\":5726:5730   */\n      0x40\n        /* \"#utility.yul\":5721:5724   */\n      dup6\n        /* \"#utility.yul\":5717:5731   */\n      add\n        /* \"#utility.yul\":5703:5715   */\n      dup3\n        /* \"#utility.yul\":5669:5732   */\n      tag_282\n      jump\t// in\n    tag_378:\n        /* \"#utility.yul\":5576:5742   */\n      pop\n        /* \"#utility.yul\":5831:5835   */\n      0x60\n        /* \"#utility.yul\":5824:5829   */\n      dup3\n        /* \"#utility.yul\":5820:5836   */\n      add\n        /* \"#utility.yul\":5814:5837   */\n      mload\n        /* \"#utility.yul\":5850:5913   */\n      tag_379\n        /* \"#utility.yul\":5907:5911   */\n      0x60\n        /* \"#utility.yul\":5902:5905   */\n      dup6\n        /* \"#utility.yul\":5898:5912   */\n      add\n        /* \"#utility.yul\":5884:5896   */\n      dup3\n        /* \"#utility.yul\":5850:5913   */\n      tag_282\n      jump\t// in\n    tag_379:\n        /* \"#utility.yul\":5752:5923   */\n      pop\n        /* \"#utility.yul\":6007:6011   */\n      0x80\n        /* \"#utility.yul\":6000:6005   */\n      dup3\n        /* \"#utility.yul\":5996:6012   */\n      add\n        /* \"#utility.yul\":5990:6013   */\n      mload\n        /* \"#utility.yul\":6026:6103   */\n      tag_380\n        /* \"#utility.yul\":6097:6101   */\n      0x80\n        /* \"#utility.yul\":6092:6095   */\n      dup6\n        /* \"#utility.yul\":6088:6102   */\n      add\n        /* \"#utility.yul\":6074:6086   */\n      dup3\n        /* \"#utility.yul\":6026:6103   */\n      tag_286\n      jump\t// in\n    tag_380:\n        /* \"#utility.yul\":5933:6113   */\n      pop\n        /* \"#utility.yul\":5184:6120   */\n      pop\n        /* \"#utility.yul\":5082:6120   */\n      pop\n      pop\n      jump\t// out\n        /* \"#utility.yul\":6126:6397   */\n    tag_288:\n        /* \"#utility.yul\":6241:6251   */\n      0x00\n        /* \"#utility.yul\":6262:6354   */\n      tag_382\n        /* \"#utility.yul\":6350:6353   */\n      dup4\n        /* \"#utility.yul\":6342:6348   */\n      dup4\n        /* \"#utility.yul\":6262:6354   */\n      tag_287\n      jump\t// in\n    tag_382:\n        /* \"#utility.yul\":6386:6390   */\n      0xa0\n        /* \"#utility.yul\":6381:6384   */\n      dup4\n        /* \"#utility.yul\":6377:6391   */\n      add\n        /* \"#utility.yul\":6363:6391   */\n      swap1\n      pop\n        /* \"#utility.yul\":6126:6397   */\n      swap3\n      swap2\n      pop\n      pop\n      jump\t// out\n        /* \"#utility.yul\":6403:6539   */\n    tag_289:\n        /* \"#utility.yul\":6496:6500   */\n      0x00\n        /* \"#utility.yul\":6528:6532   */\n      0x20\n        /* \"#utility.yul\":6523:6526   */\n      dup3\n        /* \"#utility.yul\":6519:6533   */\n      add\n        /* \"#utility.yul\":6511:6533   */\n      swap1\n      pop\n        /* \"#utility.yul\":6403:6539   */\n      swap2\n      swap1\n      pop\n      jump\t// out\n        /* \"#utility.yul\":6611:7527   */\n    tag_290:\n        /* \"#utility.yul\":6776:6779   */\n      0x00\n        /* \"#utility.yul\":6805:6882   */\n      tag_385\n        /* \"#utility.yul\":6876:6881   */\n      dup3\n        /* \"#utility.yul\":6805:6882   */\n      tag_278\n      jump\t// in\n    tag_385:\n        /* \"#utility.yul\":6898:7007   */\n      tag_386\n        /* \"#utility.yul\":7000:7006   */\n      dup2\n        /* \"#utility.yul\":6995:6998   */\n      dup6\n        /* \"#utility.yul\":6898:7007   */\n      tag_279\n      jump\t// in\n    tag_386:\n        /* \"#utility.yul\":6891:7007   */\n      swap4\n      pop\n        /* \"#utility.yul\":7031:7110   */\n      tag_387\n        /* \"#utility.yul\":7104:7109   */\n      dup4\n        /* \"#utility.yul\":7031:7110   */\n      tag_280\n      jump\t// in\n    tag_387:\n        /* \"#utility.yul\":7133:7140   */\n      dup1\n        /* \"#utility.yul\":7164:7165   */\n      0x00\n        /* \"#utility.yul\":7149:7502   */\n    tag_388:\n        /* \"#utility.yul\":7174:7180   */\n      dup4\n        /* \"#utility.yul\":7171:7172   */\n      dup2\n        /* \"#utility.yul\":7168:7181   */\n      lt\n        /* \"#utility.yul\":7149:7502   */\n      iszero\n      tag_390\n      jumpi\n        /* \"#utility.yul\":7250:7256   */\n      dup2\n        /* \"#utility.yul\":7244:7257   */\n      mload\n        /* \"#utility.yul\":7277:7386   */\n      tag_391\n        /* \"#utility.yul\":7382:7385   */\n      dup9\n        /* \"#utility.yul\":7367:7380   */\n      dup3\n        /* \"#utility.yul\":7277:7386   */\n      tag_288\n      jump\t// in\n    tag_391:\n        /* \"#utility.yul\":7270:7386   */\n      swap8\n      pop\n        /* \"#utility.yul\":7409:7492   */\n      tag_392\n        /* \"#utility.yul\":7485:7491   */\n      dup4\n        /* \"#utility.yul\":7409:7492   */\n      tag_289\n      jump\t// in\n    tag_392:\n        /* \"#utility.yul\":7399:7492   */\n      swap3\n      pop\n        /* \"#utility.yul\":7209:7502   */\n      pop\n        /* \"#utility.yul\":7196:7197   */\n      0x01\n        /* \"#utility.yul\":7193:7194   */\n      dup2\n        /* \"#utility.yul\":7189:7198   */\n      add\n        /* \"#utility.yul\":7184:7198   */\n      swap1\n      pop\n        /* \"#utility.yul\":7149:7502   */\n      jump(tag_388)\n    tag_390:\n        /* \"#utility.yul\":7153:7167   */\n      pop\n        /* \"#utility.yul\":7518:7521   */\n      dup6\n        /* \"#utility.yul\":7511:7521   */\n      swap4\n      pop\n        /* \"#utility.yul\":6781:7527   */\n      pop\n      pop\n      pop\n        /* \"#utility.yul\":6611:7527   */\n      swap3\n      swap2\n      pop\n      pop\n      jump\t// out\n        /* \"#utility.yul\":7533:7998   */\n    tag_52:\n        /* \"#utility.yul\":7722:7726   */\n      0x00\n        /* \"#utility.yul\":7760:7762   */\n      0x20\n        /* \"#utility.yul\":7749:7758   */\n      dup3\n        /* \"#utility.yul\":7745:7763   */\n      add\n        /* \"#utility.yul\":7737:7763   */\n      swap1\n      pop\n        /* \"#utility.yul\":7809:7818   */\n      dup2\n        /* \"#utility.yul\":7803:7807   */\n      dup2\n        /* \"#utility.yul\":7799:7819   */\n      sub\n        /* \"#utility.yul\":7795:7796   */\n      0x00\n        /* \"#utility.yul\":7784:7793   */\n      dup4\n        /* \"#utility.yul\":7780:7797   */\n      add\n        /* \"#utility.yul\":7773:7820   */\n      mstore\n        /* \"#utility.yul\":7837:7991   */\n      tag_394\n        /* \"#utility.yul\":7986:7990   */\n      dup2\n        /* \"#utility.yul\":7977:7983   */\n      dup5\n        /* \"#utility.yul\":7837:7991   */\n      tag_290\n      jump\t// in\n    tag_394:\n        /* \"#utility.yul\":7829:7991   */\n      swap1\n      pop\n        /* \"#utility.yul\":7533:7998   */\n      swap3\n      swap2\n      pop\n      pop\n      jump\t// out\n        /* \"#utility.yul\":8004:8122   */\n    tag_291:\n        /* \"#utility.yul\":8091:8115   */\n      tag_396\n        /* \"#utility.yul\":8109:8114   */\n      dup2\n        /* \"#utility.yul\":8091:8115   */\n      tag_272\n      jump\t// in\n    tag_396:\n        /* \"#utility.yul\":8086:8089   */\n      dup3\n        /* \"#utility.yul\":8079:8116   */\n      mstore\n        /* \"#utility.yul\":8004:8122   */\n      pop\n      pop\n      jump\t// out\n        /* \"#utility.yul\":8128:8350   */\n    tag_56:\n        /* \"#utility.yul\":8221:8225   */\n      0x00\n        /* \"#utility.yul\":8259:8261   */\n      0x20\n        /* \"#utility.yul\":8248:8257   */\n      dup3\n        /* \"#utility.yul\":8244:8262   */\n      add\n        /* \"#utility.yul\":8236:8262   */\n      swap1\n      pop\n        /* \"#utility.yul\":8272:8343   */\n      tag_398\n        /* \"#utility.yul\":8340:8341   */\n      0x00\n        /* \"#utility.yul\":8329:8338   */\n      dup4\n        /* \"#utility.yul\":8325:8342   */\n      add\n        /* \"#utility.yul\":8316:8322   */\n      dup5\n        /* \"#utility.yul\":8272:8343   */\n      tag_291\n      jump\t// in\n    tag_398:\n        /* \"#utility.yul\":8128:8350   */\n      swap3\n      swap2\n      pop\n      pop\n      jump\t// out\n        /* \"#utility.yul\":8356:8830   */\n    tag_59:\n        /* \"#utility.yul\":8424:8430   */\n      0x00\n        /* \"#utility.yul\":8432:8438   */\n      dup1\n        /* \"#utility.yul\":8481:8483   */\n      0x40\n        /* \"#utility.yul\":8469:8478   */\n      dup4\n        /* \"#utility.yul\":8460:8467   */\n      dup6\n        /* \"#utility.yul\":8456:8479   */\n      sub\n        /* \"#utility.yul\":8452:8484   */\n      slt\n        /* \"#utility.yul\":8449:8568   */\n      iszero\n      tag_400\n      jumpi\n        /* \"#utility.yul\":8487:8566   */\n      tag_401\n      tag_266\n      jump\t// in\n    tag_401:\n        /* \"#utility.yul\":8449:8568   */\n    tag_400:\n        /* \"#utility.yul\":8607:8608   */\n      0x00\n        /* \"#utility.yul\":8632:8685   */\n      tag_402\n        /* \"#utility.yul\":8677:8684   */\n      dup6\n        /* \"#utility.yul\":8668:8674   */\n      dup3\n        /* \"#utility.yul\":8657:8666   */\n      dup7\n        /* \"#utility.yul\":8653:8675   */\n      add\n        /* \"#utility.yul\":8632:8685   */\n      tag_274\n      jump\t// in\n    tag_402:\n        /* \"#utility.yul\":8622:8685   */\n      swap3\n      pop\n        /* \"#utility.yul\":8578:8695   */\n      pop\n        /* \"#utility.yul\":8734:8736   */\n      0x20\n        /* \"#utility.yul\":8760:8813   */\n      tag_403\n        /* \"#utility.yul\":8805:8812   */\n      dup6\n        /* \"#utility.yul\":8796:8802   */\n      dup3\n        /* \"#utility.yul\":8785:8794   */\n      dup7\n        /* \"#utility.yul\":8781:8803   */\n      add\n        /* \"#utility.yul\":8760:8813   */\n      tag_270\n      jump\t// in\n    tag_403:\n        /* \"#utility.yul\":8750:8813   */\n      swap2\n      pop\n        /* \"#utility.yul\":8705:8823   */\n      pop\n        /* \"#utility.yul\":8356:8830   */\n      swap3\n      pop\n      swap3\n      swap1\n      pop\n      jump\t// out\n        /* \"#utility.yul\":8836:8995   */\n    tag_292:\n        /* \"#utility.yul\":8937:8988   */\n      tag_405\n        /* \"#utility.yul\":8982:8987   */\n      dup2\n        /* \"#utility.yul\":8937:8988   */\n      tag_285\n      jump\t// in\n    tag_405:\n        /* \"#utility.yul\":8932:8935   */\n      dup3\n        /* \"#utility.yul\":8925:8989   */\n      mstore\n        /* \"#utility.yul\":8836:8995   */\n      pop\n      pop\n      jump\t// out\n        /* \"#utility.yul\":9001:9693   */\n    tag_73:\n        /* \"#utility.yul\":9220:9224   */\n      0x00\n        /* \"#utility.yul\":9258:9261   */\n      0xa0\n        /* \"#utility.yul\":9247:9256   */\n      dup3\n        /* \"#utility.yul\":9243:9262   */\n      add\n        /* \"#utility.yul\":9235:9262   */\n      swap1\n      pop\n        /* \"#utility.yul\":9272:9343   */\n      tag_407\n        /* \"#utility.yul\":9340:9341   */\n      0x00\n        /* \"#utility.yul\":9329:9338   */\n      dup4\n        /* \"#utility.yul\":9325:9342   */\n      add\n        /* \"#utility.yul\":9316:9322   */\n      dup9\n        /* \"#utility.yul\":9272:9343   */\n      tag_291\n      jump\t// in\n    tag_407:\n        /* \"#utility.yul\":9353:9425   */\n      tag_408\n        /* \"#utility.yul\":9421:9423   */\n      0x20\n        /* \"#utility.yul\":9410:9419   */\n      dup4\n        /* \"#utility.yul\":9406:9424   */\n      add\n        /* \"#utility.yul\":9397:9403   */\n      dup8\n        /* \"#utility.yul\":9353:9425   */\n      tag_291\n      jump\t// in\n    tag_408:\n        /* \"#utility.yul\":9435:9507   */\n      tag_409\n        /* \"#utility.yul\":9503:9505   */\n      0x40\n        /* \"#utility.yul\":9492:9501   */\n      dup4\n        /* \"#utility.yul\":9488:9506   */\n      add\n        /* \"#utility.yul\":9479:9485   */\n      dup7\n        /* \"#utility.yul\":9435:9507   */\n      tag_277\n      jump\t// in\n    tag_409:\n        /* \"#utility.yul\":9517:9589   */\n      tag_410\n        /* \"#utility.yul\":9585:9587   */\n      0x60\n        /* \"#utility.yul\":9574:9583   */\n      dup4\n        /* \"#utility.yul\":9570:9588   */\n      add\n        /* \"#utility.yul\":9561:9567   */\n      dup6\n        /* \"#utility.yul\":9517:9589   */\n      tag_277\n      jump\t// in\n    tag_410:\n        /* \"#utility.yul\":9599:9686   */\n      tag_411\n        /* \"#utility.yul\":9681:9684   */\n      0x80\n        /* \"#utility.yul\":9670:9679   */\n      dup4\n        /* \"#utility.yul\":9666:9685   */\n      add\n        /* \"#utility.yul\":9657:9663   */\n      dup5\n        /* \"#utility.yul\":9599:9686   */\n      tag_292\n      jump\t// in\n    tag_411:\n        /* \"#utility.yul\":9001:9693   */\n      swap7\n      swap6\n      pop\n      pop\n      pop\n      pop\n      pop\n      pop\n      jump\t// out\n        /* \"#utility.yul\":9699:9759   */\n    tag_293:\n        /* \"#utility.yul\":9727:9730   */\n      0x00\n        /* \"#utility.yul\":9748:9753   */\n      dup2\n        /* \"#utility.yul\":9741:9753   */\n      swap1\n      pop\n        /* \"#utility.yul\":9699:9759   */\n      swap2\n      swap1\n      pop\n      jump\t// out\n        /* \"#utility.yul\":9765:9907   */\n    tag_294:\n        /* \"#utility.yul\":9815:9824   */\n      0x00\n        /* \"#utility.yul\":9848:9901   */\n      tag_414\n        /* \"#utility.yul\":9866:9900   */\n      tag_415\n        /* \"#utility.yul\":9875:9899   */\n      tag_416\n        /* \"#utility.yul\":9893:9898   */\n      dup5\n        /* \"#utility.yul\":9875:9899   */\n      tag_271\n      jump\t// in\n    tag_416:\n        /* \"#utility.yul\":9866:9900   */\n      tag_293\n      jump\t// in\n    tag_415:\n        /* \"#utility.yul\":9848:9901   */\n      tag_271\n      jump\t// in\n    tag_414:\n        /* \"#utility.yul\":9835:9901   */\n      swap1\n      pop\n        /* \"#utility.yul\":9765:9907   */\n      swap2\n      swap1\n      pop\n      jump\t// out\n        /* \"#utility.yul\":9913:10039   */\n    tag_295:\n        /* \"#utility.yul\":9963:9972   */\n      0x00\n        /* \"#utility.yul\":9996:10033   */\n      tag_418\n        /* \"#utility.yul\":10027:10032   */\n      dup3\n        /* \"#utility.yul\":9996:10033   */\n      tag_294\n      jump\t// in\n    tag_418:\n        /* \"#utility.yul\":9983:10033   */\n      swap1\n      pop\n        /* \"#utility.yul\":9913:10039   */\n      swap2\n      swap1\n      pop\n      jump\t// out\n        /* \"#utility.yul\":10045:10185   */\n    tag_296:\n        /* \"#utility.yul\":10109:10118   */\n      0x00\n        /* \"#utility.yul\":10142:10179   */\n      tag_420\n        /* \"#utility.yul\":10173:10178   */\n      dup3\n        /* \"#utility.yul\":10142:10179   */\n      tag_295\n      jump\t// in\n    tag_420:\n        /* \"#utility.yul\":10129:10179   */\n      swap1\n      pop\n        /* \"#utility.yul\":10045:10185   */\n      swap2\n      swap1\n      pop\n      jump\t// out\n        /* \"#utility.yul\":10191:10350   */\n    tag_297:\n        /* \"#utility.yul\":10292:10343   */\n      tag_422\n        /* \"#utility.yul\":10337:10342   */\n      dup2\n        /* \"#utility.yul\":10292:10343   */\n      tag_296\n      jump\t// in\n    tag_422:\n        /* \"#utility.yul\":10287:10290   */\n      dup3\n        /* \"#utility.yul\":10280:10344   */\n      mstore\n        /* \"#utility.yul\":10191:10350   */\n      pop\n      pop\n      jump\t// out\n        /* \"#utility.yul\":10356:10606   */\n    tag_83:\n        /* \"#utility.yul\":10463:10467   */\n      0x00\n        /* \"#utility.yul\":10501:10503   */\n      0x20\n        /* \"#utility.yul\":10490:10499   */\n      dup3\n        /* \"#utility.yul\":10486:10504   */\n      add\n        /* \"#utility.yul\":10478:10504   */\n      swap1\n      pop\n        /* \"#utility.yul\":10514:10599   */\n      tag_424\n        /* \"#utility.yul\":10596:10597   */\n      0x00\n        /* \"#utility.yul\":10585:10594   */\n      dup4\n        /* \"#utility.yul\":10581:10598   */\n      add\n        /* \"#utility.yul\":10572:10578   */\n      dup5\n        /* \"#utility.yul\":10514:10599   */\n      tag_297\n      jump\t// in\n    tag_424:\n        /* \"#utility.yul\":10356:10606   */\n      swap3\n      swap2\n      pop\n      pop\n      jump\t// out\n        /* \"#utility.yul\":10612:10781   */\n    tag_298:\n        /* \"#utility.yul\":10696:10707   */\n      0x00\n        /* \"#utility.yul\":10730:10736   */\n      dup3\n        /* \"#utility.yul\":10725:10728   */\n      dup3\n        /* \"#utility.yul\":10718:10737   */\n      mstore\n        /* \"#utility.yul\":10770:10774   */\n      0x20\n        /* \"#utility.yul\":10765:10768   */\n      dup3\n        /* \"#utility.yul\":10761:10775   */\n      add\n        /* \"#utility.yul\":10746:10775   */\n      swap1\n      pop\n        /* \"#utility.yul\":10612:10781   */\n      swap3\n      swap2\n      pop\n      pop\n      jump\t// out\n        /* \"#utility.yul\":10787:10960   */\n    tag_299:\n        /* \"#utility.yul\":10927:10952   */\n      0x596f7574206d757374206265207468652073656e646572000000000000000000\n        /* \"#utility.yul\":10923:10924   */\n      0x00\n        /* \"#utility.yul\":10915:10921   */\n      dup3\n        /* \"#utility.yul\":10911:10925   */\n      add\n        /* \"#utility.yul\":10904:10953   */\n      mstore\n        /* \"#utility.yul\":10787:10960   */\n      pop\n      jump\t// out\n        /* \"#utility.yul\":10966:11332   */\n    tag_300:\n        /* \"#utility.yul\":11108:11111   */\n      0x00\n        /* \"#utility.yul\":11129:11196   */\n      tag_428\n        /* \"#utility.yul\":11193:11195   */\n      0x17\n        /* \"#utility.yul\":11188:11191   */\n      dup4\n        /* \"#utility.yul\":11129:11196   */\n      tag_298\n      jump\t// in\n    tag_428:\n        /* \"#utility.yul\":11122:11196   */\n      swap2\n      pop\n        /* \"#utility.yul\":11205:11298   */\n      tag_429\n        /* \"#utility.yul\":11294:11297   */\n      dup3\n        /* \"#utility.yul\":11205:11298   */\n      tag_299\n      jump\t// in\n    tag_429:\n        /* \"#utility.yul\":11323:11325   */\n      0x20\n        /* \"#utility.yul\":11318:11321   */\n      dup3\n        /* \"#utility.yul\":11314:11326   */\n      add\n        /* \"#utility.yul\":11307:11326   */\n      swap1\n      pop\n        /* \"#utility.yul\":10966:11332   */\n      swap2\n      swap1\n      pop\n      jump\t// out\n        /* \"#utility.yul\":11338:11757   */\n    tag_89:\n        /* \"#utility.yul\":11504:11508   */\n      0x00\n        /* \"#utility.yul\":11542:11544   */\n      0x20\n        /* \"#utility.yul\":11531:11540   */\n      dup3\n        /* \"#utility.yul\":11527:11545   */\n      add\n        /* \"#utility.yul\":11519:11545   */\n      swap1\n      pop\n        /* \"#utility.yul\":11591:11600   */\n      dup2\n        /* \"#utility.yul\":11585:11589   */\n      dup2\n        /* \"#utility.yul\":11581:11601   */\n      sub\n        /* \"#utility.yul\":11577:11578   */\n      0x00\n        /* \"#utility.yul\":11566:11575   */\n      dup4\n        /* \"#utility.yul\":11562:11579   */\n      add\n        /* \"#utility.yul\":11555:11602   */\n      mstore\n        /* \"#utility.yul\":11619:11750   */\n      tag_431\n        /* \"#utility.yul\":11745:11749   */\n      dup2\n        /* \"#utility.yul\":11619:11750   */\n      tag_300\n      jump\t// in\n    tag_431:\n        /* \"#utility.yul\":11611:11750   */\n      swap1\n      pop\n        /* \"#utility.yul\":11338:11757   */\n      swap2\n      swap1\n      pop\n      jump\t// out\n        /* \"#utility.yul\":11763:11934   */\n    tag_301:\n        /* \"#utility.yul\":11903:11926   */\n      0x507265737461206973206e6f742077616974696e670000000000000000000000\n        /* \"#utility.yul\":11899:11900   */\n      0x00\n        /* \"#utility.yul\":11891:11897   */\n      dup3\n        /* \"#utility.yul\":11887:11901   */\n      add\n        /* \"#utility.yul\":11880:11927   */\n      mstore\n        /* \"#utility.yul\":11763:11934   */\n      pop\n      jump\t// out\n        /* \"#utility.yul\":11940:12306   */\n    tag_302:\n        /* \"#utility.yul\":12082:12085   */\n      0x00\n        /* \"#utility.yul\":12103:12170   */\n      tag_434\n        /* \"#utility.yul\":12167:12169   */\n      0x15\n        /* \"#utility.yul\":12162:12165   */\n      dup4\n        /* \"#utility.yul\":12103:12170   */\n      tag_298\n      jump\t// in\n    tag_434:\n        /* \"#utility.yul\":12096:12170   */\n      swap2\n      pop\n        /* \"#utility.yul\":12179:12272   */\n      tag_435\n        /* \"#utility.yul\":12268:12271   */\n      dup3\n        /* \"#utility.yul\":12179:12272   */\n      tag_301\n      jump\t// in\n    tag_435:\n        /* \"#utility.yul\":12297:12299   */\n      0x20\n        /* \"#utility.yul\":12292:12295   */\n      dup3\n        /* \"#utility.yul\":12288:12300   */\n      add\n        /* \"#utility.yul\":12281:12300   */\n      swap1\n      pop\n        /* \"#utility.yul\":11940:12306   */\n      swap2\n      swap1\n      pop\n      jump\t// out\n        /* \"#utility.yul\":12312:12731   */\n    tag_97:\n        /* \"#utility.yul\":12478:12482   */\n      0x00\n        /* \"#utility.yul\":12516:12518   */\n      0x20\n        /* \"#utility.yul\":12505:12514   */\n      dup3\n        /* \"#utility.yul\":12501:12519   */\n      add\n        /* \"#utility.yul\":12493:12519   */\n      swap1\n      pop\n        /* \"#utility.yul\":12565:12574   */\n      dup2\n        /* \"#utility.yul\":12559:12563   */\n      dup2\n        /* \"#utility.yul\":12555:12575   */\n      sub\n        /* \"#utility.yul\":12551:12552   */\n      0x00\n        /* \"#utility.yul\":12540:12549   */\n      dup4\n        /* \"#utility.yul\":12536:12553   */\n      add\n        /* \"#utility.yul\":12529:12576   */\n      mstore\n        /* \"#utility.yul\":12593:12724   */\n      tag_437\n        /* \"#utility.yul\":12719:12723   */\n      dup2\n        /* \"#utility.yul\":12593:12724   */\n      tag_302\n      jump\t// in\n    tag_437:\n        /* \"#utility.yul\":12585:12724   */\n      swap1\n      pop\n        /* \"#utility.yul\":12312:12731   */\n      swap2\n      swap1\n      pop\n      jump\t// out\n        /* \"#utility.yul\":12737:12917   */\n    tag_303:\n        /* \"#utility.yul\":12785:12862   */\n      0x4e487b7100000000000000000000000000000000000000000000000000000000\n        /* \"#utility.yul\":12782:12783   */\n      0x00\n        /* \"#utility.yul\":12775:12863   */\n      mstore\n        /* \"#utility.yul\":12882:12886   */\n      0x11\n        /* \"#utility.yul\":12879:12880   */\n      0x04\n        /* \"#utility.yul\":12872:12887   */\n      mstore\n        /* \"#utility.yul\":12906:12910   */\n      0x24\n        /* \"#utility.yul\":12903:12904   */\n      0x00\n        /* \"#utility.yul\":12896:12911   */\n      revert\n        /* \"#utility.yul\":12923:13117   */\n    tag_99:\n        /* \"#utility.yul\":12963:12967   */\n      0x00\n        /* \"#utility.yul\":12983:13003   */\n      tag_440\n        /* \"#utility.yul\":13001:13002   */\n      dup3\n        /* \"#utility.yul\":12983:13003   */\n      tag_268\n      jump\t// in\n    tag_440:\n        /* \"#utility.yul\":12978:13003   */\n      swap2\n      pop\n        /* \"#utility.yul\":13017:13037   */\n      tag_441\n        /* \"#utility.yul\":13035:13036   */\n      dup4\n        /* \"#utility.yul\":13017:13037   */\n      tag_268\n      jump\t// in\n    tag_441:\n        /* \"#utility.yul\":13012:13037   */\n      swap3\n      pop\n        /* \"#utility.yul\":13061:13062   */\n      dup3\n        /* \"#utility.yul\":13058:13059   */\n      dup3\n        /* \"#utility.yul\":13054:13063   */\n      sub\n        /* \"#utility.yul\":13046:13063   */\n      swap1\n      pop\n        /* \"#utility.yul\":13085:13086   */\n      dup2\n        /* \"#utility.yul\":13079:13083   */\n      dup2\n        /* \"#utility.yul\":13076:13087   */\n      gt\n        /* \"#utility.yul\":13073:13110   */\n      iszero\n      tag_442\n      jumpi\n        /* \"#utility.yul\":13090:13108   */\n      tag_443\n      tag_303\n      jump\t// in\n    tag_443:\n        /* \"#utility.yul\":13073:13110   */\n    tag_442:\n        /* \"#utility.yul\":12923:13117   */\n      swap3\n      swap2\n      pop\n      pop\n      jump\t// out\n        /* \"#utility.yul\":13123:13455   */\n    tag_101:\n        /* \"#utility.yul\":13244:13248   */\n      0x00\n        /* \"#utility.yul\":13282:13284   */\n      0x40\n        /* \"#utility.yul\":13271:13280   */\n      dup3\n        /* \"#utility.yul\":13267:13285   */\n      add\n        /* \"#utility.yul\":13259:13285   */\n      swap1\n      pop\n        /* \"#utility.yul\":13295:13366   */\n      tag_445\n        /* \"#utility.yul\":13363:13364   */\n      0x00\n        /* \"#utility.yul\":13352:13361   */\n      dup4\n        /* \"#utility.yul\":13348:13365   */\n      add\n        /* \"#utility.yul\":13339:13345   */\n      dup6\n        /* \"#utility.yul\":13295:13366   */\n      tag_291\n      jump\t// in\n    tag_445:\n        /* \"#utility.yul\":13376:13448   */\n      tag_446\n        /* \"#utility.yul\":13444:13446   */\n      0x20\n        /* \"#utility.yul\":13433:13442   */\n      dup4\n        /* \"#utility.yul\":13429:13447   */\n      add\n        /* \"#utility.yul\":13420:13426   */\n      dup5\n        /* \"#utility.yul\":13376:13448   */\n      tag_277\n      jump\t// in\n    tag_446:\n        /* \"#utility.yul\":13123:13455   */\n      swap4\n      swap3\n      pop\n      pop\n      pop\n      jump\t// out\n        /* \"#utility.yul\":13461:13551   */\n    tag_304:\n        /* \"#utility.yul\":13495:13502   */\n      0x00\n        /* \"#utility.yul\":13538:13543   */\n      dup2\n        /* \"#utility.yul\":13531:13544   */\n      iszero\n        /* \"#utility.yul\":13524:13545   */\n      iszero\n        /* \"#utility.yul\":13513:13545   */\n      swap1\n      pop\n        /* \"#utility.yul\":13461:13551   */\n      swap2\n      swap1\n      pop\n      jump\t// out\n        /* \"#utility.yul\":13557:13673   */\n    tag_305:\n        /* \"#utility.yul\":13627:13648   */\n      tag_449\n        /* \"#utility.yul\":13642:13647   */\n      dup2\n        /* \"#utility.yul\":13627:13648   */\n      tag_304\n      jump\t// in\n    tag_449:\n        /* \"#utility.yul\":13620:13625   */\n      dup2\n        /* \"#utility.yul\":13617:13649   */\n      eq\n        /* \"#utility.yul\":13607:13667   */\n      tag_450\n      jumpi\n        /* \"#utility.yul\":13663:13664   */\n      0x00\n        /* \"#utility.yul\":13660:13661   */\n      dup1\n        /* \"#utility.yul\":13653:13665   */\n      revert\n        /* \"#utility.yul\":13607:13667   */\n    tag_450:\n        /* \"#utility.yul\":13557:13673   */\n      pop\n      jump\t// out\n        /* \"#utility.yul\":13679:13816   */\n    tag_306:\n        /* \"#utility.yul\":13733:13738   */\n      0x00\n        /* \"#utility.yul\":13764:13770   */\n      dup2\n        /* \"#utility.yul\":13758:13771   */\n      mload\n        /* \"#utility.yul\":13749:13771   */\n      swap1\n      pop\n        /* \"#utility.yul\":13780:13810   */\n      tag_452\n        /* \"#utility.yul\":13804:13809   */\n      dup2\n        /* \"#utility.yul\":13780:13810   */\n      tag_305\n      jump\t// in\n    tag_452:\n        /* \"#utility.yul\":13679:13816   */\n      swap3\n      swap2\n      pop\n      pop\n      jump\t// out\n        /* \"#utility.yul\":13822:14167   */\n    tag_105:\n        /* \"#utility.yul\":13889:13895   */\n      0x00\n        /* \"#utility.yul\":13938:13940   */\n      0x20\n        /* \"#utility.yul\":13926:13935   */\n      dup3\n        /* \"#utility.yul\":13917:13924   */\n      dup5\n        /* \"#utility.yul\":13913:13936   */\n      sub\n        /* \"#utility.yul\":13909:13941   */\n      slt\n        /* \"#utility.yul\":13906:14025   */\n      iszero\n      tag_454\n      jumpi\n        /* \"#utility.yul\":13944:14023   */\n      tag_455\n      tag_266\n      jump\t// in\n    tag_455:\n        /* \"#utility.yul\":13906:14025   */\n    tag_454:\n        /* \"#utility.yul\":14064:14065   */\n      0x00\n        /* \"#utility.yul\":14089:14150   */\n      tag_456\n        /* \"#utility.yul\":14142:14149   */\n      dup5\n        /* \"#utility.yul\":14133:14139   */\n      dup3\n        /* \"#utility.yul\":14122:14131   */\n      dup6\n        /* \"#utility.yul\":14118:14140   */\n      add\n        /* \"#utility.yul\":14089:14150   */\n      tag_306\n      jump\t// in\n    tag_456:\n        /* \"#utility.yul\":14079:14150   */\n      swap2\n      pop\n        /* \"#utility.yul\":14035:14160   */\n      pop\n        /* \"#utility.yul\":13822:14167   */\n      swap3\n      swap2\n      pop\n      pop\n      jump\t// out\n        /* \"#utility.yul\":14173:14353   */\n    tag_128:\n        /* \"#utility.yul\":14221:14298   */\n      0x4e487b7100000000000000000000000000000000000000000000000000000000\n        /* \"#utility.yul\":14218:14219   */\n      0x00\n        /* \"#utility.yul\":14211:14299   */\n      mstore\n        /* \"#utility.yul\":14318:14322   */\n      0x32\n        /* \"#utility.yul\":14315:14316   */\n      0x04\n        /* \"#utility.yul\":14308:14323   */\n      mstore\n        /* \"#utility.yul\":14342:14346   */\n      0x24\n        /* \"#utility.yul\":14339:14340   */\n      0x00\n        /* \"#utility.yul\":14332:14347   */\n      revert\n        /* \"#utility.yul\":14359:14592   */\n    tag_134:\n        /* \"#utility.yul\":14398:14401   */\n      0x00\n        /* \"#utility.yul\":14421:14445   */\n      tag_459\n        /* \"#utility.yul\":14439:14444   */\n      dup3\n        /* \"#utility.yul\":14421:14445   */\n      tag_268\n      jump\t// in\n    tag_459:\n        /* \"#utility.yul\":14412:14445   */\n      swap2\n      pop\n        /* \"#utility.yul\":14467:14533   */\n      0xffffffffffffffffffffffffffffffffffffffffffffffffffffffffffffffff\n        /* \"#utility.yul\":14460:14465   */\n      dup3\n        /* \"#utility.yul\":14457:14534   */\n      sub\n        /* \"#utility.yul\":14454:14557   */\n      tag_460\n      jumpi\n        /* \"#utility.yul\":14537:14555   */\n      tag_461\n      tag_303\n      jump\t// in\n    tag_461:\n        /* \"#utility.yul\":14454:14557   */\n    tag_460:\n        /* \"#utility.yul\":14584:14585   */\n      0x01\n        /* \"#utility.yul\":14577:14582   */\n      dup3\n        /* \"#utility.yul\":14573:14586   */\n      add\n        /* \"#utility.yul\":14566:14586   */\n      swap1\n      pop\n        /* \"#utility.yul\":14359:14592   */\n      swap2\n      swap1\n      pop\n      jump\t// out\n        /* \"#utility.yul\":14598:14769   */\n    tag_307:\n        /* \"#utility.yul\":14738:14761   */\n      0x43616e27742073656e6420746f2068696d73656c660000000000000000000000\n        /* \"#utility.yul\":14734:14735   */\n      0x00\n        /* \"#utility.yul\":14726:14732   */\n      dup3\n        /* \"#utility.yul\":14722:14736   */\n      add\n        /* \"#utility.yul\":14715:14762   */\n      mstore\n        /* \"#utility.yul\":14598:14769   */\n      pop\n      jump\t// out\n        /* \"#utility.yul\":14775:15141   */\n    tag_308:\n        /* \"#utility.yul\":14917:14920   */\n      0x00\n        /* \"#utility.yul\":14938:15005   */\n      tag_464\n        /* \"#utility.yul\":15002:15004   */\n      0x15\n        /* \"#utility.yul\":14997:15000   */\n      dup4\n        /* \"#utility.yul\":14938:15005   */\n      tag_298\n      jump\t// in\n    tag_464:\n        /* \"#utility.yul\":14931:15005   */\n      swap2\n      pop\n        /* \"#utility.yul\":15014:15107   */\n      tag_465\n        /* \"#utility.yul\":15103:15106   */\n      dup3\n        /* \"#utility.yul\":15014:15107   */\n      tag_307\n      jump\t// in\n    tag_465:\n        /* \"#utility.yul\":15132:15134   */\n      0x20\n        /* \"#utility.yul\":15127:15130   */\n      dup3\n        /* \"#utility.yul\":15123:15135   */\n      add\n        /* \"#utility.yul\":15116:15135   */\n      swap1\n      pop\n        /* \"#utility.yul\":14775:15141   */\n      swap2\n      swap1\n      pop\n      jump\t// out\n        /* \"#utility.yul\":15147:15566   */\n    tag_139:\n        /* \"#utility.yul\":15313:15317   */\n      0x00\n        /* \"#utility.yul\":15351:15353   */\n      0x20\n        /* \"#utility.yul\":15340:15349   */\n      dup3\n        /* \"#utility.yul\":15336:15354   */\n      add\n        /* \"#utility.yul\":15328:15354   */\n      swap1\n      pop\n        /* \"#utility.yul\":15400:15409   */\n      dup2\n        /* \"#utility.yul\":15394:15398   */\n      dup2\n        /* \"#utility.yul\":15390:15410   */\n      sub\n        /* \"#utility.yul\":15386:15387   */\n      0x00\n        /* \"#utility.yul\":15375:15384   */\n      dup4\n        /* \"#utility.yul\":15371:15388   */\n      add\n        /* \"#utility.yul\":15364:15411   */\n      mstore\n        /* \"#utility.yul\":15428:15559   */\n      tag_467\n        /* \"#utility.yul\":15554:15558   */\n      dup2\n        /* \"#utility.yul\":15428:15559   */\n      tag_308\n      jump\t// in\n    tag_467:\n        /* \"#utility.yul\":15420:15559   */\n      swap1\n      pop\n        /* \"#utility.yul\":15147:15566   */\n      swap2\n      swap1\n      pop\n      jump\t// out\n        /* \"#utility.yul\":15572:16014   */\n    tag_152:\n        /* \"#utility.yul\":15721:15725   */\n      0x00\n        /* \"#utility.yul\":15759:15761   */\n      0x60\n        /* \"#utility.yul\":15748:15757   */\n      dup3\n        /* \"#utility.yul\":15744:15762   */\n      add\n        /* \"#utility.yul\":15736:15762   */\n      swap1\n      pop\n        /* \"#utility.yul\":15772:15843   */\n      tag_469\n        /* \"#utility.yul\":15840:15841   */\n      0x00\n        /* \"#utility.yul\":15829:15838   */\n      dup4\n        /* \"#utility.yul\":15825:15842   */\n      add\n        /* \"#utility.yul\":15816:15822   */\n      dup7\n        /* \"#utility.yul\":15772:15843   */\n      tag_291\n      jump\t// in\n    tag_469:\n        /* \"#utility.yul\":15853:15925   */\n      tag_470\n        /* \"#utility.yul\":15921:15923   */\n      0x20\n        /* \"#utility.yul\":15910:15919   */\n      dup4\n        /* \"#utility.yul\":15906:15924   */\n      add\n        /* \"#utility.yul\":15897:15903   */\n      dup6\n        /* \"#utility.yul\":15853:15925   */\n      tag_291\n      jump\t// in\n    tag_470:\n        /* \"#utility.yul\":15935:16007   */\n      tag_471\n        /* \"#utility.yul\":16003:16005   */\n      0x40\n        /* \"#utility.yul\":15992:16001   */\n      dup4\n        /* \"#utility.yul\":15988:16006   */\n      add\n        /* \"#utility.yul\":15979:15985   */\n      dup5\n        /* \"#utility.yul\":15935:16007   */\n      tag_277\n      jump\t// in\n    tag_471:\n        /* \"#utility.yul\":15572:16014   */\n      swap5\n      swap4\n      pop\n      pop\n      pop\n      pop\n      jump\t// out\n        /* \"#utility.yul\":16020:16684   */\n    tag_157:\n        /* \"#utility.yul\":16225:16229   */\n      0x00\n        /* \"#utility.yul\":16263:16266   */\n      0xa0\n        /* \"#utility.yul\":16252:16261   */\n      dup3\n        /* \"#utility.yul\":16248:16267   */\n      add\n        /* \"#utility.yul\":16240:16267   */\n      swap1\n      pop\n        /* \"#utility.yul\":16277:16348   */\n      tag_473\n        /* \"#utility.yul\":16345:16346   */\n      0x00\n        /* \"#utility.yul\":16334:16343   */\n      dup4\n        /* \"#utility.yul\":16330:16347   */\n      add\n        /* \"#utility.yul\":16321:16327   */\n      dup9\n        /* \"#utility.yul\":16277:16348   */\n      tag_291\n      jump\t// in\n    tag_473:\n        /* \"#utility.yul\":16358:16430   */\n      tag_474\n        /* \"#utility.yul\":16426:16428   */\n      0x20\n        /* \"#utility.yul\":16415:16424   */\n      dup4\n        /* \"#utility.yul\":16411:16429   */\n      add\n        /* \"#utility.yul\":16402:16408   */\n      dup8\n        /* \"#utility.yul\":16358:16430   */\n      tag_291\n      jump\t// in\n    tag_474:\n        /* \"#utility.yul\":16440:16512   */\n      tag_475\n        /* \"#utility.yul\":16508:16510   */\n      0x40\n        /* \"#utility.yul\":16497:16506   */\n      dup4\n        /* \"#utility.yul\":16493:16511   */\n      add\n        /* \"#utility.yul\":16484:16490   */\n      dup7\n        /* \"#utility.yul\":16440:16512   */\n      tag_277\n      jump\t// in\n    tag_475:\n        /* \"#utility.yul\":16522:16594   */\n      tag_476\n        /* \"#utility.yul\":16590:16592   */\n      0x60\n        /* \"#utility.yul\":16579:16588   */\n      dup4\n        /* \"#utility.yul\":16575:16593   */\n      add\n        /* \"#utility.yul\":16566:16572   */\n      dup6\n        /* \"#utility.yul\":16522:16594   */\n      tag_277\n      jump\t// in\n    tag_476:\n        /* \"#utility.yul\":16604:16677   */\n      tag_477\n        /* \"#utility.yul\":16672:16675   */\n      0x80\n        /* \"#utility.yul\":16661:16670   */\n      dup4\n        /* \"#utility.yul\":16657:16676   */\n      add\n        /* \"#utility.yul\":16648:16654   */\n      dup5\n        /* \"#utility.yul\":16604:16677   */\n      tag_277\n      jump\t// in\n    tag_477:\n        /* \"#utility.yul\":16020:16684   */\n      swap7\n      swap6\n      pop\n      pop\n      pop\n      pop\n      pop\n      pop\n      jump\t// out\n        /* \"#utility.yul\":16690:16870   */\n    tag_196:\n        /* \"#utility.yul\":16738:16815   */\n      0x4e487b7100000000000000000000000000000000000000000000000000000000\n        /* \"#utility.yul\":16735:16736   */\n      0x00\n        /* \"#utility.yul\":16728:16816   */\n      mstore\n        /* \"#utility.yul\":16835:16839   */\n      0x41\n        /* \"#utility.yul\":16832:16833   */\n      0x04\n        /* \"#utility.yul\":16825:16840   */\n      mstore\n        /* \"#utility.yul\":16859:16863   */\n      0x24\n        /* \"#utility.yul\":16856:16857   */\n      0x00\n        /* \"#utility.yul\":16849:16864   */\n      revert\n        /* \"#utility.yul\":16876:17101   */\n    tag_309:\n        /* \"#utility.yul\":17016:17050   */\n      0x4f776e61626c653a206e6577206f776e657220697320746865207a65726f2061\n        /* \"#utility.yul\":17012:17013   */\n      0x00\n        /* \"#utility.yul\":17004:17010   */\n      dup3\n        /* \"#utility.yul\":17000:17014   */\n      add\n        /* \"#utility.yul\":16993:17051   */\n      mstore\n        /* \"#utility.yul\":17085:17093   */\n      0x6464726573730000000000000000000000000000000000000000000000000000\n        /* \"#utility.yul\":17080:17082   */\n      0x20\n        /* \"#utility.yul\":17072:17078   */\n      dup3\n        /* \"#utility.yul\":17068:17083   */\n      add\n        /* \"#utility.yul\":17061:17094   */\n      mstore\n        /* \"#utility.yul\":16876:17101   */\n      pop\n      jump\t// out\n        /* \"#utility.yul\":17107:17473   */\n    tag_310:\n        /* \"#utility.yul\":17249:17252   */\n      0x00\n        /* \"#utility.yul\":17270:17337   */\n      tag_481\n        /* \"#utility.yul\":17334:17336   */\n      0x26\n        /* \"#utility.yul\":17329:17332   */\n      dup4\n        /* \"#utility.yul\":17270:17337   */\n      tag_298\n      jump\t// in\n    tag_481:\n        /* \"#utility.yul\":17263:17337   */\n      swap2\n      pop\n        /* \"#utility.yul\":17346:17439   */\n      tag_482\n        /* \"#utility.yul\":17435:17438   */\n      dup3\n        /* \"#utility.yul\":17346:17439   */\n      tag_309\n      jump\t// in\n    tag_482:\n        /* \"#utility.yul\":17464:17466   */\n      0x40\n        /* \"#utility.yul\":17459:17462   */\n      dup3\n        /* \"#utility.yul\":17455:17467   */\n      add\n        /* \"#utility.yul\":17448:17467   */\n      swap1\n      pop\n        /* \"#utility.yul\":17107:17473   */\n      swap2\n      swap1\n      pop\n      jump\t// out\n        /* \"#utility.yul\":17479:17898   */\n    tag_246:\n        /* \"#utility.yul\":17645:17649   */\n      0x00\n        /* \"#utility.yul\":17683:17685   */\n      0x20\n        /* \"#utility.yul\":17672:17681   */\n      dup3\n        /* \"#utility.yul\":17668:17686   */\n      add\n        /* \"#utility.yul\":17660:17686   */\n      swap1\n      pop\n        /* \"#utility.yul\":17732:17741   */\n      dup2\n        /* \"#utility.yul\":17726:17730   */\n      dup2\n        /* \"#utility.yul\":17722:17742   */\n      sub\n        /* \"#utility.yul\":17718:17719   */\n      0x00\n        /* \"#utility.yul\":17707:17716   */\n      dup4\n        /* \"#utility.yul\":17703:17720   */\n      add\n        /* \"#utility.yul\":17696:17743   */\n      mstore\n        /* \"#utility.yul\":17760:17891   */\n      tag_484\n        /* \"#utility.yul\":17886:17890   */\n      dup2\n        /* \"#utility.yul\":17760:17891   */\n      tag_310\n      jump\t// in\n    tag_484:\n        /* \"#utility.yul\":17752:17891   */\n      swap1\n      pop\n        /* \"#utility.yul\":17479:17898   */\n      swap2\n      swap1\n      pop\n      jump\t// out\n        /* \"#utility.yul\":17904:18086   */\n    tag_311:\n        /* \"#utility.yul\":18044:18078   */\n      0x4f776e61626c653a2063616c6c6572206973206e6f7420746865206f776e6572\n        /* \"#utility.yul\":18040:18041   */\n      0x00\n        /* \"#utility.yul\":18032:18038   */\n      dup3\n        /* \"#utility.yul\":18028:18042   */\n      add\n        /* \"#utility.yul\":18021:18079   */\n      mstore\n        /* \"#utility.yul\":17904:18086   */\n      pop\n      jump\t// out\n        /* \"#utility.yul\":18092:18458   */\n    tag_312:\n        /* \"#utility.yul\":18234:18237   */\n      0x00\n        /* \"#utility.yul\":18255:18322   */\n      tag_487\n        /* \"#utility.yul\":18319:18321   */\n      0x20\n        /* \"#utility.yul\":18314:18317   */\n      dup4\n        /* \"#utility.yul\":18255:18322   */\n      tag_298\n      jump\t// in\n    tag_487:\n        /* \"#utility.yul\":18248:18322   */\n      swap2\n      pop\n        /* \"#utility.yul\":18331:18424   */\n      tag_488\n        /* \"#utility.yul\":18420:18423   */\n      dup3\n        /* \"#utility.yul\":18331:18424   */\n      tag_311\n      jump\t// in\n    tag_488:\n        /* \"#utility.yul\":18449:18451   */\n      0x20\n        /* \"#utility.yul\":18444:18447   */\n      dup3\n        /* \"#utility.yul\":18440:18452   */\n      add\n        /* \"#utility.yul\":18433:18452   */\n      swap1\n      pop\n        /* \"#utility.yul\":18092:18458   */\n      swap2\n      swap1\n      pop\n      jump\t// out\n        /* \"#utility.yul\":18464:18883   */\n    tag_254:\n        /* \"#utility.yul\":18630:18634   */\n      0x00\n        /* \"#utility.yul\":18668:18670   */\n      0x20\n        /* \"#utility.yul\":18657:18666   */\n      dup3\n        /* \"#utility.yul\":18653:18671   */\n      add\n        /* \"#utility.yul\":18645:18671   */\n      swap1\n      pop\n        /* \"#utility.yul\":18717:18726   */\n      dup2\n        /* \"#utility.yul\":18711:18715   */\n      dup2\n        /* \"#utility.yul\":18707:18727   */\n      sub\n        /* \"#utility.yul\":18703:18704   */\n      0x00\n        /* \"#utility.yul\":18692:18701   */\n      dup4\n        /* \"#utility.yul\":18688:18705   */\n      add\n        /* \"#utility.yul\":18681:18728   */\n      mstore\n        /* \"#utility.yul\":18745:18876   */\n      tag_490\n        /* \"#utility.yul\":18871:18875   */\n      dup2\n        /* \"#utility.yul\":18745:18876   */\n      tag_312\n      jump\t// in\n    tag_490:\n        /* \"#utility.yul\":18737:18876   */\n      swap1\n      pop\n        /* \"#utility.yul\":18464:18883   */\n      swap2\n      swap1\n      pop\n      jump\t// out\n        /* \"#utility.yul\":18889:19237   */\n    tag_257:\n        /* \"#utility.yul\":18929:18936   */\n      0x00\n        /* \"#utility.yul\":18952:18972   */\n      tag_492\n        /* \"#utility.yul\":18970:18971   */\n      dup3\n        /* \"#utility.yul\":18952:18972   */\n      tag_268\n      jump\t// in\n    tag_492:\n        /* \"#utility.yul\":18947:18972   */\n      swap2\n      pop\n        /* \"#utility.yul\":18986:19006   */\n      tag_493\n        /* \"#utility.yul\":19004:19005   */\n      dup4\n        /* \"#utility.yul\":18986:19006   */\n      tag_268\n      jump\t// in\n    tag_493:\n        /* \"#utility.yul\":18981:19006   */\n      swap3\n      pop\n        /* \"#utility.yul\":19174:19175   */\n      dup2\n        /* \"#utility.yul\":19106:19172   */\n      0xffffffffffffffffffffffffffffffffffffffffffffffffffffffffffffffff\n        /* \"#utility.yul\":19102:19176   */\n      div\n        /* \"#utility.yul\":19099:19100   */\n      dup4\n        /* \"#utility.yul\":19096:19177   */\n      gt\n        /* \"#utility.yul\":19091:19092   */\n      dup3\n        /* \"#utility.yul\":19084:19093   */\n      iszero\n        /* \"#utility.yul\":19077:19094   */\n      iszero\n        /* \"#utility.yul\":19073:19178   */\n      and\n        /* \"#utility.yul\":19070:19201   */\n      iszero\n      tag_494\n      jumpi\n        /* \"#utility.yul\":19181:19199   */\n      tag_495\n      tag_303\n      jump\t// in\n    tag_495:\n        /* \"#utility.yul\":19070:19201   */\n    tag_494:\n        /* \"#utility.yul\":19229:19230   */\n      dup3\n        /* \"#utility.yul\":19226:19227   */\n      dup3\n        /* \"#utility.yul\":19222:19231   */\n      mul\n        /* \"#utility.yul\":19211:19231   */\n      swap1\n      pop\n        /* \"#utility.yul\":18889:19237   */\n      swap3\n      swap2\n      pop\n      pop\n      jump\t// out\n        /* \"#utility.yul\":19243:19423   */\n    tag_313:\n        /* \"#utility.yul\":19291:19368   */\n      0x4e487b7100000000000000000000000000000000000000000000000000000000\n        /* \"#utility.yul\":19288:19289   */\n      0x00\n        /* \"#utility.yul\":19281:19369   */\n      mstore\n        /* \"#utility.yul\":19388:19392   */\n      0x12\n        /* \"#utility.yul\":19385:19386   */\n      0x04\n        /* \"#utility.yul\":19378:19393   */\n      mstore\n        /* \"#utility.yul\":19412:19416   */\n      0x24\n        /* \"#utility.yul\":19409:19410   */\n      0x00\n        /* \"#utility.yul\":19402:19417   */\n      revert\n        /* \"#utility.yul\":19429:19614   */\n    tag_260:\n        /* \"#utility.yul\":19469:19470   */\n      0x00\n        /* \"#utility.yul\":19486:19506   */\n      tag_498\n        /* \"#utility.yul\":19504:19505   */\n      dup3\n        /* \"#utility.yul\":19486:19506   */\n      tag_268\n      jump\t// in\n    tag_498:\n        /* \"#utility.yul\":19481:19506   */\n      swap2\n      pop\n        /* \"#utility.yul\":19520:19540   */\n      tag_499\n        /* \"#utility.yul\":19538:19539   */\n      dup4\n        /* \"#utility.yul\":19520:19540   */\n      tag_268\n      jump\t// in\n    tag_499:\n        /* \"#utility.yul\":19515:19540   */\n      swap3\n      pop\n        /* \"#utility.yul\":19559:19560   */\n      dup3\n        /* \"#utility.yul\":19549:19584   */\n      tag_500\n      jumpi\n        /* \"#utility.yul\":19564:19582   */\n      tag_501\n      tag_313\n      jump\t// in\n    tag_501:\n        /* \"#utility.yul\":19549:19584   */\n    tag_500:\n        /* \"#utility.yul\":19606:19607   */\n      dup3\n        /* \"#utility.yul\":19603:19604   */\n      dup3\n        /* \"#utility.yul\":19599:19608   */\n      div\n        /* \"#utility.yul\":19594:19608   */\n      swap1\n      pop\n        /* \"#utility.yul\":19429:19614   */\n      swap3\n      swap2\n      pop\n      pop\n      jump\t// out\n\n    auxdata: 0xa2646970667358221220380e2fb6a8edab6212b9bc248634880a8880fd979ce53d2374b1f9edf81f44bc64736f6c63430008100033\n}\n",
				"bytecode": {
					"linkReferences": {},
					"object": "60a06040523480156200001157600080fd5b50604051620025cb380380620025cb833981810160405281019062000037919062000219565b620000576200004b620000e360201b60201c565b620000eb60201b60201c565b30600160006101000a81548173ffffffffffffffffffffffffffffffffffffffff021916908373ffffffffffffffffffffffffffffffffffffffff160217905550600560038190555060006004819055508073ffffffffffffffffffffffffffffffffffffffff1660808173ffffffffffffffffffffffffffffffffffffffff1681525050506200024b565b600033905090565b60008060009054906101000a900473ffffffffffffffffffffffffffffffffffffffff169050816000806101000a81548173ffffffffffffffffffffffffffffffffffffffff021916908373ffffffffffffffffffffffffffffffffffffffff1602179055508173ffffffffffffffffffffffffffffffffffffffff168173ffffffffffffffffffffffffffffffffffffffff167f8be0079c531659141344cd1fd0a4f28419497f9722a3daafe3b4186f6b6457e060405160405180910390a35050565b600080fd5b600073ffffffffffffffffffffffffffffffffffffffff82169050919050565b6000620001e182620001b4565b9050919050565b620001f381620001d4565b8114620001ff57600080fd5b50565b6000815190506200021381620001e8565b92915050565b600060208284031215620002325762000231620001af565b5b6000620002428482850162000202565b91505092915050565b60805161233a62000291600039600081816104900152818161059c01528181610b0601528181610d6901528181610e8901528181610f7f01526116fb015261233a6000f3fe608060405234801561001057600080fd5b50600436106101005760003560e01c80638da5cb5b11610097578063dad0191711610066578063dad0191714610299578063edc1be58146102cd578063f2fde38b146102e9578063fc0c546a1461030557610100565b80638da5cb5b146101fd57806399535b381461021b5780639b0d92c51461024b578063b80386871461026957610100565b80636c8b4bea116100d35780636c8b4bea146101895780636de3ee50146101b9578063715018a6146101d55780637834b2d5146101df57610100565b806339be072b146101055780633d18678e1461012157806355b77b221461013d5780635ae9813914610159575b600080fd5b61011f600480360381019061011a919061193b565b610323565b005b61013b6004803603810190610136919061193b565b6106b3565b005b610157600480360381019061015291906119c6565b6106c5565b005b610173600480360381019061016e9190611a18565b610711565b6040516101809190611a67565b60405180910390f35b6101a3600480360381019061019e9190611a82565b610842565b6040516101b09190611a67565b60405180910390f35b6101d360048036038101906101ce919061193b565b610bf2565b005b6101dd611082565b005b6101e7611096565b6040516101f49190611c6e565b60405180910390f35b6102056112f6565b6040516102129190611c9f565b60405180910390f35b61023560048036038101906102309190611cba565b61131f565b6040516102429190611a67565b60405180910390f35b610253611350565b6040516102609190611c6e565b60405180910390f35b610283600480360381019061027e9190611cba565b6115b0565b6040516102909190611a67565b60405180910390f35b6102b360048036038101906102ae919061193b565b6115e1565b6040516102c4959493929190611d09565b60405180910390f35b6102e760048036038101906102e2919061193b565b611664565b005b61030360048036038101906102fe91906119c6565b611676565b005b61030d6116f9565b60405161031a9190611dbb565b60405180910390f35b3373ffffffffffffffffffffffffffffffffffffffff166005600083815260200190815260200160002060000160009054906101000a900473ffffffffffffffffffffffffffffffffffffffff1673ffffffffffffffffffffffffffffffffffffffff1614806103c557503373ffffffffffffffffffffffffffffffffffffffff166103ad6112f6565b73ffffffffffffffffffffffffffffffffffffffff16145b610404576040517f08c379a00000000000000000000000000000000000000000000000000000000081526004016103fb90611e33565b60405180910390fd5b6000600281111561041857610417611b0c565b5b6005600083815260200190815260200160002060040160009054906101000a900460ff16600281111561044e5761044d611b0c565b5b1461048e576040517f08c379a000000000000000000000000000000000000000000000000000000000815260040161048590611e9f565b60405180910390fd5b7f000000000000000000000000000000000000000000000000000000000000000073ffffffffffffffffffffffffffffffffffffffff1663a9059cbb6005600084815260200190815260200160002060010160009054906101000a900473ffffffffffffffffffffffffffffffffffffffff16600560008581526020019081526020016000206003015460056000868152602001908152602001600020600201546105399190611eee565b6040518363ffffffff1660e01b8152600401610556929190611f22565b6020604051808303816000875af1158015610575573d6000803e3d6000fd5b505050506040513d601f19601f820116820180604052508101906105999190611f83565b507f000000000000000000000000000000000000000000000000000000000000000073ffffffffffffffffffffffffffffffffffffffff1663a9059cbb600160009054906101000a900473ffffffffffffffffffffffffffffffffffffffff1660056000858152602001908152602001600020600301546040518363ffffffff1660e01b815260040161062d929190611f22565b6020604051808303816000875af115801561064c573d6000803e3d6000fd5b505050506040513d601f19601f820116820180604052508101906106709190611f83565b5060016005600083815260200190815260200160002060040160006101000a81548160ff021916908360028111156106ab576106aa611b0c565b5b021790555050565b6106bb61171d565b8060038190555050565b6106cd61171d565b80600160006101000a81548173ffffffffffffffffffffffffffffffffffffffff021916908373ffffffffffffffffffffffffffffffffffffffff16021790555050565b60008060005b6001600660008773ffffffffffffffffffffffffffffffffffffffff1673ffffffffffffffffffffffffffffffffffffffff168152602001908152602001600020805490506107669190611eee565b81116108375783600281111561077f5761077e611b0c565b5b60056000600660008973ffffffffffffffffffffffffffffffffffffffff1673ffffffffffffffffffffffffffffffffffffffff16815260200190815260200160002084815481106107d4576107d3611fb0565b5b9060005260206000200154815260200190815260200160002060040160009054906101000a900460ff1660028111156108105761080f611b0c565b5b0361082457818061082090611fdf565b9250505b808061082f90611fdf565b915050610717565b508091505092915050565b60003073ffffffffffffffffffffffffffffffffffffffff163373ffffffffffffffffffffffffffffffffffffffff16036108b2576040517f08c379a00000000000000000000000000000000000000000000000000000000081526004016108a990612073565b60405180910390fd5b600260008154809291906108c590611fdf565b919050555060006108e26108db8560035461179b565b60646117b1565b90506040518060a001604052803373ffffffffffffffffffffffffffffffffffffffff1681526020018473ffffffffffffffffffffffffffffffffffffffff1681526020018581526020018281526020016000600281111561094757610946611b0c565b5b81525060056000600254815260200190815260200160002060008201518160000160006101000a81548173ffffffffffffffffffffffffffffffffffffffff021916908373ffffffffffffffffffffffffffffffffffffffff16021790555060208201518160010160006101000a81548173ffffffffffffffffffffffffffffffffffffffff021916908373ffffffffffffffffffffffffffffffffffffffff160217905550604082015181600201556060820151816003015560808201518160040160006101000a81548160ff02191690836002811115610a2c57610a2b611b0c565b5b0217905550905050600660003373ffffffffffffffffffffffffffffffffffffffff1673ffffffffffffffffffffffffffffffffffffffff1681526020019081526020016000206002549080600181540180825580915050600190039060005260206000200160009091909190915055600760008473ffffffffffffffffffffffffffffffffffffffff1673ffffffffffffffffffffffffffffffffffffffff16815260200190815260200160002060025490806001815401808255809150506001900390600052602060002001600090919091909150557f000000000000000000000000000000000000000000000000000000000000000073ffffffffffffffffffffffffffffffffffffffff166323b872dd3330876040518463ffffffff1660e01b8152600401610b6193929190612093565b6020604051808303816000875af1158015610b80573d6000803e3d6000fd5b505050506040513d601f19601f82011682018060405250810190610ba49190611f83565b507fa410c0b2147789b142a123a44f5490d1b3ab98a16e28f278f3df56383d93c62633848660025442604051610bde9594939291906120ca565b60405180910390a160025491505092915050565b3373ffffffffffffffffffffffffffffffffffffffff166005600083815260200190815260200160002060000160009054906101000a900473ffffffffffffffffffffffffffffffffffffffff1673ffffffffffffffffffffffffffffffffffffffff161480610c9457503373ffffffffffffffffffffffffffffffffffffffff16610c7c6112f6565b73ffffffffffffffffffffffffffffffffffffffff16145b610cd3576040517f08c379a0000000000000000000000000000000000000000000000000000000008152600401610cca90611e33565b60405180910390fd5b60006002811115610ce757610ce6611b0c565b5b6005600083815260200190815260200160002060040160009054906101000a900460ff166002811115610d1d57610d1c611b0c565b5b14610d5d576040517f08c379a0000000000000000000000000000000000000000000000000000000008152600401610d5490611e9f565b60405180910390fd5b600060045403610e57577f000000000000000000000000000000000000000000000000000000000000000073ffffffffffffffffffffffffffffffffffffffff1663a9059cbb6005600084815260200190815260200160002060000160009054906101000a900473ffffffffffffffffffffffffffffffffffffffff1660056000858152602001908152602001600020600201546040518363ffffffff1660e01b8152600401610e0e929190611f22565b6020604051808303816000875af1158015610e2d573d6000803e3d6000fd5b505050506040513d601f19601f82011682018060405250810190610e519190611f83565b50611040565b6000610e85610e7e600560008581526020019081526020016000206002015460045461179b565b60646117b1565b90507f000000000000000000000000000000000000000000000000000000000000000073ffffffffffffffffffffffffffffffffffffffff1663a9059cbb6005600085815260200190815260200160002060000160009054906101000a900473ffffffffffffffffffffffffffffffffffffffff16836005600087815260200190815260200160002060020154610f1c9190611eee565b6040518363ffffffff1660e01b8152600401610f39929190611f22565b6020604051808303816000875af1158015610f58573d6000803e3d6000fd5b505050506040513d601f19601f82011682018060405250810190610f7c9190611f83565b507f000000000000000000000000000000000000000000000000000000000000000073ffffffffffffffffffffffffffffffffffffffff1663a9059cbb600160009054906101000a900473ffffffffffffffffffffffffffffffffffffffff16836040518363ffffffff1660e01b8152600401610ffa929190611f22565b6020604051808303816000875af1158015611019573d6000803e3d6000fd5b505050506040513d601f19601f8201168201806040525081019061103d9190611f83565b50505b60026005600083815260200190815260200160002060040160006101000a81548160ff0219169083600281111561107a57611079611b0c565b5b021790555050565b61108a61171d565b61109460006117c7565b565b60606000600760003373ffffffffffffffffffffffffffffffffffffffff1673ffffffffffffffffffffffffffffffffffffffff16815260200190815260200160002080549050905060008167ffffffffffffffff8111156110fb576110fa61211d565b5b60405190808252806020026020018201604052801561113457816020015b611121611893565b8152602001906001900390816111195790505b50905060005b828110156112ed57600060056000600760003373ffffffffffffffffffffffffffffffffffffffff1673ffffffffffffffffffffffffffffffffffffffff168152602001908152602001600020848154811061119957611198611fb0565b5b906000526020600020015481526020019081526020016000209050806040518060a00160405290816000820160009054906101000a900473ffffffffffffffffffffffffffffffffffffffff1673ffffffffffffffffffffffffffffffffffffffff1673ffffffffffffffffffffffffffffffffffffffff1681526020016001820160009054906101000a900473ffffffffffffffffffffffffffffffffffffffff1673ffffffffffffffffffffffffffffffffffffffff1673ffffffffffffffffffffffffffffffffffffffff16815260200160028201548152602001600382015481526020016004820160009054906101000a900460ff1660028111156112a5576112a4611b0c565b5b60028111156112b7576112b6611b0c565b5b815250508383815181106112ce576112cd611fb0565b5b60200260200101819052505080806112e590611fdf565b91505061113a565b50809250505090565b60008060009054906101000a900473ffffffffffffffffffffffffffffffffffffffff16905090565b6006602052816000526040600020818154811061133b57600080fd5b90600052602060002001600091509150505481565b60606000600660003373ffffffffffffffffffffffffffffffffffffffff1673ffffffffffffffffffffffffffffffffffffffff16815260200190815260200160002080549050905060008167ffffffffffffffff8111156113b5576113b461211d565b5b6040519080825280602002602001820160405280156113ee57816020015b6113db611893565b8152602001906001900390816113d35790505b50905060005b828110156115a757600060056000600660003373ffffffffffffffffffffffffffffffffffffffff1673ffffffffffffffffffffffffffffffffffffffff168152602001908152602001600020848154811061145357611452611fb0565b5b906000526020600020015481526020019081526020016000209050806040518060a00160405290816000820160009054906101000a900473ffffffffffffffffffffffffffffffffffffffff1673ffffffffffffffffffffffffffffffffffffffff1673ffffffffffffffffffffffffffffffffffffffff1681526020016001820160009054906101000a900473ffffffffffffffffffffffffffffffffffffffff1673ffffffffffffffffffffffffffffffffffffffff1673ffffffffffffffffffffffffffffffffffffffff16815260200160028201548152602001600382015481526020016004820160009054906101000a900460ff16600281111561155f5761155e611b0c565b5b600281111561157157611570611b0c565b5b8152505083838151811061158857611587611fb0565b5b602002602001018190525050808061159f90611fdf565b9150506113f4565b50809250505090565b600760205281600052604060002081815481106115cc57600080fd5b90600052602060002001600091509150505481565b60056020528060005260406000206000915090508060000160009054906101000a900473ffffffffffffffffffffffffffffffffffffffff16908060010160009054906101000a900473ffffffffffffffffffffffffffffffffffffffff16908060020154908060030154908060040160009054906101000a900460ff16905085565b61166c61171d565b8060048190555050565b61167e61171d565b600073ffffffffffffffffffffffffffffffffffffffff168173ffffffffffffffffffffffffffffffffffffffff16036116ed576040517f08c379a00000000000000000000000000000000000000000000000000000000081526004016116e4906121be565b60405180910390fd5b6116f6816117c7565b50565b7f000000000000000000000000000000000000000000000000000000000000000081565b61172561188b565b73ffffffffffffffffffffffffffffffffffffffff166117436112f6565b73ffffffffffffffffffffffffffffffffffffffff1614611799576040517f08c379a00000000000000000000000000000000000000000000000000000000081526004016117909061222a565b60405180910390fd5b565b600081836117a9919061224a565b905092915050565b600081836117bf91906122d3565b905092915050565b60008060009054906101000a900473ffffffffffffffffffffffffffffffffffffffff169050816000806101000a81548173ffffffffffffffffffffffffffffffffffffffff021916908373ffffffffffffffffffffffffffffffffffffffff1602179055508173ffffffffffffffffffffffffffffffffffffffff168173ffffffffffffffffffffffffffffffffffffffff167f8be0079c531659141344cd1fd0a4f28419497f9722a3daafe3b4186f6b6457e060405160405180910390a35050565b600033905090565b6040518060a00160405280600073ffffffffffffffffffffffffffffffffffffffff168152602001600073ffffffffffffffffffffffffffffffffffffffff1681526020016000815260200160008152602001600060028111156118fa576118f9611b0c565b5b81525090565b600080fd5b6000819050919050565b61191881611905565b811461192357600080fd5b50565b6000813590506119358161190f565b92915050565b60006020828403121561195157611950611900565b5b600061195f84828501611926565b91505092915050565b600073ffffffffffffffffffffffffffffffffffffffff82169050919050565b600061199382611968565b9050919050565b6119a381611988565b81146119ae57600080fd5b50565b6000813590506119c08161199a565b92915050565b6000602082840312156119dc576119db611900565b5b60006119ea848285016119b1565b91505092915050565b60038110611a0057600080fd5b50565b600081359050611a12816119f3565b92915050565b60008060408385031215611a2f57611a2e611900565b5b6000611a3d858286016119b1565b9250506020611a4e85828601611a03565b9150509250929050565b611a6181611905565b82525050565b6000602082019050611a7c6000830184611a58565b92915050565b60008060408385031215611a9957611a98611900565b5b6000611aa785828601611926565b9250506020611ab8858286016119b1565b9150509250929050565b600081519050919050565b600082825260208201905092915050565b6000819050602082019050919050565b611af781611988565b82525050565b611b0681611905565b82525050565b7f4e487b7100000000000000000000000000000000000000000000000000000000600052602160045260246000fd5b60038110611b4c57611b4b611b0c565b5b50565b6000819050611b5d82611b3b565b919050565b6000611b6d82611b4f565b9050919050565b611b7d81611b62565b82525050565b60a082016000820151611b996000850182611aee565b506020820151611bac6020850182611aee565b506040820151611bbf6040850182611afd565b506060820151611bd26060850182611afd565b506080820151611be56080850182611b74565b50505050565b6000611bf78383611b83565b60a08301905092915050565b6000602082019050919050565b6000611c1b82611ac2565b611c258185611acd565b9350611c3083611ade565b8060005b83811015611c61578151611c488882611beb565b9750611c5383611c03565b925050600181019050611c34565b5085935050505092915050565b60006020820190508181036000830152611c888184611c10565b905092915050565b611c9981611988565b82525050565b6000602082019050611cb46000830184611c90565b92915050565b60008060408385031215611cd157611cd0611900565b5b6000611cdf858286016119b1565b9250506020611cf085828601611926565b9150509250929050565b611d0381611b62565b82525050565b600060a082019050611d1e6000830188611c90565b611d2b6020830187611c90565b611d386040830186611a58565b611d456060830185611a58565b611d526080830184611cfa565b9695505050505050565b6000819050919050565b6000611d81611d7c611d7784611968565b611d5c565b611968565b9050919050565b6000611d9382611d66565b9050919050565b6000611da582611d88565b9050919050565b611db581611d9a565b82525050565b6000602082019050611dd06000830184611dac565b92915050565b600082825260208201905092915050565b7f596f7574206d757374206265207468652073656e646572000000000000000000600082015250565b6000611e1d601783611dd6565b9150611e2882611de7565b602082019050919050565b60006020820190508181036000830152611e4c81611e10565b9050919050565b7f507265737461206973206e6f742077616974696e670000000000000000000000600082015250565b6000611e89601583611dd6565b9150611e9482611e53565b602082019050919050565b60006020820190508181036000830152611eb881611e7c565b9050919050565b7f4e487b7100000000000000000000000000000000000000000000000000000000600052601160045260246000fd5b6000611ef982611905565b9150611f0483611905565b9250828203905081811115611f1c57611f1b611ebf565b5b92915050565b6000604082019050611f376000830185611c90565b611f446020830184611a58565b9392505050565b60008115159050919050565b611f6081611f4b565b8114611f6b57600080fd5b50565b600081519050611f7d81611f57565b92915050565b600060208284031215611f9957611f98611900565b5b6000611fa784828501611f6e565b91505092915050565b7f4e487b7100000000000000000000000000000000000000000000000000000000600052603260045260246000fd5b6000611fea82611905565b91507fffffffffffffffffffffffffffffffffffffffffffffffffffffffffffffffff820361201c5761201b611ebf565b5b600182019050919050565b7f43616e27742073656e6420746f2068696d73656c660000000000000000000000600082015250565b600061205d601583611dd6565b915061206882612027565b602082019050919050565b6000602082019050818103600083015261208c81612050565b9050919050565b60006060820190506120a86000830186611c90565b6120b56020830185611c90565b6120c26040830184611a58565b949350505050565b600060a0820190506120df6000830188611c90565b6120ec6020830187611c90565b6120f96040830186611a58565b6121066060830185611a58565b6121136080830184611a58565b9695505050505050565b7f4e487b7100000000000000000000000000000000000000000000000000000000600052604160045260246000fd5b7f4f776e61626c653a206e6577206f776e657220697320746865207a65726f206160008201527f6464726573730000000000000000000000000000000000000000000000000000602082015250565b60006121a8602683611dd6565b91506121b38261214c565b604082019050919050565b600060208201905081810360008301526121d78161219b565b9050919050565b7f4f776e61626c653a2063616c6c6572206973206e6f7420746865206f776e6572600082015250565b6000612214602083611dd6565b915061221f826121de565b602082019050919050565b6000602082019050818103600083015261224381612207565b9050919050565b600061225582611905565b915061226083611905565b9250817fffffffffffffffffffffffffffffffffffffffffffffffffffffffffffffffff048311821515161561229957612298611ebf565b5b828202905092915050565b7f4e487b7100000000000000000000000000000000000000000000000000000000600052601260045260246000fd5b60006122de82611905565b91506122e983611905565b9250826122f9576122f86122a4565b5b82820490509291505056fea2646970667358221220380e2fb6a8edab6212b9bc248634880a8880fd979ce53d2374b1f9edf81f44bc64736f6c63430008100033",
					"opcodes": "PUSH1 0xA0 PUSH1 0x40 MSTORE CALLVALUE DUP1 ISZERO PUSH3 0x11 JUMPI PUSH1 0x0 DUP1 REVERT JUMPDEST POP PUSH1 0x40 MLOAD PUSH3 0x25CB CODESIZE SUB DUP1 PUSH3 0x25CB DUP4 CODECOPY DUP2 DUP2 ADD PUSH1 0x40 MSTORE DUP2 ADD SWAP1 PUSH3 0x37 SWAP2 SWAP1 PUSH3 0x219 JUMP JUMPDEST PUSH3 0x57 PUSH3 0x4B PUSH3 0xE3 PUSH1 0x20 SHL PUSH1 0x20 SHR JUMP JUMPDEST PUSH3 0xEB PUSH1 0x20 SHL PUSH1 0x20 SHR JUMP JUMPDEST ADDRESS PUSH1 0x1 PUSH1 0x0 PUSH2 0x100 EXP DUP2 SLOAD DUP2 PUSH20 0xFFFFFFFFFFFFFFFFFFFFFFFFFFFFFFFFFFFFFFFF MUL NOT AND SWAP1 DUP4 PUSH20 0xFFFFFFFFFFFFFFFFFFFFFFFFFFFFFFFFFFFFFFFF AND MUL OR SWAP1 SSTORE POP PUSH1 0x5 PUSH1 0x3 DUP2 SWAP1 SSTORE POP PUSH1 0x0 PUSH1 0x4 DUP2 SWAP1 SSTORE POP DUP1 PUSH20 0xFFFFFFFFFFFFFFFFFFFFFFFFFFFFFFFFFFFFFFFF AND PUSH1 0x80 DUP2 PUSH20 0xFFFFFFFFFFFFFFFFFFFFFFFFFFFFFFFFFFFFFFFF AND DUP2 MSTORE POP POP POP PUSH3 0x24B JUMP JUMPDEST PUSH1 0x0 CALLER SWAP1 POP SWAP1 JUMP JUMPDEST PUSH1 0x0 DUP1 PUSH1 0x0 SWAP1 SLOAD SWAP1 PUSH2 0x100 EXP SWAP1 DIV PUSH20 0xFFFFFFFFFFFFFFFFFFFFFFFFFFFFFFFFFFFFFFFF AND SWAP1 POP DUP2 PUSH1 0x0 DUP1 PUSH2 0x100 EXP DUP2 SLOAD DUP2 PUSH20 0xFFFFFFFFFFFFFFFFFFFFFFFFFFFFFFFFFFFFFFFF MUL NOT AND SWAP1 DUP4 PUSH20 0xFFFFFFFFFFFFFFFFFFFFFFFFFFFFFFFFFFFFFFFF AND MUL OR SWAP1 SSTORE POP DUP2 PUSH20 0xFFFFFFFFFFFFFFFFFFFFFFFFFFFFFFFFFFFFFFFF AND DUP2 PUSH20 0xFFFFFFFFFFFFFFFFFFFFFFFFFFFFFFFFFFFFFFFF AND PUSH32 0x8BE0079C531659141344CD1FD0A4F28419497F9722A3DAAFE3B4186F6B6457E0 PUSH1 0x40 MLOAD PUSH1 0x40 MLOAD DUP1 SWAP2 SUB SWAP1 LOG3 POP POP JUMP JUMPDEST PUSH1 0x0 DUP1 REVERT JUMPDEST PUSH1 0x0 PUSH20 0xFFFFFFFFFFFFFFFFFFFFFFFFFFFFFFFFFFFFFFFF DUP3 AND SWAP1 POP SWAP2 SWAP1 POP JUMP JUMPDEST PUSH1 0x0 PUSH3 0x1E1 DUP3 PUSH3 0x1B4 JUMP JUMPDEST SWAP1 POP SWAP2 SWAP1 POP JUMP JUMPDEST PUSH3 0x1F3 DUP2 PUSH3 0x1D4 JUMP JUMPDEST DUP2 EQ PUSH3 0x1FF JUMPI PUSH1 0x0 DUP1 REVERT JUMPDEST POP JUMP JUMPDEST PUSH1 0x0 DUP2 MLOAD SWAP1 POP PUSH3 0x213 DUP2 PUSH3 0x1E8 JUMP JUMPDEST SWAP3 SWAP2 POP POP JUMP JUMPDEST PUSH1 0x0 PUSH1 0x20 DUP3 DUP5 SUB SLT ISZERO PUSH3 0x232 JUMPI PUSH3 0x231 PUSH3 0x1AF JUMP JUMPDEST JUMPDEST PUSH1 0x0 PUSH3 0x242 DUP5 DUP3 DUP6 ADD PUSH3 0x202 JUMP JUMPDEST SWAP2 POP POP SWAP3 SWAP2 POP POP JUMP JUMPDEST PUSH1 0x80 MLOAD PUSH2 0x233A PUSH3 0x291 PUSH1 0x0 CODECOPY PUSH1 0x0 DUP2 DUP2 PUSH2 0x490 ADD MSTORE DUP2 DUP2 PUSH2 0x59C ADD MSTORE DUP2 DUP2 PUSH2 0xB06 ADD MSTORE DUP2 DUP2 PUSH2 0xD69 ADD MSTORE DUP2 DUP2 PUSH2 0xE89 ADD MSTORE DUP2 DUP2 PUSH2 0xF7F ADD MSTORE PUSH2 0x16FB ADD MSTORE PUSH2 0x233A PUSH1 0x0 RETURN INVALID PUSH1 0x80 PUSH1 0x40 MSTORE CALLVALUE DUP1 ISZERO PUSH2 0x10 JUMPI PUSH1 0x0 DUP1 REVERT JUMPDEST POP PUSH1 0x4 CALLDATASIZE LT PUSH2 0x100 JUMPI PUSH1 0x0 CALLDATALOAD PUSH1 0xE0 SHR DUP1 PUSH4 0x8DA5CB5B GT PUSH2 0x97 JUMPI DUP1 PUSH4 0xDAD01917 GT PUSH2 0x66 JUMPI DUP1 PUSH4 0xDAD01917 EQ PUSH2 0x299 JUMPI DUP1 PUSH4 0xEDC1BE58 EQ PUSH2 0x2CD JUMPI DUP1 PUSH4 0xF2FDE38B EQ PUSH2 0x2E9 JUMPI DUP1 PUSH4 0xFC0C546A EQ PUSH2 0x305 JUMPI PUSH2 0x100 JUMP JUMPDEST DUP1 PUSH4 0x8DA5CB5B EQ PUSH2 0x1FD JUMPI DUP1 PUSH4 0x99535B38 EQ PUSH2 0x21B JUMPI DUP1 PUSH4 0x9B0D92C5 EQ PUSH2 0x24B JUMPI DUP1 PUSH4 0xB8038687 EQ PUSH2 0x269 JUMPI PUSH2 0x100 JUMP JUMPDEST DUP1 PUSH4 0x6C8B4BEA GT PUSH2 0xD3 JUMPI DUP1 PUSH4 0x6C8B4BEA EQ PUSH2 0x189 JUMPI DUP1 PUSH4 0x6DE3EE50 EQ PUSH2 0x1B9 JUMPI DUP1 PUSH4 0x715018A6 EQ PUSH2 0x1D5 JUMPI DUP1 PUSH4 0x7834B2D5 EQ PUSH2 0x1DF JUMPI PUSH2 0x100 JUMP JUMPDEST DUP1 PUSH4 0x39BE072B EQ PUSH2 0x105 JUMPI DUP1 PUSH4 0x3D18678E EQ PUSH2 0x121 JUMPI DUP1 PUSH4 0x55B77B22 EQ PUSH2 0x13D JUMPI DUP1 PUSH4 0x5AE98139 EQ PUSH2 0x159 JUMPI JUMPDEST PUSH1 0x0 DUP1 REVERT JUMPDEST PUSH2 0x11F PUSH1 0x4 DUP1 CALLDATASIZE SUB DUP2 ADD SWAP1 PUSH2 0x11A SWAP2 SWAP1 PUSH2 0x193B JUMP JUMPDEST PUSH2 0x323 JUMP JUMPDEST STOP JUMPDEST PUSH2 0x13B PUSH1 0x4 DUP1 CALLDATASIZE SUB DUP2 ADD SWAP1 PUSH2 0x136 SWAP2 SWAP1 PUSH2 0x193B JUMP JUMPDEST PUSH2 0x6B3 JUMP JUMPDEST STOP JUMPDEST PUSH2 0x157 PUSH1 0x4 DUP1 CALLDATASIZE SUB DUP2 ADD SWAP1 PUSH2 0x152 SWAP2 SWAP1 PUSH2 0x19C6 JUMP JUMPDEST PUSH2 0x6C5 JUMP JUMPDEST STOP JUMPDEST PUSH2 0x173 PUSH1 0x4 DUP1 CALLDATASIZE SUB DUP2 ADD SWAP1 PUSH2 0x16E SWAP2 SWAP1 PUSH2 0x1A18 JUMP JUMPDEST PUSH2 0x711 JUMP JUMPDEST PUSH1 0x40 MLOAD PUSH2 0x180 SWAP2 SWAP1 PUSH2 0x1A67 JUMP JUMPDEST PUSH1 0x40 MLOAD DUP1 SWAP2 SUB SWAP1 RETURN JUMPDEST PUSH2 0x1A3 PUSH1 0x4 DUP1 CALLDATASIZE SUB DUP2 ADD SWAP1 PUSH2 0x19E SWAP2 SWAP1 PUSH2 0x1A82 JUMP JUMPDEST PUSH2 0x842 JUMP JUMPDEST PUSH1 0x40 MLOAD PUSH2 0x1B0 SWAP2 SWAP1 PUSH2 0x1A67 JUMP JUMPDEST PUSH1 0x40 MLOAD DUP1 SWAP2 SUB SWAP1 RETURN JUMPDEST PUSH2 0x1D3 PUSH1 0x4 DUP1 CALLDATASIZE SUB DUP2 ADD SWAP1 PUSH2 0x1CE SWAP2 SWAP1 PUSH2 0x193B JUMP JUMPDEST PUSH2 0xBF2 JUMP JUMPDEST STOP JUMPDEST PUSH2 0x1DD PUSH2 0x1082 JUMP JUMPDEST STOP JUMPDEST PUSH2 0x1E7 PUSH2 0x1096 JUMP JUMPDEST PUSH1 0x40 MLOAD PUSH2 0x1F4 SWAP2 SWAP1 PUSH2 0x1C6E JUMP JUMPDEST PUSH1 0x40 MLOAD DUP1 SWAP2 SUB SWAP1 RETURN JUMPDEST PUSH2 0x205 PUSH2 0x12F6 JUMP JUMPDEST PUSH1 0x40 MLOAD PUSH2 0x212 SWAP2 SWAP1 PUSH2 0x1C9F JUMP JUMPDEST PUSH1 0x40 MLOAD DUP1 SWAP2 SUB SWAP1 RETURN JUMPDEST PUSH2 0x235 PUSH1 0x4 DUP1 CALLDATASIZE SUB DUP2 ADD SWAP1 PUSH2 0x230 SWAP2 SWAP1 PUSH2 0x1CBA JUMP JUMPDEST PUSH2 0x131F JUMP JUMPDEST PUSH1 0x40 MLOAD PUSH2 0x242 SWAP2 SWAP1 PUSH2 0x1A67 JUMP JUMPDEST PUSH1 0x40 MLOAD DUP1 SWAP2 SUB SWAP1 RETURN JUMPDEST PUSH2 0x253 PUSH2 0x1350 JUMP JUMPDEST PUSH1 0x40 MLOAD PUSH2 0x260 SWAP2 SWAP1 PUSH2 0x1C6E JUMP JUMPDEST PUSH1 0x40 MLOAD DUP1 SWAP2 SUB SWAP1 RETURN JUMPDEST PUSH2 0x283 PUSH1 0x4 DUP1 CALLDATASIZE SUB DUP2 ADD SWAP1 PUSH2 0x27E SWAP2 SWAP1 PUSH2 0x1CBA JUMP JUMPDEST PUSH2 0x15B0 JUMP JUMPDEST PUSH1 0x40 MLOAD PUSH2 0x290 SWAP2 SWAP1 PUSH2 0x1A67 JUMP JUMPDEST PUSH1 0x40 MLOAD DUP1 SWAP2 SUB SWAP1 RETURN JUMPDEST PUSH2 0x2B3 PUSH1 0x4 DUP1 CALLDATASIZE SUB DUP2 ADD SWAP1 PUSH2 0x2AE SWAP2 SWAP1 PUSH2 0x193B JUMP JUMPDEST PUSH2 0x15E1 JUMP JUMPDEST PUSH1 0x40 MLOAD PUSH2 0x2C4 SWAP6 SWAP5 SWAP4 SWAP3 SWAP2 SWAP1 PUSH2 0x1D09 JUMP JUMPDEST PUSH1 0x40 MLOAD DUP1 SWAP2 SUB SWAP1 RETURN JUMPDEST PUSH2 0x2E7 PUSH1 0x4 DUP1 CALLDATASIZE SUB DUP2 ADD SWAP1 PUSH2 0x2E2 SWAP2 SWAP1 PUSH2 0x193B JUMP JUMPDEST PUSH2 0x1664 JUMP JUMPDEST STOP JUMPDEST PUSH2 0x303 PUSH1 0x4 DUP1 CALLDATASIZE SUB DUP2 ADD SWAP1 PUSH2 0x2FE SWAP2 SWAP1 PUSH2 0x19C6 JUMP JUMPDEST PUSH2 0x1676 JUMP JUMPDEST STOP JUMPDEST PUSH2 0x30D PUSH2 0x16F9 JUMP JUMPDEST PUSH1 0x40 MLOAD PUSH2 0x31A SWAP2 SWAP1 PUSH2 0x1DBB JUMP JUMPDEST PUSH1 0x40 MLOAD DUP1 SWAP2 SUB SWAP1 RETURN JUMPDEST CALLER PUSH20 0xFFFFFFFFFFFFFFFFFFFFFFFFFFFFFFFFFFFFFFFF AND PUSH1 0x5 PUSH1 0x0 DUP4 DUP2 MSTORE PUSH1 0x20 ADD SWAP1 DUP2 MSTORE PUSH1 0x20 ADD PUSH1 0x0 KECCAK256 PUSH1 0x0 ADD PUSH1 0x0 SWAP1 SLOAD SWAP1 PUSH2 0x100 EXP SWAP1 DIV PUSH20 0xFFFFFFFFFFFFFFFFFFFFFFFFFFFFFFFFFFFFFFFF AND PUSH20 0xFFFFFFFFFFFFFFFFFFFFFFFFFFFFFFFFFFFFFFFF AND EQ DUP1 PUSH2 0x3C5 JUMPI POP CALLER PUSH20 0xFFFFFFFFFFFFFFFFFFFFFFFFFFFFFFFFFFFFFFFF AND PUSH2 0x3AD PUSH2 0x12F6 JUMP JUMPDEST PUSH20 0xFFFFFFFFFFFFFFFFFFFFFFFFFFFFFFFFFFFFFFFF AND EQ JUMPDEST PUSH2 0x404 JUMPI PUSH1 0x40 MLOAD PUSH32 0x8C379A000000000000000000000000000000000000000000000000000000000 DUP2 MSTORE PUSH1 0x4 ADD PUSH2 0x3FB SWAP1 PUSH2 0x1E33 JUMP JUMPDEST PUSH1 0x40 MLOAD DUP1 SWAP2 SUB SWAP1 REVERT JUMPDEST PUSH1 0x0 PUSH1 0x2 DUP2 GT ISZERO PUSH2 0x418 JUMPI PUSH2 0x417 PUSH2 0x1B0C JUMP JUMPDEST JUMPDEST PUSH1 0x5 PUSH1 0x0 DUP4 DUP2 MSTORE PUSH1 0x20 ADD SWAP1 DUP2 MSTORE PUSH1 0x20 ADD PUSH1 0x0 KECCAK256 PUSH1 0x4 ADD PUSH1 0x0 SWAP1 SLOAD SWAP1 PUSH2 0x100 EXP SWAP1 DIV PUSH1 0xFF AND PUSH1 0x2 DUP2 GT ISZERO PUSH2 0x44E JUMPI PUSH2 0x44D PUSH2 0x1B0C JUMP JUMPDEST JUMPDEST EQ PUSH2 0x48E JUMPI PUSH1 0x40 MLOAD PUSH32 0x8C379A000000000000000000000000000000000000000000000000000000000 DUP2 MSTORE PUSH1 0x4 ADD PUSH2 0x485 SWAP1 PUSH2 0x1E9F JUMP JUMPDEST PUSH1 0x40 MLOAD DUP1 SWAP2 SUB SWAP1 REVERT JUMPDEST PUSH32 0x0 PUSH20 0xFFFFFFFFFFFFFFFFFFFFFFFFFFFFFFFFFFFFFFFF AND PUSH4 0xA9059CBB PUSH1 0x5 PUSH1 0x0 DUP5 DUP2 MSTORE PUSH1 0x20 ADD SWAP1 DUP2 MSTORE PUSH1 0x20 ADD PUSH1 0x0 KECCAK256 PUSH1 0x1 ADD PUSH1 0x0 SWAP1 SLOAD SWAP1 PUSH2 0x100 EXP SWAP1 DIV PUSH20 0xFFFFFFFFFFFFFFFFFFFFFFFFFFFFFFFFFFFFFFFF AND PUSH1 0x5 PUSH1 0x0 DUP6 DUP2 MSTORE PUSH1 0x20 ADD SWAP1 DUP2 MSTORE PUSH1 0x20 ADD PUSH1 0x0 KECCAK256 PUSH1 0x3 ADD SLOAD PUSH1 0x5 PUSH1 0x0 DUP7 DUP2 MSTORE PUSH1 0x20 ADD SWAP1 DUP2 MSTORE PUSH1 0x20 ADD PUSH1 0x0 KECCAK256 PUSH1 0x2 ADD SLOAD PUSH2 0x539 SWAP2 SWAP1 PUSH2 0x1EEE JUMP JUMPDEST PUSH1 0x40 MLOAD DUP4 PUSH4 0xFFFFFFFF AND PUSH1 0xE0 SHL DUP2 MSTORE PUSH1 0x4 ADD PUSH2 0x556 SWAP3 SWAP2 SWAP1 PUSH2 0x1F22 JUMP JUMPDEST PUSH1 0x20 PUSH1 0x40 MLOAD DUP1 DUP4 SUB DUP2 PUSH1 0x0 DUP8 GAS CALL ISZERO DUP1 ISZERO PUSH2 0x575 JUMPI RETURNDATASIZE PUSH1 0x0 DUP1 RETURNDATACOPY RETURNDATASIZE PUSH1 0x0 REVERT JUMPDEST POP POP POP POP PUSH1 0x40 MLOAD RETURNDATASIZE PUSH1 0x1F NOT PUSH1 0x1F DUP3 ADD AND DUP3 ADD DUP1 PUSH1 0x40 MSTORE POP DUP2 ADD SWAP1 PUSH2 0x599 SWAP2 SWAP1 PUSH2 0x1F83 JUMP JUMPDEST POP PUSH32 0x0 PUSH20 0xFFFFFFFFFFFFFFFFFFFFFFFFFFFFFFFFFFFFFFFF AND PUSH4 0xA9059CBB PUSH1 0x1 PUSH1 0x0 SWAP1 SLOAD SWAP1 PUSH2 0x100 EXP SWAP1 DIV PUSH20 0xFFFFFFFFFFFFFFFFFFFFFFFFFFFFFFFFFFFFFFFF AND PUSH1 0x5 PUSH1 0x0 DUP6 DUP2 MSTORE PUSH1 0x20 ADD SWAP1 DUP2 MSTORE PUSH1 0x20 ADD PUSH1 0x0 KECCAK256 PUSH1 0x3 ADD SLOAD PUSH1 0x40 MLOAD DUP4 PUSH4 0xFFFFFFFF AND PUSH1 0xE0 SHL DUP2 MSTORE PUSH1 0x4 ADD PUSH2 0x62D SWAP3 SWAP2 SWAP1 PUSH2 0x1F22 JUMP JUMPDEST PUSH1 0x20 PUSH1 0x40 MLOAD DUP1 DUP4 SUB DUP2 PUSH1 0x0 DUP8 GAS CALL ISZERO DUP1 ISZERO PUSH2 0x64C JUMPI RETURNDATASIZE PUSH1 0x0 DUP1 RETURNDATACOPY RETURNDATASIZE PUSH1 0x0 REVERT JUMPDEST POP POP POP POP PUSH1 0x40 MLOAD RETURNDATASIZE PUSH1 0x1F NOT PUSH1 0x1F DUP3 ADD AND DUP3 ADD DUP1 PUSH1 0x40 MSTORE POP DUP2 ADD SWAP1 PUSH2 0x670 SWAP2 SWAP1 PUSH2 0x1F83 JUMP JUMPDEST POP PUSH1 0x1 PUSH1 0x5 PUSH1 0x0 DUP4 DUP2 MSTORE PUSH1 0x20 ADD SWAP1 DUP2 MSTORE PUSH1 0x20 ADD PUSH1 0x0 KECCAK256 PUSH1 0x4 ADD PUSH1 0x0 PUSH2 0x100 EXP DUP2 SLOAD DUP2 PUSH1 0xFF MUL NOT AND SWAP1 DUP4 PUSH1 0x2 DUP2 GT ISZERO PUSH2 0x6AB JUMPI PUSH2 0x6AA PUSH2 0x1B0C JUMP JUMPDEST JUMPDEST MUL OR SWAP1 SSTORE POP POP JUMP JUMPDEST PUSH2 0x6BB PUSH2 0x171D JUMP JUMPDEST DUP1 PUSH1 0x3 DUP2 SWAP1 SSTORE POP POP JUMP JUMPDEST PUSH2 0x6CD PUSH2 0x171D JUMP JUMPDEST DUP1 PUSH1 0x1 PUSH1 0x0 PUSH2 0x100 EXP DUP2 SLOAD DUP2 PUSH20 0xFFFFFFFFFFFFFFFFFFFFFFFFFFFFFFFFFFFFFFFF MUL NOT AND SWAP1 DUP4 PUSH20 0xFFFFFFFFFFFFFFFFFFFFFFFFFFFFFFFFFFFFFFFF AND MUL OR SWAP1 SSTORE POP POP JUMP JUMPDEST PUSH1 0x0 DUP1 PUSH1 0x0 JUMPDEST PUSH1 0x1 PUSH1 0x6 PUSH1 0x0 DUP8 PUSH20 0xFFFFFFFFFFFFFFFFFFFFFFFFFFFFFFFFFFFFFFFF AND PUSH20 0xFFFFFFFFFFFFFFFFFFFFFFFFFFFFFFFFFFFFFFFF AND DUP2 MSTORE PUSH1 0x20 ADD SWAP1 DUP2 MSTORE PUSH1 0x20 ADD PUSH1 0x0 KECCAK256 DUP1 SLOAD SWAP1 POP PUSH2 0x766 SWAP2 SWAP1 PUSH2 0x1EEE JUMP JUMPDEST DUP2 GT PUSH2 0x837 JUMPI DUP4 PUSH1 0x2 DUP2 GT ISZERO PUSH2 0x77F JUMPI PUSH2 0x77E PUSH2 0x1B0C JUMP JUMPDEST JUMPDEST PUSH1 0x5 PUSH1 0x0 PUSH1 0x6 PUSH1 0x0 DUP10 PUSH20 0xFFFFFFFFFFFFFFFFFFFFFFFFFFFFFFFFFFFFFFFF AND PUSH20 0xFFFFFFFFFFFFFFFFFFFFFFFFFFFFFFFFFFFFFFFF AND DUP2 MSTORE PUSH1 0x20 ADD SWAP1 DUP2 MSTORE PUSH1 0x20 ADD PUSH1 0x0 KECCAK256 DUP5 DUP2 SLOAD DUP2 LT PUSH2 0x7D4 JUMPI PUSH2 0x7D3 PUSH2 0x1FB0 JUMP JUMPDEST JUMPDEST SWAP1 PUSH1 0x0 MSTORE PUSH1 0x20 PUSH1 0x0 KECCAK256 ADD SLOAD DUP2 MSTORE PUSH1 0x20 ADD SWAP1 DUP2 MSTORE PUSH1 0x20 ADD PUSH1 0x0 KECCAK256 PUSH1 0x4 ADD PUSH1 0x0 SWAP1 SLOAD SWAP1 PUSH2 0x100 EXP SWAP1 DIV PUSH1 0xFF AND PUSH1 0x2 DUP2 GT ISZERO PUSH2 0x810 JUMPI PUSH2 0x80F PUSH2 0x1B0C JUMP JUMPDEST JUMPDEST SUB PUSH2 0x824 JUMPI DUP2 DUP1 PUSH2 0x820 SWAP1 PUSH2 0x1FDF JUMP JUMPDEST SWAP3 POP POP JUMPDEST DUP1 DUP1 PUSH2 0x82F SWAP1 PUSH2 0x1FDF JUMP JUMPDEST SWAP2 POP POP PUSH2 0x717 JUMP JUMPDEST POP DUP1 SWAP2 POP POP SWAP3 SWAP2 POP POP JUMP JUMPDEST PUSH1 0x0 ADDRESS PUSH20 0xFFFFFFFFFFFFFFFFFFFFFFFFFFFFFFFFFFFFFFFF AND CALLER PUSH20 0xFFFFFFFFFFFFFFFFFFFFFFFFFFFFFFFFFFFFFFFF AND SUB PUSH2 0x8B2 JUMPI PUSH1 0x40 MLOAD PUSH32 0x8C379A000000000000000000000000000000000000000000000000000000000 DUP2 MSTORE PUSH1 0x4 ADD PUSH2 0x8A9 SWAP1 PUSH2 0x2073 JUMP JUMPDEST PUSH1 0x40 MLOAD DUP1 SWAP2 SUB SWAP1 REVERT JUMPDEST PUSH1 0x2 PUSH1 0x0 DUP2 SLOAD DUP1 SWAP3 SWAP2 SWAP1 PUSH2 0x8C5 SWAP1 PUSH2 0x1FDF JUMP JUMPDEST SWAP2 SWAP1 POP SSTORE POP PUSH1 0x0 PUSH2 0x8E2 PUSH2 0x8DB DUP6 PUSH1 0x3 SLOAD PUSH2 0x179B JUMP JUMPDEST PUSH1 0x64 PUSH2 0x17B1 JUMP JUMPDEST SWAP1 POP PUSH1 0x40 MLOAD DUP1 PUSH1 0xA0 ADD PUSH1 0x40 MSTORE DUP1 CALLER PUSH20 0xFFFFFFFFFFFFFFFFFFFFFFFFFFFFFFFFFFFFFFFF AND DUP2 MSTORE PUSH1 0x20 ADD DUP5 PUSH20 0xFFFFFFFFFFFFFFFFFFFFFFFFFFFFFFFFFFFFFFFF AND DUP2 MSTORE PUSH1 0x20 ADD DUP6 DUP2 MSTORE PUSH1 0x20 ADD DUP3 DUP2 MSTORE PUSH1 0x20 ADD PUSH1 0x0 PUSH1 0x2 DUP2 GT ISZERO PUSH2 0x947 JUMPI PUSH2 0x946 PUSH2 0x1B0C JUMP JUMPDEST JUMPDEST DUP2 MSTORE POP PUSH1 0x5 PUSH1 0x0 PUSH1 0x2 SLOAD DUP2 MSTORE PUSH1 0x20 ADD SWAP1 DUP2 MSTORE PUSH1 0x20 ADD PUSH1 0x0 KECCAK256 PUSH1 0x0 DUP3 ADD MLOAD DUP2 PUSH1 0x0 ADD PUSH1 0x0 PUSH2 0x100 EXP DUP2 SLOAD DUP2 PUSH20 0xFFFFFFFFFFFFFFFFFFFFFFFFFFFFFFFFFFFFFFFF MUL NOT AND SWAP1 DUP4 PUSH20 0xFFFFFFFFFFFFFFFFFFFFFFFFFFFFFFFFFFFFFFFF AND MUL OR SWAP1 SSTORE POP PUSH1 0x20 DUP3 ADD MLOAD DUP2 PUSH1 0x1 ADD PUSH1 0x0 PUSH2 0x100 EXP DUP2 SLOAD DUP2 PUSH20 0xFFFFFFFFFFFFFFFFFFFFFFFFFFFFFFFFFFFFFFFF MUL NOT AND SWAP1 DUP4 PUSH20 0xFFFFFFFFFFFFFFFFFFFFFFFFFFFFFFFFFFFFFFFF AND MUL OR SWAP1 SSTORE POP PUSH1 0x40 DUP3 ADD MLOAD DUP2 PUSH1 0x2 ADD SSTORE PUSH1 0x60 DUP3 ADD MLOAD DUP2 PUSH1 0x3 ADD SSTORE PUSH1 0x80 DUP3 ADD MLOAD DUP2 PUSH1 0x4 ADD PUSH1 0x0 PUSH2 0x100 EXP DUP2 SLOAD DUP2 PUSH1 0xFF MUL NOT AND SWAP1 DUP4 PUSH1 0x2 DUP2 GT ISZERO PUSH2 0xA2C JUMPI PUSH2 0xA2B PUSH2 0x1B0C JUMP JUMPDEST JUMPDEST MUL OR SWAP1 SSTORE POP SWAP1 POP POP PUSH1 0x6 PUSH1 0x0 CALLER PUSH20 0xFFFFFFFFFFFFFFFFFFFFFFFFFFFFFFFFFFFFFFFF AND PUSH20 0xFFFFFFFFFFFFFFFFFFFFFFFFFFFFFFFFFFFFFFFF AND DUP2 MSTORE PUSH1 0x20 ADD SWAP1 DUP2 MSTORE PUSH1 0x20 ADD PUSH1 0x0 KECCAK256 PUSH1 0x2 SLOAD SWAP1 DUP1 PUSH1 0x1 DUP2 SLOAD ADD DUP1 DUP3 SSTORE DUP1 SWAP2 POP POP PUSH1 0x1 SWAP1 SUB SWAP1 PUSH1 0x0 MSTORE PUSH1 0x20 PUSH1 0x0 KECCAK256 ADD PUSH1 0x0 SWAP1 SWAP2 SWAP1 SWAP2 SWAP1 SWAP2 POP SSTORE PUSH1 0x7 PUSH1 0x0 DUP5 PUSH20 0xFFFFFFFFFFFFFFFFFFFFFFFFFFFFFFFFFFFFFFFF AND PUSH20 0xFFFFFFFFFFFFFFFFFFFFFFFFFFFFFFFFFFFFFFFF AND DUP2 MSTORE PUSH1 0x20 ADD SWAP1 DUP2 MSTORE PUSH1 0x20 ADD PUSH1 0x0 KECCAK256 PUSH1 0x2 SLOAD SWAP1 DUP1 PUSH1 0x1 DUP2 SLOAD ADD DUP1 DUP3 SSTORE DUP1 SWAP2 POP POP PUSH1 0x1 SWAP1 SUB SWAP1 PUSH1 0x0 MSTORE PUSH1 0x20 PUSH1 0x0 KECCAK256 ADD PUSH1 0x0 SWAP1 SWAP2 SWAP1 SWAP2 SWAP1 SWAP2 POP SSTORE PUSH32 0x0 PUSH20 0xFFFFFFFFFFFFFFFFFFFFFFFFFFFFFFFFFFFFFFFF AND PUSH4 0x23B872DD CALLER ADDRESS DUP8 PUSH1 0x40 MLOAD DUP5 PUSH4 0xFFFFFFFF AND PUSH1 0xE0 SHL DUP2 MSTORE PUSH1 0x4 ADD PUSH2 0xB61 SWAP4 SWAP3 SWAP2 SWAP1 PUSH2 0x2093 JUMP JUMPDEST PUSH1 0x20 PUSH1 0x40 MLOAD DUP1 DUP4 SUB DUP2 PUSH1 0x0 DUP8 GAS CALL ISZERO DUP1 ISZERO PUSH2 0xB80 JUMPI RETURNDATASIZE PUSH1 0x0 DUP1 RETURNDATACOPY RETURNDATASIZE PUSH1 0x0 REVERT JUMPDEST POP POP POP POP PUSH1 0x40 MLOAD RETURNDATASIZE PUSH1 0x1F NOT PUSH1 0x1F DUP3 ADD AND DUP3 ADD DUP1 PUSH1 0x40 MSTORE POP DUP2 ADD SWAP1 PUSH2 0xBA4 SWAP2 SWAP1 PUSH2 0x1F83 JUMP JUMPDEST POP PUSH32 0xA410C0B2147789B142A123A44F5490D1B3AB98A16E28F278F3DF56383D93C626 CALLER DUP5 DUP7 PUSH1 0x2 SLOAD TIMESTAMP PUSH1 0x40 MLOAD PUSH2 0xBDE SWAP6 SWAP5 SWAP4 SWAP3 SWAP2 SWAP1 PUSH2 0x20CA JUMP JUMPDEST PUSH1 0x40 MLOAD DUP1 SWAP2 SUB SWAP1 LOG1 PUSH1 0x2 SLOAD SWAP2 POP POP SWAP3 SWAP2 POP POP JUMP JUMPDEST CALLER PUSH20 0xFFFFFFFFFFFFFFFFFFFFFFFFFFFFFFFFFFFFFFFF AND PUSH1 0x5 PUSH1 0x0 DUP4 DUP2 MSTORE PUSH1 0x20 ADD SWAP1 DUP2 MSTORE PUSH1 0x20 ADD PUSH1 0x0 KECCAK256 PUSH1 0x0 ADD PUSH1 0x0 SWAP1 SLOAD SWAP1 PUSH2 0x100 EXP SWAP1 DIV PUSH20 0xFFFFFFFFFFFFFFFFFFFFFFFFFFFFFFFFFFFFFFFF AND PUSH20 0xFFFFFFFFFFFFFFFFFFFFFFFFFFFFFFFFFFFFFFFF AND EQ DUP1 PUSH2 0xC94 JUMPI POP CALLER PUSH20 0xFFFFFFFFFFFFFFFFFFFFFFFFFFFFFFFFFFFFFFFF AND PUSH2 0xC7C PUSH2 0x12F6 JUMP JUMPDEST PUSH20 0xFFFFFFFFFFFFFFFFFFFFFFFFFFFFFFFFFFFFFFFF AND EQ JUMPDEST PUSH2 0xCD3 JUMPI PUSH1 0x40 MLOAD PUSH32 0x8C379A000000000000000000000000000000000000000000000000000000000 DUP2 MSTORE PUSH1 0x4 ADD PUSH2 0xCCA SWAP1 PUSH2 0x1E33 JUMP JUMPDEST PUSH1 0x40 MLOAD DUP1 SWAP2 SUB SWAP1 REVERT JUMPDEST PUSH1 0x0 PUSH1 0x2 DUP2 GT ISZERO PUSH2 0xCE7 JUMPI PUSH2 0xCE6 PUSH2 0x1B0C JUMP JUMPDEST JUMPDEST PUSH1 0x5 PUSH1 0x0 DUP4 DUP2 MSTORE PUSH1 0x20 ADD SWAP1 DUP2 MSTORE PUSH1 0x20 ADD PUSH1 0x0 KECCAK256 PUSH1 0x4 ADD PUSH1 0x0 SWAP1 SLOAD SWAP1 PUSH2 0x100 EXP SWAP1 DIV PUSH1 0xFF AND PUSH1 0x2 DUP2 GT ISZERO PUSH2 0xD1D JUMPI PUSH2 0xD1C PUSH2 0x1B0C JUMP JUMPDEST JUMPDEST EQ PUSH2 0xD5D JUMPI PUSH1 0x40 MLOAD PUSH32 0x8C379A000000000000000000000000000000000000000000000000000000000 DUP2 MSTORE PUSH1 0x4 ADD PUSH2 0xD54 SWAP1 PUSH2 0x1E9F JUMP JUMPDEST PUSH1 0x40 MLOAD DUP1 SWAP2 SUB SWAP1 REVERT JUMPDEST PUSH1 0x0 PUSH1 0x4 SLOAD SUB PUSH2 0xE57 JUMPI PUSH32 0x0 PUSH20 0xFFFFFFFFFFFFFFFFFFFFFFFFFFFFFFFFFFFFFFFF AND PUSH4 0xA9059CBB PUSH1 0x5 PUSH1 0x0 DUP5 DUP2 MSTORE PUSH1 0x20 ADD SWAP1 DUP2 MSTORE PUSH1 0x20 ADD PUSH1 0x0 KECCAK256 PUSH1 0x0 ADD PUSH1 0x0 SWAP1 SLOAD SWAP1 PUSH2 0x100 EXP SWAP1 DIV PUSH20 0xFFFFFFFFFFFFFFFFFFFFFFFFFFFFFFFFFFFFFFFF AND PUSH1 0x5 PUSH1 0x0 DUP6 DUP2 MSTORE PUSH1 0x20 ADD SWAP1 DUP2 MSTORE PUSH1 0x20 ADD PUSH1 0x0 KECCAK256 PUSH1 0x2 ADD SLOAD PUSH1 0x40 MLOAD DUP4 PUSH4 0xFFFFFFFF AND PUSH1 0xE0 SHL DUP2 MSTORE PUSH1 0x4 ADD PUSH2 0xE0E SWAP3 SWAP2 SWAP1 PUSH2 0x1F22 JUMP JUMPDEST PUSH1 0x20 PUSH1 0x40 MLOAD DUP1 DUP4 SUB DUP2 PUSH1 0x0 DUP8 GAS CALL ISZERO DUP1 ISZERO PUSH2 0xE2D JUMPI RETURNDATASIZE PUSH1 0x0 DUP1 RETURNDATACOPY RETURNDATASIZE PUSH1 0x0 REVERT JUMPDEST POP POP POP POP PUSH1 0x40 MLOAD RETURNDATASIZE PUSH1 0x1F NOT PUSH1 0x1F DUP3 ADD AND DUP3 ADD DUP1 PUSH1 0x40 MSTORE POP DUP2 ADD SWAP1 PUSH2 0xE51 SWAP2 SWAP1 PUSH2 0x1F83 JUMP JUMPDEST POP PUSH2 0x1040 JUMP JUMPDEST PUSH1 0x0 PUSH2 0xE85 PUSH2 0xE7E PUSH1 0x5 PUSH1 0x0 DUP6 DUP2 MSTORE PUSH1 0x20 ADD SWAP1 DUP2 MSTORE PUSH1 0x20 ADD PUSH1 0x0 KECCAK256 PUSH1 0x2 ADD SLOAD PUSH1 0x4 SLOAD PUSH2 0x179B JUMP JUMPDEST PUSH1 0x64 PUSH2 0x17B1 JUMP JUMPDEST SWAP1 POP PUSH32 0x0 PUSH20 0xFFFFFFFFFFFFFFFFFFFFFFFFFFFFFFFFFFFFFFFF AND PUSH4 0xA9059CBB PUSH1 0x5 PUSH1 0x0 DUP6 DUP2 MSTORE PUSH1 0x20 ADD SWAP1 DUP2 MSTORE PUSH1 0x20 ADD PUSH1 0x0 KECCAK256 PUSH1 0x0 ADD PUSH1 0x0 SWAP1 SLOAD SWAP1 PUSH2 0x100 EXP SWAP1 DIV PUSH20 0xFFFFFFFFFFFFFFFFFFFFFFFFFFFFFFFFFFFFFFFF AND DUP4 PUSH1 0x5 PUSH1 0x0 DUP8 DUP2 MSTORE PUSH1 0x20 ADD SWAP1 DUP2 MSTORE PUSH1 0x20 ADD PUSH1 0x0 KECCAK256 PUSH1 0x2 ADD SLOAD PUSH2 0xF1C SWAP2 SWAP1 PUSH2 0x1EEE JUMP JUMPDEST PUSH1 0x40 MLOAD DUP4 PUSH4 0xFFFFFFFF AND PUSH1 0xE0 SHL DUP2 MSTORE PUSH1 0x4 ADD PUSH2 0xF39 SWAP3 SWAP2 SWAP1 PUSH2 0x1F22 JUMP JUMPDEST PUSH1 0x20 PUSH1 0x40 MLOAD DUP1 DUP4 SUB DUP2 PUSH1 0x0 DUP8 GAS CALL ISZERO DUP1 ISZERO PUSH2 0xF58 JUMPI RETURNDATASIZE PUSH1 0x0 DUP1 RETURNDATACOPY RETURNDATASIZE PUSH1 0x0 REVERT JUMPDEST POP POP POP POP PUSH1 0x40 MLOAD RETURNDATASIZE PUSH1 0x1F NOT PUSH1 0x1F DUP3 ADD AND DUP3 ADD DUP1 PUSH1 0x40 MSTORE POP DUP2 ADD SWAP1 PUSH2 0xF7C SWAP2 SWAP1 PUSH2 0x1F83 JUMP JUMPDEST POP PUSH32 0x0 PUSH20 0xFFFFFFFFFFFFFFFFFFFFFFFFFFFFFFFFFFFFFFFF AND PUSH4 0xA9059CBB PUSH1 0x1 PUSH1 0x0 SWAP1 SLOAD SWAP1 PUSH2 0x100 EXP SWAP1 DIV PUSH20 0xFFFFFFFFFFFFFFFFFFFFFFFFFFFFFFFFFFFFFFFF AND DUP4 PUSH1 0x40 MLOAD DUP4 PUSH4 0xFFFFFFFF AND PUSH1 0xE0 SHL DUP2 MSTORE PUSH1 0x4 ADD PUSH2 0xFFA SWAP3 SWAP2 SWAP1 PUSH2 0x1F22 JUMP JUMPDEST PUSH1 0x20 PUSH1 0x40 MLOAD DUP1 DUP4 SUB DUP2 PUSH1 0x0 DUP8 GAS CALL ISZERO DUP1 ISZERO PUSH2 0x1019 JUMPI RETURNDATASIZE PUSH1 0x0 DUP1 RETURNDATACOPY RETURNDATASIZE PUSH1 0x0 REVERT JUMPDEST POP POP POP POP PUSH1 0x40 MLOAD RETURNDATASIZE PUSH1 0x1F NOT PUSH1 0x1F DUP3 ADD AND DUP3 ADD DUP1 PUSH1 0x40 MSTORE POP DUP2 ADD SWAP1 PUSH2 0x103D SWAP2 SWAP1 PUSH2 0x1F83 JUMP JUMPDEST POP POP JUMPDEST PUSH1 0x2 PUSH1 0x5 PUSH1 0x0 DUP4 DUP2 MSTORE PUSH1 0x20 ADD SWAP1 DUP2 MSTORE PUSH1 0x20 ADD PUSH1 0x0 KECCAK256 PUSH1 0x4 ADD PUSH1 0x0 PUSH2 0x100 EXP DUP2 SLOAD DUP2 PUSH1 0xFF MUL NOT AND SWAP1 DUP4 PUSH1 0x2 DUP2 GT ISZERO PUSH2 0x107A JUMPI PUSH2 0x1079 PUSH2 0x1B0C JUMP JUMPDEST JUMPDEST MUL OR SWAP1 SSTORE POP POP JUMP JUMPDEST PUSH2 0x108A PUSH2 0x171D JUMP JUMPDEST PUSH2 0x1094 PUSH1 0x0 PUSH2 0x17C7 JUMP JUMPDEST JUMP JUMPDEST PUSH1 0x60 PUSH1 0x0 PUSH1 0x7 PUSH1 0x0 CALLER PUSH20 0xFFFFFFFFFFFFFFFFFFFFFFFFFFFFFFFFFFFFFFFF AND PUSH20 0xFFFFFFFFFFFFFFFFFFFFFFFFFFFFFFFFFFFFFFFF AND DUP2 MSTORE PUSH1 0x20 ADD SWAP1 DUP2 MSTORE PUSH1 0x20 ADD PUSH1 0x0 KECCAK256 DUP1 SLOAD SWAP1 POP SWAP1 POP PUSH1 0x0 DUP2 PUSH8 0xFFFFFFFFFFFFFFFF DUP2 GT ISZERO PUSH2 0x10FB JUMPI PUSH2 0x10FA PUSH2 0x211D JUMP JUMPDEST JUMPDEST PUSH1 0x40 MLOAD SWAP1 DUP1 DUP3 MSTORE DUP1 PUSH1 0x20 MUL PUSH1 0x20 ADD DUP3 ADD PUSH1 0x40 MSTORE DUP1 ISZERO PUSH2 0x1134 JUMPI DUP2 PUSH1 0x20 ADD JUMPDEST PUSH2 0x1121 PUSH2 0x1893 JUMP JUMPDEST DUP2 MSTORE PUSH1 0x20 ADD SWAP1 PUSH1 0x1 SWAP1 SUB SWAP1 DUP2 PUSH2 0x1119 JUMPI SWAP1 POP JUMPDEST POP SWAP1 POP PUSH1 0x0 JUMPDEST DUP3 DUP2 LT ISZERO PUSH2 0x12ED JUMPI PUSH1 0x0 PUSH1 0x5 PUSH1 0x0 PUSH1 0x7 PUSH1 0x0 CALLER PUSH20 0xFFFFFFFFFFFFFFFFFFFFFFFFFFFFFFFFFFFFFFFF AND PUSH20 0xFFFFFFFFFFFFFFFFFFFFFFFFFFFFFFFFFFFFFFFF AND DUP2 MSTORE PUSH1 0x20 ADD SWAP1 DUP2 MSTORE PUSH1 0x20 ADD PUSH1 0x0 KECCAK256 DUP5 DUP2 SLOAD DUP2 LT PUSH2 0x1199 JUMPI PUSH2 0x1198 PUSH2 0x1FB0 JUMP JUMPDEST JUMPDEST SWAP1 PUSH1 0x0 MSTORE PUSH1 0x20 PUSH1 0x0 KECCAK256 ADD SLOAD DUP2 MSTORE PUSH1 0x20 ADD SWAP1 DUP2 MSTORE PUSH1 0x20 ADD PUSH1 0x0 KECCAK256 SWAP1 POP DUP1 PUSH1 0x40 MLOAD DUP1 PUSH1 0xA0 ADD PUSH1 0x40 MSTORE SWAP1 DUP2 PUSH1 0x0 DUP3 ADD PUSH1 0x0 SWAP1 SLOAD SWAP1 PUSH2 0x100 EXP SWAP1 DIV PUSH20 0xFFFFFFFFFFFFFFFFFFFFFFFFFFFFFFFFFFFFFFFF AND PUSH20 0xFFFFFFFFFFFFFFFFFFFFFFFFFFFFFFFFFFFFFFFF AND PUSH20 0xFFFFFFFFFFFFFFFFFFFFFFFFFFFFFFFFFFFFFFFF AND DUP2 MSTORE PUSH1 0x20 ADD PUSH1 0x1 DUP3 ADD PUSH1 0x0 SWAP1 SLOAD SWAP1 PUSH2 0x100 EXP SWAP1 DIV PUSH20 0xFFFFFFFFFFFFFFFFFFFFFFFFFFFFFFFFFFFFFFFF AND PUSH20 0xFFFFFFFFFFFFFFFFFFFFFFFFFFFFFFFFFFFFFFFF AND PUSH20 0xFFFFFFFFFFFFFFFFFFFFFFFFFFFFFFFFFFFFFFFF AND DUP2 MSTORE PUSH1 0x20 ADD PUSH1 0x2 DUP3 ADD SLOAD DUP2 MSTORE PUSH1 0x20 ADD PUSH1 0x3 DUP3 ADD SLOAD DUP2 MSTORE PUSH1 0x20 ADD PUSH1 0x4 DUP3 ADD PUSH1 0x0 SWAP1 SLOAD SWAP1 PUSH2 0x100 EXP SWAP1 DIV PUSH1 0xFF AND PUSH1 0x2 DUP2 GT ISZERO PUSH2 0x12A5 JUMPI PUSH2 0x12A4 PUSH2 0x1B0C JUMP JUMPDEST JUMPDEST PUSH1 0x2 DUP2 GT ISZERO PUSH2 0x12B7 JUMPI PUSH2 0x12B6 PUSH2 0x1B0C JUMP JUMPDEST JUMPDEST DUP2 MSTORE POP POP DUP4 DUP4 DUP2 MLOAD DUP2 LT PUSH2 0x12CE JUMPI PUSH2 0x12CD PUSH2 0x1FB0 JUMP JUMPDEST JUMPDEST PUSH1 0x20 MUL PUSH1 0x20 ADD ADD DUP2 SWAP1 MSTORE POP POP DUP1 DUP1 PUSH2 0x12E5 SWAP1 PUSH2 0x1FDF JUMP JUMPDEST SWAP2 POP POP PUSH2 0x113A JUMP JUMPDEST POP DUP1 SWAP3 POP POP POP SWAP1 JUMP JUMPDEST PUSH1 0x0 DUP1 PUSH1 0x0 SWAP1 SLOAD SWAP1 PUSH2 0x100 EXP SWAP1 DIV PUSH20 0xFFFFFFFFFFFFFFFFFFFFFFFFFFFFFFFFFFFFFFFF AND SWAP1 POP SWAP1 JUMP JUMPDEST PUSH1 0x6 PUSH1 0x20 MSTORE DUP2 PUSH1 0x0 MSTORE PUSH1 0x40 PUSH1 0x0 KECCAK256 DUP2 DUP2 SLOAD DUP2 LT PUSH2 0x133B JUMPI PUSH1 0x0 DUP1 REVERT JUMPDEST SWAP1 PUSH1 0x0 MSTORE PUSH1 0x20 PUSH1 0x0 KECCAK256 ADD PUSH1 0x0 SWAP2 POP SWAP2 POP POP SLOAD DUP2 JUMP JUMPDEST PUSH1 0x60 PUSH1 0x0 PUSH1 0x6 PUSH1 0x0 CALLER PUSH20 0xFFFFFFFFFFFFFFFFFFFFFFFFFFFFFFFFFFFFFFFF AND PUSH20 0xFFFFFFFFFFFFFFFFFFFFFFFFFFFFFFFFFFFFFFFF AND DUP2 MSTORE PUSH1 0x20 ADD SWAP1 DUP2 MSTORE PUSH1 0x20 ADD PUSH1 0x0 KECCAK256 DUP1 SLOAD SWAP1 POP SWAP1 POP PUSH1 0x0 DUP2 PUSH8 0xFFFFFFFFFFFFFFFF DUP2 GT ISZERO PUSH2 0x13B5 JUMPI PUSH2 0x13B4 PUSH2 0x211D JUMP JUMPDEST JUMPDEST PUSH1 0x40 MLOAD SWAP1 DUP1 DUP3 MSTORE DUP1 PUSH1 0x20 MUL PUSH1 0x20 ADD DUP3 ADD PUSH1 0x40 MSTORE DUP1 ISZERO PUSH2 0x13EE JUMPI DUP2 PUSH1 0x20 ADD JUMPDEST PUSH2 0x13DB PUSH2 0x1893 JUMP JUMPDEST DUP2 MSTORE PUSH1 0x20 ADD SWAP1 PUSH1 0x1 SWAP1 SUB SWAP1 DUP2 PUSH2 0x13D3 JUMPI SWAP1 POP JUMPDEST POP SWAP1 POP PUSH1 0x0 JUMPDEST DUP3 DUP2 LT ISZERO PUSH2 0x15A7 JUMPI PUSH1 0x0 PUSH1 0x5 PUSH1 0x0 PUSH1 0x6 PUSH1 0x0 CALLER PUSH20 0xFFFFFFFFFFFFFFFFFFFFFFFFFFFFFFFFFFFFFFFF AND PUSH20 0xFFFFFFFFFFFFFFFFFFFFFFFFFFFFFFFFFFFFFFFF AND DUP2 MSTORE PUSH1 0x20 ADD SWAP1 DUP2 MSTORE PUSH1 0x20 ADD PUSH1 0x0 KECCAK256 DUP5 DUP2 SLOAD DUP2 LT PUSH2 0x1453 JUMPI PUSH2 0x1452 PUSH2 0x1FB0 JUMP JUMPDEST JUMPDEST SWAP1 PUSH1 0x0 MSTORE PUSH1 0x20 PUSH1 0x0 KECCAK256 ADD SLOAD DUP2 MSTORE PUSH1 0x20 ADD SWAP1 DUP2 MSTORE PUSH1 0x20 ADD PUSH1 0x0 KECCAK256 SWAP1 POP DUP1 PUSH1 0x40 MLOAD DUP1 PUSH1 0xA0 ADD PUSH1 0x40 MSTORE SWAP1 DUP2 PUSH1 0x0 DUP3 ADD PUSH1 0x0 SWAP1 SLOAD SWAP1 PUSH2 0x100 EXP SWAP1 DIV PUSH20 0xFFFFFFFFFFFFFFFFFFFFFFFFFFFFFFFFFFFFFFFF AND PUSH20 0xFFFFFFFFFFFFFFFFFFFFFFFFFFFFFFFFFFFFFFFF AND PUSH20 0xFFFFFFFFFFFFFFFFFFFFFFFFFFFFFFFFFFFFFFFF AND DUP2 MSTORE PUSH1 0x20 ADD PUSH1 0x1 DUP3 ADD PUSH1 0x0 SWAP1 SLOAD SWAP1 PUSH2 0x100 EXP SWAP1 DIV PUSH20 0xFFFFFFFFFFFFFFFFFFFFFFFFFFFFFFFFFFFFFFFF AND PUSH20 0xFFFFFFFFFFFFFFFFFFFFFFFFFFFFFFFFFFFFFFFF AND PUSH20 0xFFFFFFFFFFFFFFFFFFFFFFFFFFFFFFFFFFFFFFFF AND DUP2 MSTORE PUSH1 0x20 ADD PUSH1 0x2 DUP3 ADD SLOAD DUP2 MSTORE PUSH1 0x20 ADD PUSH1 0x3 DUP3 ADD SLOAD DUP2 MSTORE PUSH1 0x20 ADD PUSH1 0x4 DUP3 ADD PUSH1 0x0 SWAP1 SLOAD SWAP1 PUSH2 0x100 EXP SWAP1 DIV PUSH1 0xFF AND PUSH1 0x2 DUP2 GT ISZERO PUSH2 0x155F JUMPI PUSH2 0x155E PUSH2 0x1B0C JUMP JUMPDEST JUMPDEST PUSH1 0x2 DUP2 GT ISZERO PUSH2 0x1571 JUMPI PUSH2 0x1570 PUSH2 0x1B0C JUMP JUMPDEST JUMPDEST DUP2 MSTORE POP POP DUP4 DUP4 DUP2 MLOAD DUP2 LT PUSH2 0x1588 JUMPI PUSH2 0x1587 PUSH2 0x1FB0 JUMP JUMPDEST JUMPDEST PUSH1 0x20 MUL PUSH1 0x20 ADD ADD DUP2 SWAP1 MSTORE POP POP DUP1 DUP1 PUSH2 0x159F SWAP1 PUSH2 0x1FDF JUMP JUMPDEST SWAP2 POP POP PUSH2 0x13F4 JUMP JUMPDEST POP DUP1 SWAP3 POP POP POP SWAP1 JUMP JUMPDEST PUSH1 0x7 PUSH1 0x20 MSTORE DUP2 PUSH1 0x0 MSTORE PUSH1 0x40 PUSH1 0x0 KECCAK256 DUP2 DUP2 SLOAD DUP2 LT PUSH2 0x15CC JUMPI PUSH1 0x0 DUP1 REVERT JUMPDEST SWAP1 PUSH1 0x0 MSTORE PUSH1 0x20 PUSH1 0x0 KECCAK256 ADD PUSH1 0x0 SWAP2 POP SWAP2 POP POP SLOAD DUP2 JUMP JUMPDEST PUSH1 0x5 PUSH1 0x20 MSTORE DUP1 PUSH1 0x0 MSTORE PUSH1 0x40 PUSH1 0x0 KECCAK256 PUSH1 0x0 SWAP2 POP SWAP1 POP DUP1 PUSH1 0x0 ADD PUSH1 0x0 SWAP1 SLOAD SWAP1 PUSH2 0x100 EXP SWAP1 DIV PUSH20 0xFFFFFFFFFFFFFFFFFFFFFFFFFFFFFFFFFFFFFFFF AND SWAP1 DUP1 PUSH1 0x1 ADD PUSH1 0x0 SWAP1 SLOAD SWAP1 PUSH2 0x100 EXP SWAP1 DIV PUSH20 0xFFFFFFFFFFFFFFFFFFFFFFFFFFFFFFFFFFFFFFFF AND SWAP1 DUP1 PUSH1 0x2 ADD SLOAD SWAP1 DUP1 PUSH1 0x3 ADD SLOAD SWAP1 DUP1 PUSH1 0x4 ADD PUSH1 0x0 SWAP1 SLOAD SWAP1 PUSH2 0x100 EXP SWAP1 DIV PUSH1 0xFF AND SWAP1 POP DUP6 JUMP JUMPDEST PUSH2 0x166C PUSH2 0x171D JUMP JUMPDEST DUP1 PUSH1 0x4 DUP2 SWAP1 SSTORE POP POP JUMP JUMPDEST PUSH2 0x167E PUSH2 0x171D JUMP JUMPDEST PUSH1 0x0 PUSH20 0xFFFFFFFFFFFFFFFFFFFFFFFFFFFFFFFFFFFFFFFF AND DUP2 PUSH20 0xFFFFFFFFFFFFFFFFFFFFFFFFFFFFFFFFFFFFFFFF AND SUB PUSH2 0x16ED JUMPI PUSH1 0x40 MLOAD PUSH32 0x8C379A000000000000000000000000000000000000000000000000000000000 DUP2 MSTORE PUSH1 0x4 ADD PUSH2 0x16E4 SWAP1 PUSH2 0x21BE JUMP JUMPDEST PUSH1 0x40 MLOAD DUP1 SWAP2 SUB SWAP1 REVERT JUMPDEST PUSH2 0x16F6 DUP2 PUSH2 0x17C7 JUMP JUMPDEST POP JUMP JUMPDEST PUSH32 0x0 DUP2 JUMP JUMPDEST PUSH2 0x1725 PUSH2 0x188B JUMP JUMPDEST PUSH20 0xFFFFFFFFFFFFFFFFFFFFFFFFFFFFFFFFFFFFFFFF AND PUSH2 0x1743 PUSH2 0x12F6 JUMP JUMPDEST PUSH20 0xFFFFFFFFFFFFFFFFFFFFFFFFFFFFFFFFFFFFFFFF AND EQ PUSH2 0x1799 JUMPI PUSH1 0x40 MLOAD PUSH32 0x8C379A000000000000000000000000000000000000000000000000000000000 DUP2 MSTORE PUSH1 0x4 ADD PUSH2 0x1790 SWAP1 PUSH2 0x222A JUMP JUMPDEST PUSH1 0x40 MLOAD DUP1 SWAP2 SUB SWAP1 REVERT JUMPDEST JUMP JUMPDEST PUSH1 0x0 DUP2 DUP4 PUSH2 0x17A9 SWAP2 SWAP1 PUSH2 0x224A JUMP JUMPDEST SWAP1 POP SWAP3 SWAP2 POP POP JUMP JUMPDEST PUSH1 0x0 DUP2 DUP4 PUSH2 0x17BF SWAP2 SWAP1 PUSH2 0x22D3 JUMP JUMPDEST SWAP1 POP SWAP3 SWAP2 POP POP JUMP JUMPDEST PUSH1 0x0 DUP1 PUSH1 0x0 SWAP1 SLOAD SWAP1 PUSH2 0x100 EXP SWAP1 DIV PUSH20 0xFFFFFFFFFFFFFFFFFFFFFFFFFFFFFFFFFFFFFFFF AND SWAP1 POP DUP2 PUSH1 0x0 DUP1 PUSH2 0x100 EXP DUP2 SLOAD DUP2 PUSH20 0xFFFFFFFFFFFFFFFFFFFFFFFFFFFFFFFFFFFFFFFF MUL NOT AND SWAP1 DUP4 PUSH20 0xFFFFFFFFFFFFFFFFFFFFFFFFFFFFFFFFFFFFFFFF AND MUL OR SWAP1 SSTORE POP DUP2 PUSH20 0xFFFFFFFFFFFFFFFFFFFFFFFFFFFFFFFFFFFFFFFF AND DUP2 PUSH20 0xFFFFFFFFFFFFFFFFFFFFFFFFFFFFFFFFFFFFFFFF AND PUSH32 0x8BE0079C531659141344CD1FD0A4F28419497F9722A3DAAFE3B4186F6B6457E0 PUSH1 0x40 MLOAD PUSH1 0x40 MLOAD DUP1 SWAP2 SUB SWAP1 LOG3 POP POP JUMP JUMPDEST PUSH1 0x0 CALLER SWAP1 POP SWAP1 JUMP JUMPDEST PUSH1 0x40 MLOAD DUP1 PUSH1 0xA0 ADD PUSH1 0x40 MSTORE DUP1 PUSH1 0x0 PUSH20 0xFFFFFFFFFFFFFFFFFFFFFFFFFFFFFFFFFFFFFFFF AND DUP2 MSTORE PUSH1 0x20 ADD PUSH1 0x0 PUSH20 0xFFFFFFFFFFFFFFFFFFFFFFFFFFFFFFFFFFFFFFFF AND DUP2 MSTORE PUSH1 0x20 ADD PUSH1 0x0 DUP2 MSTORE PUSH1 0x20 ADD PUSH1 0x0 DUP2 MSTORE PUSH1 0x20 ADD PUSH1 0x0 PUSH1 0x2 DUP2 GT ISZERO PUSH2 0x18FA JUMPI PUSH2 0x18F9 PUSH2 0x1B0C JUMP JUMPDEST JUMPDEST DUP2 MSTORE POP SWAP1 JUMP JUMPDEST PUSH1 0x0 DUP1 REVERT JUMPDEST PUSH1 0x0 DUP2 SWAP1 POP SWAP2 SWAP1 POP JUMP JUMPDEST PUSH2 0x1918 DUP2 PUSH2 0x1905 JUMP JUMPDEST DUP2 EQ PUSH2 0x1923 JUMPI PUSH1 0x0 DUP1 REVERT JUMPDEST POP JUMP JUMPDEST PUSH1 0x0 DUP2 CALLDATALOAD SWAP1 POP PUSH2 0x1935 DUP2 PUSH2 0x190F JUMP JUMPDEST SWAP3 SWAP2 POP POP JUMP JUMPDEST PUSH1 0x0 PUSH1 0x20 DUP3 DUP5 SUB SLT ISZERO PUSH2 0x1951 JUMPI PUSH2 0x1950 PUSH2 0x1900 JUMP JUMPDEST JUMPDEST PUSH1 0x0 PUSH2 0x195F DUP5 DUP3 DUP6 ADD PUSH2 0x1926 JUMP JUMPDEST SWAP2 POP POP SWAP3 SWAP2 POP POP JUMP JUMPDEST PUSH1 0x0 PUSH20 0xFFFFFFFFFFFFFFFFFFFFFFFFFFFFFFFFFFFFFFFF DUP3 AND SWAP1 POP SWAP2 SWAP1 POP JUMP JUMPDEST PUSH1 0x0 PUSH2 0x1993 DUP3 PUSH2 0x1968 JUMP JUMPDEST SWAP1 POP SWAP2 SWAP1 POP JUMP JUMPDEST PUSH2 0x19A3 DUP2 PUSH2 0x1988 JUMP JUMPDEST DUP2 EQ PUSH2 0x19AE JUMPI PUSH1 0x0 DUP1 REVERT JUMPDEST POP JUMP JUMPDEST PUSH1 0x0 DUP2 CALLDATALOAD SWAP1 POP PUSH2 0x19C0 DUP2 PUSH2 0x199A JUMP JUMPDEST SWAP3 SWAP2 POP POP JUMP JUMPDEST PUSH1 0x0 PUSH1 0x20 DUP3 DUP5 SUB SLT ISZERO PUSH2 0x19DC JUMPI PUSH2 0x19DB PUSH2 0x1900 JUMP JUMPDEST JUMPDEST PUSH1 0x0 PUSH2 0x19EA DUP5 DUP3 DUP6 ADD PUSH2 0x19B1 JUMP JUMPDEST SWAP2 POP POP SWAP3 SWAP2 POP POP JUMP JUMPDEST PUSH1 0x3 DUP2 LT PUSH2 0x1A00 JUMPI PUSH1 0x0 DUP1 REVERT JUMPDEST POP JUMP JUMPDEST PUSH1 0x0 DUP2 CALLDATALOAD SWAP1 POP PUSH2 0x1A12 DUP2 PUSH2 0x19F3 JUMP JUMPDEST SWAP3 SWAP2 POP POP JUMP JUMPDEST PUSH1 0x0 DUP1 PUSH1 0x40 DUP4 DUP6 SUB SLT ISZERO PUSH2 0x1A2F JUMPI PUSH2 0x1A2E PUSH2 0x1900 JUMP JUMPDEST JUMPDEST PUSH1 0x0 PUSH2 0x1A3D DUP6 DUP3 DUP7 ADD PUSH2 0x19B1 JUMP JUMPDEST SWAP3 POP POP PUSH1 0x20 PUSH2 0x1A4E DUP6 DUP3 DUP7 ADD PUSH2 0x1A03 JUMP JUMPDEST SWAP2 POP POP SWAP3 POP SWAP3 SWAP1 POP JUMP JUMPDEST PUSH2 0x1A61 DUP2 PUSH2 0x1905 JUMP JUMPDEST DUP3 MSTORE POP POP JUMP JUMPDEST PUSH1 0x0 PUSH1 0x20 DUP3 ADD SWAP1 POP PUSH2 0x1A7C PUSH1 0x0 DUP4 ADD DUP5 PUSH2 0x1A58 JUMP JUMPDEST SWAP3 SWAP2 POP POP JUMP JUMPDEST PUSH1 0x0 DUP1 PUSH1 0x40 DUP4 DUP6 SUB SLT ISZERO PUSH2 0x1A99 JUMPI PUSH2 0x1A98 PUSH2 0x1900 JUMP JUMPDEST JUMPDEST PUSH1 0x0 PUSH2 0x1AA7 DUP6 DUP3 DUP7 ADD PUSH2 0x1926 JUMP JUMPDEST SWAP3 POP POP PUSH1 0x20 PUSH2 0x1AB8 DUP6 DUP3 DUP7 ADD PUSH2 0x19B1 JUMP JUMPDEST SWAP2 POP POP SWAP3 POP SWAP3 SWAP1 POP JUMP JUMPDEST PUSH1 0x0 DUP2 MLOAD SWAP1 POP SWAP2 SWAP1 POP JUMP JUMPDEST PUSH1 0x0 DUP3 DUP3 MSTORE PUSH1 0x20 DUP3 ADD SWAP1 POP SWAP3 SWAP2 POP POP JUMP JUMPDEST PUSH1 0x0 DUP2 SWAP1 POP PUSH1 0x20 DUP3 ADD SWAP1 POP SWAP2 SWAP1 POP JUMP JUMPDEST PUSH2 0x1AF7 DUP2 PUSH2 0x1988 JUMP JUMPDEST DUP3 MSTORE POP POP JUMP JUMPDEST PUSH2 0x1B06 DUP2 PUSH2 0x1905 JUMP JUMPDEST DUP3 MSTORE POP POP JUMP JUMPDEST PUSH32 0x4E487B7100000000000000000000000000000000000000000000000000000000 PUSH1 0x0 MSTORE PUSH1 0x21 PUSH1 0x4 MSTORE PUSH1 0x24 PUSH1 0x0 REVERT JUMPDEST PUSH1 0x3 DUP2 LT PUSH2 0x1B4C JUMPI PUSH2 0x1B4B PUSH2 0x1B0C JUMP JUMPDEST JUMPDEST POP JUMP JUMPDEST PUSH1 0x0 DUP2 SWAP1 POP PUSH2 0x1B5D DUP3 PUSH2 0x1B3B JUMP JUMPDEST SWAP2 SWAP1 POP JUMP JUMPDEST PUSH1 0x0 PUSH2 0x1B6D DUP3 PUSH2 0x1B4F JUMP JUMPDEST SWAP1 POP SWAP2 SWAP1 POP JUMP JUMPDEST PUSH2 0x1B7D DUP2 PUSH2 0x1B62 JUMP JUMPDEST DUP3 MSTORE POP POP JUMP JUMPDEST PUSH1 0xA0 DUP3 ADD PUSH1 0x0 DUP3 ADD MLOAD PUSH2 0x1B99 PUSH1 0x0 DUP6 ADD DUP3 PUSH2 0x1AEE JUMP JUMPDEST POP PUSH1 0x20 DUP3 ADD MLOAD PUSH2 0x1BAC PUSH1 0x20 DUP6 ADD DUP3 PUSH2 0x1AEE JUMP JUMPDEST POP PUSH1 0x40 DUP3 ADD MLOAD PUSH2 0x1BBF PUSH1 0x40 DUP6 ADD DUP3 PUSH2 0x1AFD JUMP JUMPDEST POP PUSH1 0x60 DUP3 ADD MLOAD PUSH2 0x1BD2 PUSH1 0x60 DUP6 ADD DUP3 PUSH2 0x1AFD JUMP JUMPDEST POP PUSH1 0x80 DUP3 ADD MLOAD PUSH2 0x1BE5 PUSH1 0x80 DUP6 ADD DUP3 PUSH2 0x1B74 JUMP JUMPDEST POP POP POP POP JUMP JUMPDEST PUSH1 0x0 PUSH2 0x1BF7 DUP4 DUP4 PUSH2 0x1B83 JUMP JUMPDEST PUSH1 0xA0 DUP4 ADD SWAP1 POP SWAP3 SWAP2 POP POP JUMP JUMPDEST PUSH1 0x0 PUSH1 0x20 DUP3 ADD SWAP1 POP SWAP2 SWAP1 POP JUMP JUMPDEST PUSH1 0x0 PUSH2 0x1C1B DUP3 PUSH2 0x1AC2 JUMP JUMPDEST PUSH2 0x1C25 DUP2 DUP6 PUSH2 0x1ACD JUMP JUMPDEST SWAP4 POP PUSH2 0x1C30 DUP4 PUSH2 0x1ADE JUMP JUMPDEST DUP1 PUSH1 0x0 JUMPDEST DUP4 DUP2 LT ISZERO PUSH2 0x1C61 JUMPI DUP2 MLOAD PUSH2 0x1C48 DUP9 DUP3 PUSH2 0x1BEB JUMP JUMPDEST SWAP8 POP PUSH2 0x1C53 DUP4 PUSH2 0x1C03 JUMP JUMPDEST SWAP3 POP POP PUSH1 0x1 DUP2 ADD SWAP1 POP PUSH2 0x1C34 JUMP JUMPDEST POP DUP6 SWAP4 POP POP POP POP SWAP3 SWAP2 POP POP JUMP JUMPDEST PUSH1 0x0 PUSH1 0x20 DUP3 ADD SWAP1 POP DUP2 DUP2 SUB PUSH1 0x0 DUP4 ADD MSTORE PUSH2 0x1C88 DUP2 DUP5 PUSH2 0x1C10 JUMP JUMPDEST SWAP1 POP SWAP3 SWAP2 POP POP JUMP JUMPDEST PUSH2 0x1C99 DUP2 PUSH2 0x1988 JUMP JUMPDEST DUP3 MSTORE POP POP JUMP JUMPDEST PUSH1 0x0 PUSH1 0x20 DUP3 ADD SWAP1 POP PUSH2 0x1CB4 PUSH1 0x0 DUP4 ADD DUP5 PUSH2 0x1C90 JUMP JUMPDEST SWAP3 SWAP2 POP POP JUMP JUMPDEST PUSH1 0x0 DUP1 PUSH1 0x40 DUP4 DUP6 SUB SLT ISZERO PUSH2 0x1CD1 JUMPI PUSH2 0x1CD0 PUSH2 0x1900 JUMP JUMPDEST JUMPDEST PUSH1 0x0 PUSH2 0x1CDF DUP6 DUP3 DUP7 ADD PUSH2 0x19B1 JUMP JUMPDEST SWAP3 POP POP PUSH1 0x20 PUSH2 0x1CF0 DUP6 DUP3 DUP7 ADD PUSH2 0x1926 JUMP JUMPDEST SWAP2 POP POP SWAP3 POP SWAP3 SWAP1 POP JUMP JUMPDEST PUSH2 0x1D03 DUP2 PUSH2 0x1B62 JUMP JUMPDEST DUP3 MSTORE POP POP JUMP JUMPDEST PUSH1 0x0 PUSH1 0xA0 DUP3 ADD SWAP1 POP PUSH2 0x1D1E PUSH1 0x0 DUP4 ADD DUP9 PUSH2 0x1C90 JUMP JUMPDEST PUSH2 0x1D2B PUSH1 0x20 DUP4 ADD DUP8 PUSH2 0x1C90 JUMP JUMPDEST PUSH2 0x1D38 PUSH1 0x40 DUP4 ADD DUP7 PUSH2 0x1A58 JUMP JUMPDEST PUSH2 0x1D45 PUSH1 0x60 DUP4 ADD DUP6 PUSH2 0x1A58 JUMP JUMPDEST PUSH2 0x1D52 PUSH1 0x80 DUP4 ADD DUP5 PUSH2 0x1CFA JUMP JUMPDEST SWAP7 SWAP6 POP POP POP POP POP POP JUMP JUMPDEST PUSH1 0x0 DUP2 SWAP1 POP SWAP2 SWAP1 POP JUMP JUMPDEST PUSH1 0x0 PUSH2 0x1D81 PUSH2 0x1D7C PUSH2 0x1D77 DUP5 PUSH2 0x1968 JUMP JUMPDEST PUSH2 0x1D5C JUMP JUMPDEST PUSH2 0x1968 JUMP JUMPDEST SWAP1 POP SWAP2 SWAP1 POP JUMP JUMPDEST PUSH1 0x0 PUSH2 0x1D93 DUP3 PUSH2 0x1D66 JUMP JUMPDEST SWAP1 POP SWAP2 SWAP1 POP JUMP JUMPDEST PUSH1 0x0 PUSH2 0x1DA5 DUP3 PUSH2 0x1D88 JUMP JUMPDEST SWAP1 POP SWAP2 SWAP1 POP JUMP JUMPDEST PUSH2 0x1DB5 DUP2 PUSH2 0x1D9A JUMP JUMPDEST DUP3 MSTORE POP POP JUMP JUMPDEST PUSH1 0x0 PUSH1 0x20 DUP3 ADD SWAP1 POP PUSH2 0x1DD0 PUSH1 0x0 DUP4 ADD DUP5 PUSH2 0x1DAC JUMP JUMPDEST SWAP3 SWAP2 POP POP JUMP JUMPDEST PUSH1 0x0 DUP3 DUP3 MSTORE PUSH1 0x20 DUP3 ADD SWAP1 POP SWAP3 SWAP2 POP POP JUMP JUMPDEST PUSH32 0x596F7574206D757374206265207468652073656E646572000000000000000000 PUSH1 0x0 DUP3 ADD MSTORE POP JUMP JUMPDEST PUSH1 0x0 PUSH2 0x1E1D PUSH1 0x17 DUP4 PUSH2 0x1DD6 JUMP JUMPDEST SWAP2 POP PUSH2 0x1E28 DUP3 PUSH2 0x1DE7 JUMP JUMPDEST PUSH1 0x20 DUP3 ADD SWAP1 POP SWAP2 SWAP1 POP JUMP JUMPDEST PUSH1 0x0 PUSH1 0x20 DUP3 ADD SWAP1 POP DUP2 DUP2 SUB PUSH1 0x0 DUP4 ADD MSTORE PUSH2 0x1E4C DUP2 PUSH2 0x1E10 JUMP JUMPDEST SWAP1 POP SWAP2 SWAP1 POP JUMP JUMPDEST PUSH32 0x507265737461206973206E6F742077616974696E670000000000000000000000 PUSH1 0x0 DUP3 ADD MSTORE POP JUMP JUMPDEST PUSH1 0x0 PUSH2 0x1E89 PUSH1 0x15 DUP4 PUSH2 0x1DD6 JUMP JUMPDEST SWAP2 POP PUSH2 0x1E94 DUP3 PUSH2 0x1E53 JUMP JUMPDEST PUSH1 0x20 DUP3 ADD SWAP1 POP SWAP2 SWAP1 POP JUMP JUMPDEST PUSH1 0x0 PUSH1 0x20 DUP3 ADD SWAP1 POP DUP2 DUP2 SUB PUSH1 0x0 DUP4 ADD MSTORE PUSH2 0x1EB8 DUP2 PUSH2 0x1E7C JUMP JUMPDEST SWAP1 POP SWAP2 SWAP1 POP JUMP JUMPDEST PUSH32 0x4E487B7100000000000000000000000000000000000000000000000000000000 PUSH1 0x0 MSTORE PUSH1 0x11 PUSH1 0x4 MSTORE PUSH1 0x24 PUSH1 0x0 REVERT JUMPDEST PUSH1 0x0 PUSH2 0x1EF9 DUP3 PUSH2 0x1905 JUMP JUMPDEST SWAP2 POP PUSH2 0x1F04 DUP4 PUSH2 0x1905 JUMP JUMPDEST SWAP3 POP DUP3 DUP3 SUB SWAP1 POP DUP2 DUP2 GT ISZERO PUSH2 0x1F1C JUMPI PUSH2 0x1F1B PUSH2 0x1EBF JUMP JUMPDEST JUMPDEST SWAP3 SWAP2 POP POP JUMP JUMPDEST PUSH1 0x0 PUSH1 0x40 DUP3 ADD SWAP1 POP PUSH2 0x1F37 PUSH1 0x0 DUP4 ADD DUP6 PUSH2 0x1C90 JUMP JUMPDEST PUSH2 0x1F44 PUSH1 0x20 DUP4 ADD DUP5 PUSH2 0x1A58 JUMP JUMPDEST SWAP4 SWAP3 POP POP POP JUMP JUMPDEST PUSH1 0x0 DUP2 ISZERO ISZERO SWAP1 POP SWAP2 SWAP1 POP JUMP JUMPDEST PUSH2 0x1F60 DUP2 PUSH2 0x1F4B JUMP JUMPDEST DUP2 EQ PUSH2 0x1F6B JUMPI PUSH1 0x0 DUP1 REVERT JUMPDEST POP JUMP JUMPDEST PUSH1 0x0 DUP2 MLOAD SWAP1 POP PUSH2 0x1F7D DUP2 PUSH2 0x1F57 JUMP JUMPDEST SWAP3 SWAP2 POP POP JUMP JUMPDEST PUSH1 0x0 PUSH1 0x20 DUP3 DUP5 SUB SLT ISZERO PUSH2 0x1F99 JUMPI PUSH2 0x1F98 PUSH2 0x1900 JUMP JUMPDEST JUMPDEST PUSH1 0x0 PUSH2 0x1FA7 DUP5 DUP3 DUP6 ADD PUSH2 0x1F6E JUMP JUMPDEST SWAP2 POP POP SWAP3 SWAP2 POP POP JUMP JUMPDEST PUSH32 0x4E487B7100000000000000000000000000000000000000000000000000000000 PUSH1 0x0 MSTORE PUSH1 0x32 PUSH1 0x4 MSTORE PUSH1 0x24 PUSH1 0x0 REVERT JUMPDEST PUSH1 0x0 PUSH2 0x1FEA DUP3 PUSH2 0x1905 JUMP JUMPDEST SWAP2 POP PUSH32 0xFFFFFFFFFFFFFFFFFFFFFFFFFFFFFFFFFFFFFFFFFFFFFFFFFFFFFFFFFFFFFFFF DUP3 SUB PUSH2 0x201C JUMPI PUSH2 0x201B PUSH2 0x1EBF JUMP JUMPDEST JUMPDEST PUSH1 0x1 DUP3 ADD SWAP1 POP SWAP2 SWAP1 POP JUMP JUMPDEST PUSH32 0x43616E27742073656E6420746F2068696D73656C660000000000000000000000 PUSH1 0x0 DUP3 ADD MSTORE POP JUMP JUMPDEST PUSH1 0x0 PUSH2 0x205D PUSH1 0x15 DUP4 PUSH2 0x1DD6 JUMP JUMPDEST SWAP2 POP PUSH2 0x2068 DUP3 PUSH2 0x2027 JUMP JUMPDEST PUSH1 0x20 DUP3 ADD SWAP1 POP SWAP2 SWAP1 POP JUMP JUMPDEST PUSH1 0x0 PUSH1 0x20 DUP3 ADD SWAP1 POP DUP2 DUP2 SUB PUSH1 0x0 DUP4 ADD MSTORE PUSH2 0x208C DUP2 PUSH2 0x2050 JUMP JUMPDEST SWAP1 POP SWAP2 SWAP1 POP JUMP JUMPDEST PUSH1 0x0 PUSH1 0x60 DUP3 ADD SWAP1 POP PUSH2 0x20A8 PUSH1 0x0 DUP4 ADD DUP7 PUSH2 0x1C90 JUMP JUMPDEST PUSH2 0x20B5 PUSH1 0x20 DUP4 ADD DUP6 PUSH2 0x1C90 JUMP JUMPDEST PUSH2 0x20C2 PUSH1 0x40 DUP4 ADD DUP5 PUSH2 0x1A58 JUMP JUMPDEST SWAP5 SWAP4 POP POP POP POP JUMP JUMPDEST PUSH1 0x0 PUSH1 0xA0 DUP3 ADD SWAP1 POP PUSH2 0x20DF PUSH1 0x0 DUP4 ADD DUP9 PUSH2 0x1C90 JUMP JUMPDEST PUSH2 0x20EC PUSH1 0x20 DUP4 ADD DUP8 PUSH2 0x1C90 JUMP JUMPDEST PUSH2 0x20F9 PUSH1 0x40 DUP4 ADD DUP7 PUSH2 0x1A58 JUMP JUMPDEST PUSH2 0x2106 PUSH1 0x60 DUP4 ADD DUP6 PUSH2 0x1A58 JUMP JUMPDEST PUSH2 0x2113 PUSH1 0x80 DUP4 ADD DUP5 PUSH2 0x1A58 JUMP JUMPDEST SWAP7 SWAP6 POP POP POP POP POP POP JUMP JUMPDEST PUSH32 0x4E487B7100000000000000000000000000000000000000000000000000000000 PUSH1 0x0 MSTORE PUSH1 0x41 PUSH1 0x4 MSTORE PUSH1 0x24 PUSH1 0x0 REVERT JUMPDEST PUSH32 0x4F776E61626C653A206E6577206F776E657220697320746865207A65726F2061 PUSH1 0x0 DUP3 ADD MSTORE PUSH32 0x6464726573730000000000000000000000000000000000000000000000000000 PUSH1 0x20 DUP3 ADD MSTORE POP JUMP JUMPDEST PUSH1 0x0 PUSH2 0x21A8 PUSH1 0x26 DUP4 PUSH2 0x1DD6 JUMP JUMPDEST SWAP2 POP PUSH2 0x21B3 DUP3 PUSH2 0x214C JUMP JUMPDEST PUSH1 0x40 DUP3 ADD SWAP1 POP SWAP2 SWAP1 POP JUMP JUMPDEST PUSH1 0x0 PUSH1 0x20 DUP3 ADD SWAP1 POP DUP2 DUP2 SUB PUSH1 0x0 DUP4 ADD MSTORE PUSH2 0x21D7 DUP2 PUSH2 0x219B JUMP JUMPDEST SWAP1 POP SWAP2 SWAP1 POP JUMP JUMPDEST PUSH32 0x4F776E61626C653A2063616C6C6572206973206E6F7420746865206F776E6572 PUSH1 0x0 DUP3 ADD MSTORE POP JUMP JUMPDEST PUSH1 0x0 PUSH2 0x2214 PUSH1 0x20 DUP4 PUSH2 0x1DD6 JUMP JUMPDEST SWAP2 POP PUSH2 0x221F DUP3 PUSH2 0x21DE JUMP JUMPDEST PUSH1 0x20 DUP3 ADD SWAP1 POP SWAP2 SWAP1 POP JUMP JUMPDEST PUSH1 0x0 PUSH1 0x20 DUP3 ADD SWAP1 POP DUP2 DUP2 SUB PUSH1 0x0 DUP4 ADD MSTORE PUSH2 0x2243 DUP2 PUSH2 0x2207 JUMP JUMPDEST SWAP1 POP SWAP2 SWAP1 POP JUMP JUMPDEST PUSH1 0x0 PUSH2 0x2255 DUP3 PUSH2 0x1905 JUMP JUMPDEST SWAP2 POP PUSH2 0x2260 DUP4 PUSH2 0x1905 JUMP JUMPDEST SWAP3 POP DUP2 PUSH32 0xFFFFFFFFFFFFFFFFFFFFFFFFFFFFFFFFFFFFFFFFFFFFFFFFFFFFFFFFFFFFFFFF DIV DUP4 GT DUP3 ISZERO ISZERO AND ISZERO PUSH2 0x2299 JUMPI PUSH2 0x2298 PUSH2 0x1EBF JUMP JUMPDEST JUMPDEST DUP3 DUP3 MUL SWAP1 POP SWAP3 SWAP2 POP POP JUMP JUMPDEST PUSH32 0x4E487B7100000000000000000000000000000000000000000000000000000000 PUSH1 0x0 MSTORE PUSH1 0x12 PUSH1 0x4 MSTORE PUSH1 0x24 PUSH1 0x0 REVERT JUMPDEST PUSH1 0x0 PUSH2 0x22DE DUP3 PUSH2 0x1905 JUMP JUMPDEST SWAP2 POP PUSH2 0x22E9 DUP4 PUSH2 0x1905 JUMP JUMPDEST SWAP3 POP DUP3 PUSH2 0x22F9 JUMPI PUSH2 0x22F8 PUSH2 0x22A4 JUMP JUMPDEST JUMPDEST DUP3 DUP3 DIV SWAP1 POP SWAP3 SWAP2 POP POP JUMP INVALID LOG2 PUSH5 0x6970667358 0x22 SLT KECCAK256 CODESIZE 0xE 0x2F 0xB6 0xA8 0xED 0xAB PUSH3 0x12B9BC 0x24 DUP7 CALLVALUE DUP9 EXP DUP9 DUP1 REVERT SWAP8 SWAP13 0xE5 RETURNDATASIZE 0x23 PUSH21 0xB1F9EDF81F44BC64736F6C63430008100033000000 "
				},
				"gasEstimates": {
					"creation": {
						"codeDepositCost": "1803600",
						"executionCost": "infinite",
						"totalCost": "infinite"
					},
					"external": {
						"cancelTransfertPresta(uint256)": "infinite",
						"createPresta(uint256,address)": "infinite",
						"getNumberPrestaOfSender(address,uint8)": "infinite",
						"getPrestaForRecipient()": "infinite",
						"getPrestaOfSender()": "infinite",
						"owner()": "2545",
						"prestaBySender(address,uint256)": "infinite",
						"prestaForRecipient(address,uint256)": "infinite",
						"prestas(uint256)": "infinite",
						"renounceOwnership()": "30465",
						"setAddressFees(address)": "27054",
						"setFees(uint256)": "24830",
						"setFeesCancel(uint256)": "24828",
						"token()": "infinite",
						"transferOwnership(address)": "30810",
						"validTransfertPresta(uint256)": "infinite"
					}
				},
				"methodIdentifiers": {
					"cancelTransfertPresta(uint256)": "6de3ee50",
					"createPresta(uint256,address)": "6c8b4bea",
					"getNumberPrestaOfSender(address,uint8)": "5ae98139",
					"getPrestaForRecipient()": "7834b2d5",
					"getPrestaOfSender()": "9b0d92c5",
					"owner()": "8da5cb5b",
					"prestaBySender(address,uint256)": "99535b38",
					"prestaForRecipient(address,uint256)": "b8038687",
					"prestas(uint256)": "dad01917",
					"renounceOwnership()": "715018a6",
					"setAddressFees(address)": "55b77b22",
					"setFees(uint256)": "3d18678e",
					"setFeesCancel(uint256)": "edc1be58",
					"token()": "fc0c546a",
					"transferOwnership(address)": "f2fde38b",
					"validTransfertPresta(uint256)": "39be072b"
				}
			},
			"storageLayout": {
				"storage": [
					{
						"astId": 7,
						"contract": "vault.sol:PrestaVault",
						"label": "_owner",
						"offset": 0,
						"slot": "0",
						"type": "t_address"
					},
					{
						"astId": 782,
						"contract": "vault.sol:PrestaVault",
						"label": "addressFees",
						"offset": 0,
						"slot": "1",
						"type": "t_address"
					},
					{
						"astId": 784,
						"contract": "vault.sol:PrestaVault",
						"label": "contratKey",
						"offset": 0,
						"slot": "2",
						"type": "t_uint256"
					},
					{
						"astId": 786,
						"contract": "vault.sol:PrestaVault",
						"label": "fees",
						"offset": 0,
						"slot": "3",
						"type": "t_uint256"
					},
					{
						"astId": 788,
						"contract": "vault.sol:PrestaVault",
						"label": "feesCancel",
						"offset": 0,
						"slot": "4",
						"type": "t_uint256"
					},
					{
						"astId": 809,
						"contract": "vault.sol:PrestaVault",
						"label": "prestas",
						"offset": 0,
						"slot": "5",
						"type": "t_mapping(t_uint256,t_struct(presta)804_storage)"
					},
					{
						"astId": 814,
						"contract": "vault.sol:PrestaVault",
						"label": "prestaBySender",
						"offset": 0,
						"slot": "6",
						"type": "t_mapping(t_address,t_array(t_uint256)dyn_storage)"
					},
					{
						"astId": 819,
						"contract": "vault.sol:PrestaVault",
						"label": "prestaForRecipient",
						"offset": 0,
						"slot": "7",
						"type": "t_mapping(t_address,t_array(t_uint256)dyn_storage)"
					}
				],
				"types": {
					"t_address": {
						"encoding": "inplace",
						"label": "address",
						"numberOfBytes": "20"
					},
					"t_array(t_uint256)dyn_storage": {
						"base": "t_uint256",
						"encoding": "dynamic_array",
						"label": "uint256[]",
						"numberOfBytes": "32"
					},
					"t_enum(prestaStatus)792": {
						"encoding": "inplace",
						"label": "enum PrestaVault.prestaStatus",
						"numberOfBytes": "1"
					},
					"t_mapping(t_address,t_array(t_uint256)dyn_storage)": {
						"encoding": "mapping",
						"key": "t_address",
						"label": "mapping(address => uint256[])",
						"numberOfBytes": "32",
						"value": "t_array(t_uint256)dyn_storage"
					},
					"t_mapping(t_uint256,t_struct(presta)804_storage)": {
						"encoding": "mapping",
						"key": "t_uint256",
						"label": "mapping(uint256 => struct PrestaVault.presta)",
						"numberOfBytes": "32",
						"value": "t_struct(presta)804_storage"
					},
					"t_struct(presta)804_storage": {
						"encoding": "inplace",
						"label": "struct PrestaVault.presta",
						"members": [
							{
								"astId": 794,
								"contract": "vault.sol:PrestaVault",
								"label": "from",
								"offset": 0,
								"slot": "0",
								"type": "t_address"
							},
							{
								"astId": 796,
								"contract": "vault.sol:PrestaVault",
								"label": "to",
								"offset": 0,
								"slot": "1",
								"type": "t_address"
							},
							{
								"astId": 798,
								"contract": "vault.sol:PrestaVault",
								"label": "amount",
								"offset": 0,
								"slot": "2",
								"type": "t_uint256"
							},
							{
								"astId": 800,
								"contract": "vault.sol:PrestaVault",
								"label": "amount_fees",
								"offset": 0,
								"slot": "3",
								"type": "t_uint256"
							},
							{
								"astId": 803,
								"contract": "vault.sol:PrestaVault",
								"label": "status",
								"offset": 0,
								"slot": "4",
								"type": "t_enum(prestaStatus)792"
							}
						],
						"numberOfBytes": "160"
					},
					"t_uint256": {
						"encoding": "inplace",
						"label": "uint256",
						"numberOfBytes": "32"
					}
				}
			},
			"userdoc": {
				"kind": "user",
				"methods": {
					"cancelTransfertPresta(uint256)": {
						"notice": "Annule une transaction et renvoi l'argent à _from"
					},
					"createPresta(uint256,address)": {
						"notice": "Créé une nouvelle prestation"
					},
					"getNumberPrestaOfSender(address,uint8)": {
						"notice": "Retourne le nombre de prestations envoyés par cette personne dans le status souhaité"
					},
					"getPrestaForRecipient()": {
						"notice": "Retourne les prestations pour la personne connectée"
					},
					"getPrestaOfSender()": {
						"notice": "Retourne les prestations envoyés par la personne connectée"
					},
					"setAddressFees(address)": {
						"notice": "Permet de changer l adresse qui va recevoir les fees"
					},
					"setFees(uint256)": {
						"notice": "Permet de changer les fees"
					},
					"setFeesCancel(uint256)": {
						"notice": "Permet de changer les fees d'annulation"
					},
					"validTransfertPresta(uint256)": {
						"notice": "Valide une transaction et envoi l'argent à _to"
					}
				},
				"notice": "Le contrat Vault",
				"version": 1
			}
		}
	}
}